{
  "address": "0x6Ef06a2f7B54eEf7BF05BaEf9580aCbcFC7c8575",
  "abi": [
    {
      "inputs": [
        {
          "internalType": "address",
          "name": "defaultAdmin",
          "type": "address"
        },
        {
          "internalType": "address",
          "name": "pauser",
          "type": "address"
        },
        {
          "internalType": "address",
          "name": "functionsRouterAddress",
          "type": "address"
        },
        {
          "internalType": "address",
          "name": "realEstateTokenRegistryAddress",
          "type": "address"
        }
      ],
      "stateMutability": "nonpayable",
      "type": "constructor"
    },
    {
      "inputs": [],
      "name": "AccessControlBadConfirmation",
      "type": "error"
    },
    {
      "inputs": [
        {
          "internalType": "address",
          "name": "account",
          "type": "address"
        },
        {
          "internalType": "bytes32",
          "name": "neededRole",
          "type": "bytes32"
        }
      ],
      "name": "AccessControlUnauthorizedAccount",
      "type": "error"
    },
    {
      "inputs": [],
      "name": "EmptySource",
      "type": "error"
    },
    {
      "inputs": [],
      "name": "EnforcedPause",
      "type": "error"
    },
    {
      "inputs": [],
      "name": "ExpectedPause",
      "type": "error"
    },
    {
      "inputs": [],
      "name": "NoInlineSecrets",
      "type": "error"
    },
    {
      "inputs": [],
      "name": "OnlyAutomationForwarderCanCall",
      "type": "error"
    },
    {
      "inputs": [],
      "name": "OnlyRouterCanFulfill",
      "type": "error"
    },
    {
      "anonymous": false,
      "inputs": [
        {
          "indexed": false,
          "internalType": "address",
          "name": "account",
          "type": "address"
        }
      ],
      "name": "Paused",
      "type": "event"
    },
    {
      "anonymous": false,
      "inputs": [
        {
          "indexed": true,
          "internalType": "bytes32",
          "name": "id",
          "type": "bytes32"
        }
      ],
      "name": "RequestFulfilled",
      "type": "event"
    },
    {
      "anonymous": false,
      "inputs": [
        {
          "indexed": true,
          "internalType": "bytes32",
          "name": "id",
          "type": "bytes32"
        }
      ],
      "name": "RequestSent",
      "type": "event"
    },
    {
      "anonymous": false,
      "inputs": [
        {
          "indexed": true,
          "internalType": "bytes32",
          "name": "role",
          "type": "bytes32"
        },
        {
          "indexed": true,
          "internalType": "bytes32",
          "name": "previousAdminRole",
          "type": "bytes32"
        },
        {
          "indexed": true,
          "internalType": "bytes32",
          "name": "newAdminRole",
          "type": "bytes32"
        }
      ],
      "name": "RoleAdminChanged",
      "type": "event"
    },
    {
      "anonymous": false,
      "inputs": [
        {
          "indexed": true,
          "internalType": "bytes32",
          "name": "role",
          "type": "bytes32"
        },
        {
          "indexed": true,
          "internalType": "address",
          "name": "account",
          "type": "address"
        },
        {
          "indexed": true,
          "internalType": "address",
          "name": "sender",
          "type": "address"
        }
      ],
      "name": "RoleGranted",
      "type": "event"
    },
    {
      "anonymous": false,
      "inputs": [
        {
          "indexed": true,
          "internalType": "bytes32",
          "name": "role",
          "type": "bytes32"
        },
        {
          "indexed": true,
          "internalType": "address",
          "name": "account",
          "type": "address"
        },
        {
          "indexed": true,
          "internalType": "address",
          "name": "sender",
          "type": "address"
        }
      ],
      "name": "RoleRevoked",
      "type": "event"
    },
    {
      "anonymous": false,
      "inputs": [
        {
          "indexed": false,
          "internalType": "address",
          "name": "account",
          "type": "address"
        }
      ],
      "name": "Unpaused",
      "type": "event"
    },
    {
      "inputs": [],
      "name": "DEFAULT_ADMIN_ROLE",
      "outputs": [
        {
          "internalType": "bytes32",
          "name": "",
          "type": "bytes32"
        }
      ],
      "stateMutability": "view",
      "type": "function"
    },
    {
      "inputs": [],
      "name": "PAUSER_ROLE",
      "outputs": [
        {
          "internalType": "bytes32",
          "name": "",
          "type": "bytes32"
        }
      ],
      "stateMutability": "view",
      "type": "function"
    },
    {
      "inputs": [
        {
          "internalType": "bytes32",
          "name": "role",
          "type": "bytes32"
        }
      ],
      "name": "getRoleAdmin",
      "outputs": [
        {
          "internalType": "bytes32",
          "name": "",
          "type": "bytes32"
        }
      ],
      "stateMutability": "view",
      "type": "function"
    },
    {
      "inputs": [
        {
          "internalType": "bytes32",
          "name": "role",
          "type": "bytes32"
        },
        {
          "internalType": "address",
          "name": "account",
          "type": "address"
        }
      ],
      "name": "grantRole",
      "outputs": [],
      "stateMutability": "nonpayable",
      "type": "function"
    },
    {
      "inputs": [
        {
          "internalType": "bytes32",
          "name": "requestId",
          "type": "bytes32"
        },
        {
          "internalType": "bytes",
          "name": "response",
          "type": "bytes"
        },
        {
          "internalType": "bytes",
          "name": "err",
          "type": "bytes"
        }
      ],
      "name": "handleOracleFulfillment",
      "outputs": [],
      "stateMutability": "nonpayable",
      "type": "function"
    },
    {
      "inputs": [
        {
          "internalType": "bytes32",
          "name": "role",
          "type": "bytes32"
        },
        {
          "internalType": "address",
          "name": "account",
          "type": "address"
        }
      ],
      "name": "hasRole",
      "outputs": [
        {
          "internalType": "bool",
          "name": "",
          "type": "bool"
        }
      ],
      "stateMutability": "view",
      "type": "function"
    },
    {
      "inputs": [],
      "name": "pause",
      "outputs": [],
      "stateMutability": "nonpayable",
      "type": "function"
    },
    {
      "inputs": [],
      "name": "paused",
      "outputs": [
        {
          "internalType": "bool",
          "name": "",
          "type": "bool"
        }
      ],
      "stateMutability": "view",
      "type": "function"
    },
    {
      "inputs": [],
      "name": "realEstateTokenRegistry",
      "outputs": [
        {
          "internalType": "contract RealEstateTokenRegistry",
          "name": "",
          "type": "address"
        }
      ],
      "stateMutability": "view",
      "type": "function"
    },
    {
      "inputs": [
        {
          "internalType": "bytes32",
          "name": "role",
          "type": "bytes32"
        },
        {
          "internalType": "address",
          "name": "callerConfirmation",
          "type": "address"
        }
      ],
      "name": "renounceRole",
      "outputs": [],
      "stateMutability": "nonpayable",
      "type": "function"
    },
    {
      "inputs": [
        {
          "internalType": "bytes32",
          "name": "role",
          "type": "bytes32"
        },
        {
          "internalType": "address",
          "name": "account",
          "type": "address"
        }
      ],
      "name": "revokeRole",
      "outputs": [],
      "stateMutability": "nonpayable",
      "type": "function"
    },
    {
      "inputs": [
        {
          "internalType": "address",
          "name": "automationForwarderAddress",
          "type": "address"
        }
      ],
      "name": "setAutomationForwarder",
      "outputs": [],
      "stateMutability": "nonpayable",
      "type": "function"
    },
    {
      "inputs": [
        {
          "internalType": "bytes4",
          "name": "interfaceId",
          "type": "bytes4"
        }
      ],
      "name": "supportsInterface",
      "outputs": [
        {
          "internalType": "bool",
          "name": "",
          "type": "bool"
        }
      ],
      "stateMutability": "view",
      "type": "function"
    },
    {
      "inputs": [],
      "name": "unpause",
      "outputs": [],
      "stateMutability": "nonpayable",
      "type": "function"
    },
    {
      "inputs": [
        {
          "internalType": "address",
          "name": "propertyOwner",
          "type": "address"
        },
        {
          "internalType": "uint256",
          "name": "propertyId",
          "type": "uint256"
        },
        {
          "internalType": "uint64",
          "name": "subscriptionId",
          "type": "uint64"
        },
        {
          "internalType": "uint32",
          "name": "gasLimit",
          "type": "uint32"
        },
        {
          "internalType": "bytes32",
          "name": "donID",
          "type": "bytes32"
        },
        {
          "internalType": "string",
          "name": "source",
          "type": "string"
        }
      ],
      "name": "updatePriceDetailsInitiate",
      "outputs": [
        {
          "internalType": "bytes32",
          "name": "requestId",
          "type": "bytes32"
        }
      ],
      "stateMutability": "nonpayable",
      "type": "function"
    }
  ],
  "transactionHash": "0x05b76f3e4a7d43a498f5e555f421b1d33a20d8831c7c906417972c63e11f8df2",
  "args": [
    "0x9BD348A8c28A95B256C0262d6Af33ad9912f6073",
    "0x9BD348A8c28A95B256C0262d6Af33ad9912f6073",
    "0x234a5fb5Bd614a7AA2FfAB244D603abFA0Ac5C5C",
    "0x15B6914b88db674D0ED487F0ACE909aBe2278A13"
  ],
  "numDeployments": 1,
  "solcInputHash": "1d98e25b2899efcac4babf9eed3bc04a",
  "bytecode": "0x60a06040523480156200001157600080fd5b506040516200191538038062001915833981016040819052620000349162000163565b6000805460ff191681556001600160a01b038316608052620000579085620000af565b50620000847f65d7a28e3265b37a6474929f336521b332c1681b933f6cb9f3376673440d862a84620000af565b50600280546001600160a01b0319166001600160a01b039290921691909117905550620001c0915050565b60008281526001602090815260408083206001600160a01b038516845290915281205460ff166200013c5760008381526001602081815260408084206001600160a01b0387168086529252808420805460ff19169093179092559051339286917f2f8788117e7eff1d82e926ec794901d17c78024a50270940304540a733656f0d9190a450600162000140565b5060005b92915050565b80516001600160a01b03811681146200015e57600080fd5b919050565b600080600080608085870312156200017a57600080fd5b620001858562000146565b9350620001956020860162000146565b9250620001a56040860162000146565b9150620001b56060860162000146565b905092959194509250565b608051611732620001e3600039600081816102920152610b8d01526117326000f3fe608060405234801561001057600080fd5b50600436106100f55760003560e01c80635c975abb11610097578063a217fddf11610066578063a217fddf146101fb578063d40d17bc14610203578063d547741f14610216578063e63ab1e91461022957600080fd5b80635c975abb146101c25780638456cb59146101cd5780638cd7fb27146101d557806391d14854146101e857600080fd5b80632f2ff15d116100d35780632f2ff15d1461016957806336568abe1461017c5780633f4ba83a1461018f578063523d161a1461019757600080fd5b806301ffc9a7146100fa5780630ca7617514610122578063248a9ca314610137575b600080fd5b61010d610108366004611202565b610250565b60405190151581526020015b60405180910390f35b6101356101303660046112cf565b610287565b005b61015b61014536600461133c565b6000908152600160208190526040909120015490565b604051908152602001610119565b61013561017736600461136a565b61030b565b61013561018a36600461136a565b610337565b61013561036f565b6002546101aa906001600160a01b031681565b6040516001600160a01b039091168152602001610119565b60005460ff1661010d565b6101356103a4565b61015b6101e336600461139a565b6103d6565b61010d6101f636600461136a565b610525565b61015b600081565b610135610211366004611435565b610550565b61013561022436600461136a565b61057e565b61015b7f65d7a28e3265b37a6474929f336521b332c1681b933f6cb9f3376673440d862a81565b60006001600160e01b03198216637965db0b60e01b148061028157506301ffc9a760e01b6001600160e01b03198316145b92915050565b336001600160a01b037f000000000000000000000000000000000000000000000000000000000000000016146102d05760405163c6829f8360e01b815260040160405180910390fd5b6102db8383836105a4565b60405183907f85e1543bf2f84fe80c6badbce3648c8539ad1df4d2b3d822938ca0538be727e690600090a2505050565b6000828152600160208190526040909120015461032781610720565b610331838361072a565b50505050565b6001600160a01b03811633146103605760405163334bd91960e11b815260040160405180910390fd5b61036a82826107a3565b505050565b7f65d7a28e3265b37a6474929f336521b332c1681b933f6cb9f3376673440d862a61039981610720565b6103a1610810565b50565b7f65d7a28e3265b37a6474929f336521b332c1681b933f6cb9f3376673440d862a6103ce81610720565b6103a1610862565b6003546000906001600160a01b031633146104045760405163e159c1ad60e01b815260040160405180910390fd5b6104456040805160e0810190915280600081526020016000815260200160008152602001606081526020016060815260200160608152602001606081525090565b61044f818461089f565b60408051600280825260608201909252600091816020015b606081526020019060019003908161046757505060408051602081018b905291925001604051602081830303815290604052816000815181106104ac576104ac611452565b6020026020010181905250886040516020016104d791906001600160a01b0391909116815260200190565b604051602081830303815290604052816001815181106104f9576104f9611452565b6020026020010181905250610518610510836108b0565b888888610b88565b9998505050505050505050565b60009182526001602090815260408084206001600160a01b0393909316845291905290205460ff1690565b600061055b81610720565b50600380546001600160a01b0319166001600160a01b0392909216919091179055565b6000828152600160208190526040909120015461059a81610720565b61033183836107a3565b6000806000806000868060200190518101906105c09190611468565b9398509196509450925090506032601e60146000816105df84866114c7565b6105e991906114c7565b6105f386846114da565b6105fd88866114da565b6106078a886114da565b61061191906114c7565b61061b91906114c7565b6106259190611507565b60025460405163608ab24160e01b81526001600160a01b038c81166004830152602482018c90526044820184905292935091169063608ab24190606401600060405180830381600087803b15801561067c57600080fd5b505af1158015610690573d6000803e3d6000fd5b50506040805160608101825269ffffffffffffffffffff9a8b168152988a166020808b01918252988b168a830190815260009c8d5260049099529a20975188549a5197518a16600160a01b0269ffffffffffffffffffff60a01b19988b16600160501b026001600160a01b0319909c1691909a161799909917959095169690961790945550505050505050505050565b6103a18133610c5a565b60006107368383610525565b61079b5760008381526001602081815260408084206001600160a01b0387168086529252808420805460ff19169093179092559051339286917f2f8788117e7eff1d82e926ec794901d17c78024a50270940304540a733656f0d9190a4506001610281565b506000610281565b60006107af8383610525565b1561079b5760008381526001602090815260408083206001600160a01b0386168085529252808320805460ff1916905551339286917ff6391f5c32d9c69d2a47ea670b442974b53935d1edc7fd64eb21e047a839171b9190a4506001610281565b610818610c97565b6000805460ff191690557f5db9ee0a495bf2e6ff9c91a7834c1ba4fdd244a5e8aa4e537bd38aeae4b073aa335b6040516001600160a01b03909116815260200160405180910390a1565b61086a610cbc565b6000805460ff191660011790557f62e78cea01bee320cd4e420270b5ea74000d11b0c9f74754ebdbfc544b05a2586108453390565b6108ac8260008084610ce0565b5050565b606060006108bf610100610d5e565b90506108f86040518060400160405280600c81526020016b31b7b232a637b1b0ba34b7b760a11b81525082610d7f90919063ffffffff16565b825161091690600281111561090f5761090f61151b565b8290610d98565b6040805180820190915260088152676c616e677561676560c01b6020820152610940908290610d7f565b604083015161095790801561090f5761090f61151b565b604080518082019091526006815265736f7572636560d01b602082015261097f908290610d7f565b606083015161098f908290610d7f565b60a08301515115610a23576040805180820190915260048152636172677360e01b60208201526109c0908290610d7f565b6109c981610dd1565b60005b8360a0015151811015610a1957610a098460a0015182815181106109f2576109f2611452565b602002602001015183610d7f90919063ffffffff16565b610a1281611531565b90506109cc565b50610a2381610df5565b60808301515115610ae757600083602001516002811115610a4657610a4661151b565b03610a645760405163a80d31f760e01b815260040160405180910390fd5b60408051808201909152600f81526e39b2b1b932ba39a637b1b0ba34b7b760891b6020820152610a95908290610d7f565b610aae8360200151600281111561090f5761090f61151b565b6040805180820190915260078152667365637265747360c81b6020820152610ad7908290610d7f565b6080830151610ae7908290610e13565b60c08301515115610b805760408051808201909152600981526862797465734172677360b81b6020820152610b1d908290610d7f565b610b2681610dd1565b60005b8360c0015151811015610b7657610b668460c001518281518110610b4f57610b4f611452565b602002602001015183610e1390919063ffffffff16565b610b6f81611531565b9050610b29565b50610b8081610df5565b515192915050565b6000807f00000000000000000000000000000000000000000000000000000000000000006001600160a01b031663461d27628688600188886040518663ffffffff1660e01b8152600401610be095949392919061154a565b6020604051808303816000875af1158015610bff573d6000803e3d6000fd5b505050506040513d601f19601f82011682018060405250810190610c2391906115cc565b60405190915081907f1131472297a800fee664d1d89cfa8f7676ff07189ecc53f80bbb5f4969099db890600090a295945050505050565b610c648282610525565b6108ac5760405163e2517d3f60e01b81526001600160a01b03821660048201526024810183905260440160405180910390fd5b60005460ff16610cba57604051638dfc202b60e01b815260040160405180910390fd5b565b60005460ff1615610cba5760405163d93c066560e01b815260040160405180910390fd5b8051600003610d02576040516322ce3edd60e01b815260040160405180910390fd5b83836002811115610d1557610d1561151b565b90816002811115610d2857610d2861151b565b90525060408401828015610d3e57610d3e61151b565b90818015610d4e57610d4e61151b565b9052506060909301929092525050565b610d666111cd565b8051610d729083610e20565b5060006020820152919050565b610d8c8260038351610e97565b815161036a9082610fb8565b8151610da59060c2610fe0565b506108ac8282604051602001610dbd91815260200190565b604051602081830303815290604052610e13565b610ddc816004611049565b600181602001818151610def91906114c7565b90525050565b610e00816007611049565b600181602001818151610def91906115e5565b610d8c8260028351610e97565b604080518082019091526060815260006020820152610e406020836115f8565b15610e6857610e506020836115f8565b610e5b9060206115e5565b610e6590836114c7565b91505b602080840183905260405180855260008152908184010181811015610e8c57600080fd5b604052509192915050565b60178167ffffffffffffffff1611610ebe5782516103319060e0600585901b168317610fe0565b60ff8167ffffffffffffffff1611610f00578251610ee7906018611fe0600586901b1617610fe0565b5082516103319067ffffffffffffffff83166001611060565b61ffff8167ffffffffffffffff1611610f43578251610f2a906019611fe0600586901b1617610fe0565b5082516103319067ffffffffffffffff83166002611060565b63ffffffff8167ffffffffffffffff1611610f88578251610f6f90601a611fe0600586901b1617610fe0565b5082516103319067ffffffffffffffff83166004611060565b8251610f9f90601b611fe0600586901b1617610fe0565b5082516103319067ffffffffffffffff83166008611060565b604080518082019091526060815260006020820152610fd9838384516110e5565b9392505050565b60408051808201909152606081526000602082015282515160006110058260016114c7565b90508460200151821061102657611026856110218360026114da565b6111b6565b845160208382010185815350805182111561103f578181525b5093949350505050565b815161036a90601f611fe0600585901b1617610fe0565b604080518082019091526060815260006020820152835151600061108482856114c7565b905085602001518111156110a1576110a1866110218360026114da565b600060016110b1866101006116f0565b6110bb91906115e5565b905086518281018783198251161781525080518311156110d9578281525b50959695505050505050565b604080518082019091526060815260006020820152825182111561110857600080fd5b835151600061111784836114c7565b9050856020015181111561113457611134866110218360026114da565b85518051838201602001916000918085111561114e578482525b505050602086015b6020861061118e578051825261116d6020836114c7565b915061117a6020826114c7565b90506111876020876115e5565b9550611156565b51815160001960208890036101000a0190811690199190911617905250849150509392505050565b81516111c28383610e20565b506103318382610fb8565b60405180604001604052806111f5604051806040016040528060608152602001600081525090565b8152602001600081525090565b60006020828403121561121457600080fd5b81356001600160e01b031981168114610fd957600080fd5b634e487b7160e01b600052604160045260246000fd5b600082601f83011261125357600080fd5b813567ffffffffffffffff8082111561126e5761126e61122c565b604051601f8301601f19908116603f011681019082821181831017156112965761129661122c565b816040528381528660208588010111156112af57600080fd5b836020870160208301376000602085830101528094505050505092915050565b6000806000606084860312156112e457600080fd5b83359250602084013567ffffffffffffffff8082111561130357600080fd5b61130f87838801611242565b9350604086013591508082111561132557600080fd5b5061133286828701611242565b9150509250925092565b60006020828403121561134e57600080fd5b5035919050565b6001600160a01b03811681146103a157600080fd5b6000806040838503121561137d57600080fd5b82359150602083013561138f81611355565b809150509250929050565b60008060008060008060c087890312156113b357600080fd5b86356113be81611355565b955060208701359450604087013567ffffffffffffffff80821682146113e357600080fd5b90945060608801359063ffffffff821682146113fe57600080fd5b9093506080880135925060a0880135908082111561141b57600080fd5b5061142889828a01611242565b9150509295509295509295565b60006020828403121561144757600080fd5b8135610fd981611355565b634e487b7160e01b600052603260045260246000fd5b600080600080600060a0868803121561148057600080fd5b855161148b81611355565b602087015160408801516060890151608090990151929a91995097965090945092505050565b634e487b7160e01b600052601160045260246000fd5b80820180821115610281576102816114b1565b8082028115828204841417610281576102816114b1565b634e487b7160e01b600052601260045260246000fd5b600082611516576115166114f1565b500490565b634e487b7160e01b600052602160045260246000fd5b600060018201611543576115436114b1565b5060010190565b67ffffffffffffffff861681526000602060a08184015286518060a085015260005b818110156115885788810183015185820160c00152820161156c565b50600060c0828601015260c0601f19601f830116850101925050506115b3604083018661ffff169052565b63ffffffff939093166060820152608001529392505050565b6000602082840312156115de57600080fd5b5051919050565b81810381811115610281576102816114b1565b600082611607576116076114f1565b500690565b600181815b8085111561164757816000190482111561162d5761162d6114b1565b8085161561163a57918102915b93841c9390800290611611565b509250929050565b60008261165e57506001610281565b8161166b57506000610281565b8160018114611681576002811461168b576116a7565b6001915050610281565b60ff84111561169c5761169c6114b1565b50506001821b610281565b5060208310610133831016604e8410600b84101617156116ca575081810a610281565b6116d4838361160c565b80600019048211156116e8576116e86114b1565b029392505050565b6000610fd9838361164f56fea2646970667358221220420d6c0664838a9ca6ef7effed4c8be95c2674b26b2b1d4650ef5180cf0c3b6f64736f6c63430008140033",
  "devdoc": {
    "errors": {
      "AccessControlBadConfirmation()": [
        {
          "details": "The caller of a function is not the expected one. NOTE: Don't confuse with {AccessControlUnauthorizedAccount}."
        }
      ],
      "AccessControlUnauthorizedAccount(address,bytes32)": [
        {
          "details": "The `account` is missing a role."
        }
      ],
      "EnforcedPause()": [
        {
          "details": "The operation failed because the contract is paused."
        }
      ],
      "ExpectedPause()": [
        {
          "details": "The operation failed because the contract is not paused."
        }
      ]
    },
    "events": {
      "Paused(address)": {
        "details": "Emitted when the pause is triggered by `account`."
      },
      "RoleAdminChanged(bytes32,bytes32,bytes32)": {
        "details": "Emitted when `newAdminRole` is set as ``role``'s admin role, replacing `previousAdminRole` `DEFAULT_ADMIN_ROLE` is the starting admin for all roles, despite {RoleAdminChanged} not being emitted signaling this."
      },
      "RoleGranted(bytes32,address,address)": {
        "details": "Emitted when `account` is granted `role`. `sender` is the account that originated the contract call, an admin role bearer except when using {AccessControl-_setupRole}."
      },
      "RoleRevoked(bytes32,address,address)": {
        "details": "Emitted when `account` is revoked `role`. `sender` is the account that originated the contract call:   - if using `revokeRole`, it is the admin role bearer   - if using `renounceRole`, it is the role bearer (i.e. `account`)"
      },
      "Unpaused(address)": {
        "details": "Emitted when the pause is lifted by `account`."
      }
    },
    "kind": "dev",
    "methods": {
      "getRoleAdmin(bytes32)": {
        "details": "Returns the admin role that controls `role`. See {grantRole} and {revokeRole}. To change a role's admin, use {_setRoleAdmin}."
      },
      "grantRole(bytes32,address)": {
        "details": "Grants `role` to `account`. If `account` had not been already granted `role`, emits a {RoleGranted} event. Requirements: - the caller must have ``role``'s admin role. May emit a {RoleGranted} event."
      },
      "handleOracleFulfillment(bytes32,bytes,bytes)": {
        "details": "Either response or error parameter will be set, but never both.",
        "params": {
          "err": "Aggregated error either from the request's source code or from the execution pipeline.",
          "requestId": "The requestId returned by FunctionsClient.sendRequest().",
          "response": "Aggregated response from the request's source code."
        }
      },
      "hasRole(bytes32,address)": {
        "details": "Returns `true` if `account` has been granted `role`."
      },
      "paused()": {
        "details": "Returns true if the contract is paused, and false otherwise."
      },
      "renounceRole(bytes32,address)": {
        "details": "Revokes `role` from the calling account. Roles are often managed via {grantRole} and {revokeRole}: this function's purpose is to provide a mechanism for accounts to lose their privileges if they are compromised (such as when a trusted device is misplaced). If the calling account had been revoked `role`, emits a {RoleRevoked} event. Requirements: - the caller must be `callerConfirmation`. May emit a {RoleRevoked} event."
      },
      "revokeRole(bytes32,address)": {
        "details": "Revokes `role` from `account`. If `account` had been granted `role`, emits a {RoleRevoked} event. Requirements: - the caller must have ``role``'s admin role. May emit a {RoleRevoked} event."
      },
      "supportsInterface(bytes4)": {
        "details": "See {IERC165-supportsInterface}."
      }
    },
    "version": 1
  },
  "userdoc": {
    "kind": "user",
    "methods": {
      "handleOracleFulfillment(bytes32,bytes,bytes)": {
        "notice": "Chainlink Functions response handler called by the Functions Router during fullilment from the designated transmitter node in an OCR round."
      }
    },
    "version": 1
  },
  "storageLayout": {
    "storage": [
      {
        "astId": 5652,
        "contract": "contracts/AssetValueUpdater.sol:AssetValueUpdater",
        "label": "_paused",
        "offset": 0,
        "slot": "0",
        "type": "t_bool"
      },
      {
        "astId": 2757,
        "contract": "contracts/AssetValueUpdater.sol:AssetValueUpdater",
        "label": "_roles",
        "offset": 0,
        "slot": "1",
        "type": "t_mapping(t_bytes32,t_struct(RoleData)2752_storage)"
      },
      {
        "astId": 7053,
        "contract": "contracts/AssetValueUpdater.sol:AssetValueUpdater",
        "label": "realEstateTokenRegistry",
        "offset": 0,
        "slot": "2",
        "type": "t_contract(RealEstateTokenRegistry)8789"
      },
      {
        "astId": 7055,
        "contract": "contracts/AssetValueUpdater.sol:AssetValueUpdater",
        "label": "s_automationForwarderAddress",
        "offset": 0,
        "slot": "3",
        "type": "t_address"
      },
      {
        "astId": 7072,
        "contract": "contracts/AssetValueUpdater.sol:AssetValueUpdater",
        "label": "s_priceDetails",
        "offset": 0,
        "slot": "4",
        "type": "t_mapping(t_uint256,t_struct(PriceDetails)7067_storage)"
      }
    ],
    "types": {
      "t_address": {
        "encoding": "inplace",
        "label": "address",
        "numberOfBytes": "20"
      },
      "t_bool": {
        "encoding": "inplace",
        "label": "bool",
        "numberOfBytes": "1"
      },
      "t_bytes32": {
        "encoding": "inplace",
        "label": "bytes32",
        "numberOfBytes": "32"
      },
      "t_contract(RealEstateTokenRegistry)8789": {
        "encoding": "inplace",
        "label": "contract RealEstateTokenRegistry",
        "numberOfBytes": "20"
      },
      "t_mapping(t_address,t_bool)": {
        "encoding": "mapping",
        "key": "t_address",
        "label": "mapping(address => bool)",
        "numberOfBytes": "32",
        "value": "t_bool"
      },
      "t_mapping(t_bytes32,t_struct(RoleData)2752_storage)": {
        "encoding": "mapping",
        "key": "t_bytes32",
        "label": "mapping(bytes32 => struct AccessControl.RoleData)",
        "numberOfBytes": "32",
        "value": "t_struct(RoleData)2752_storage"
      },
      "t_mapping(t_uint256,t_struct(PriceDetails)7067_storage)": {
        "encoding": "mapping",
        "key": "t_uint256",
        "label": "mapping(uint256 => struct AssetValueUpdater.PriceDetails)",
        "numberOfBytes": "32",
        "value": "t_struct(PriceDetails)7067_storage"
      },
      "t_struct(PriceDetails)7067_storage": {
        "encoding": "inplace",
        "label": "struct AssetValueUpdater.PriceDetails",
        "members": [
          {
            "astId": 7062,
            "contract": "contracts/AssetValueUpdater.sol:AssetValueUpdater",
            "label": "listPrice",
            "offset": 0,
            "slot": "0",
            "type": "t_uint80"
          },
          {
            "astId": 7064,
            "contract": "contracts/AssetValueUpdater.sol:AssetValueUpdater",
            "label": "originalListPrice",
            "offset": 10,
            "slot": "0",
            "type": "t_uint80"
          },
          {
            "astId": 7066,
            "contract": "contracts/AssetValueUpdater.sol:AssetValueUpdater",
            "label": "taxAssessedValue",
            "offset": 20,
            "slot": "0",
            "type": "t_uint80"
          }
        ],
        "numberOfBytes": "32"
      },
      "t_struct(RoleData)2752_storage": {
        "encoding": "inplace",
        "label": "struct AccessControl.RoleData",
        "members": [
          {
            "astId": 2749,
            "contract": "contracts/AssetValueUpdater.sol:AssetValueUpdater",
            "label": "hasRole",
            "offset": 0,
            "slot": "0",
            "type": "t_mapping(t_address,t_bool)"
          },
          {
            "astId": 2751,
            "contract": "contracts/AssetValueUpdater.sol:AssetValueUpdater",
            "label": "adminRole",
            "offset": 0,
            "slot": "1",
            "type": "t_bytes32"
          }
        ],
        "numberOfBytes": "64"
      },
      "t_uint256": {
        "encoding": "inplace",
        "label": "uint256",
        "numberOfBytes": "32"
      },
      "t_uint80": {
        "encoding": "inplace",
        "label": "uint80",
        "numberOfBytes": "10"
      }
    }
  }
}