{
  "address": "0x2634Ae0c59F5b3D048632F6115AdceA90C471540",
  "abi": [
    {
      "inputs": [
        {
          "internalType": "contract ISchemaRegistry",
          "name": "registry",
          "type": "address"
        }
      ],
      "stateMutability": "nonpayable",
      "type": "constructor"
    },
    {
      "inputs": [],
      "name": "AccessDenied",
      "type": "error"
    },
    {
      "inputs": [
        {
          "internalType": "address",
          "name": "account",
          "type": "address"
        }
      ],
      "name": "AddressInsufficientBalance",
      "type": "error"
    },
    {
      "inputs": [],
      "name": "AlreadyRevoked",
      "type": "error"
    },
    {
      "inputs": [],
      "name": "AlreadyRevokedOffchain",
      "type": "error"
    },
    {
      "inputs": [],
      "name": "AlreadyTimestamped",
      "type": "error"
    },
    {
      "inputs": [],
      "name": "DeadlineExpired",
      "type": "error"
    },
    {
      "inputs": [],
      "name": "FailedInnerCall",
      "type": "error"
    },
    {
      "inputs": [],
      "name": "InsufficientValue",
      "type": "error"
    },
    {
      "inputs": [],
      "name": "InvalidAttestation",
      "type": "error"
    },
    {
      "inputs": [],
      "name": "InvalidAttestations",
      "type": "error"
    },
    {
      "inputs": [],
      "name": "InvalidExpirationTime",
      "type": "error"
    },
    {
      "inputs": [],
      "name": "InvalidLength",
      "type": "error"
    },
    {
      "inputs": [],
      "name": "InvalidNonce",
      "type": "error"
    },
    {
      "inputs": [],
      "name": "InvalidOffset",
      "type": "error"
    },
    {
      "inputs": [],
      "name": "InvalidRegistry",
      "type": "error"
    },
    {
      "inputs": [],
      "name": "InvalidRevocation",
      "type": "error"
    },
    {
      "inputs": [],
      "name": "InvalidRevocations",
      "type": "error"
    },
    {
      "inputs": [],
      "name": "InvalidSchema",
      "type": "error"
    },
    {
      "inputs": [],
      "name": "InvalidShortString",
      "type": "error"
    },
    {
      "inputs": [],
      "name": "InvalidSignature",
      "type": "error"
    },
    {
      "inputs": [],
      "name": "InvalidVerifier",
      "type": "error"
    },
    {
      "inputs": [],
      "name": "Irrevocable",
      "type": "error"
    },
    {
      "inputs": [],
      "name": "NotFound",
      "type": "error"
    },
    {
      "inputs": [],
      "name": "NotPayable",
      "type": "error"
    },
    {
      "inputs": [
        {
          "internalType": "string",
          "name": "str",
          "type": "string"
        }
      ],
      "name": "StringTooLong",
      "type": "error"
    },
    {
      "inputs": [],
      "name": "WrongSchema",
      "type": "error"
    },
    {
      "anonymous": false,
      "inputs": [
        {
          "indexed": true,
          "internalType": "address",
          "name": "recipient",
          "type": "address"
        },
        {
          "indexed": true,
          "internalType": "address",
          "name": "attester",
          "type": "address"
        },
        {
          "indexed": false,
          "internalType": "bytes32",
          "name": "uid",
          "type": "bytes32"
        },
        {
          "indexed": true,
          "internalType": "bytes32",
          "name": "schemaUID",
          "type": "bytes32"
        }
      ],
      "name": "Attested",
      "type": "event"
    },
    {
      "anonymous": false,
      "inputs": [],
      "name": "EIP712DomainChanged",
      "type": "event"
    },
    {
      "anonymous": false,
      "inputs": [
        {
          "indexed": false,
          "internalType": "uint256",
          "name": "oldNonce",
          "type": "uint256"
        },
        {
          "indexed": false,
          "internalType": "uint256",
          "name": "newNonce",
          "type": "uint256"
        }
      ],
      "name": "NonceIncreased",
      "type": "event"
    },
    {
      "anonymous": false,
      "inputs": [
        {
          "indexed": true,
          "internalType": "address",
          "name": "recipient",
          "type": "address"
        },
        {
          "indexed": true,
          "internalType": "address",
          "name": "attester",
          "type": "address"
        },
        {
          "indexed": false,
          "internalType": "bytes32",
          "name": "uid",
          "type": "bytes32"
        },
        {
          "indexed": true,
          "internalType": "bytes32",
          "name": "schemaUID",
          "type": "bytes32"
        }
      ],
      "name": "Revoked",
      "type": "event"
    },
    {
      "anonymous": false,
      "inputs": [
        {
          "indexed": true,
          "internalType": "address",
          "name": "revoker",
          "type": "address"
        },
        {
          "indexed": true,
          "internalType": "bytes32",
          "name": "data",
          "type": "bytes32"
        },
        {
          "indexed": true,
          "internalType": "uint64",
          "name": "timestamp",
          "type": "uint64"
        }
      ],
      "name": "RevokedOffchain",
      "type": "event"
    },
    {
      "anonymous": false,
      "inputs": [
        {
          "indexed": true,
          "internalType": "bytes32",
          "name": "data",
          "type": "bytes32"
        },
        {
          "indexed": true,
          "internalType": "uint64",
          "name": "timestamp",
          "type": "uint64"
        }
      ],
      "name": "Timestamped",
      "type": "event"
    },
    {
      "inputs": [
        {
          "components": [
            {
              "internalType": "bytes32",
              "name": "schema",
              "type": "bytes32"
            },
            {
              "components": [
                {
                  "internalType": "address",
                  "name": "recipient",
                  "type": "address"
                },
                {
                  "internalType": "uint64",
                  "name": "expirationTime",
                  "type": "uint64"
                },
                {
                  "internalType": "bool",
                  "name": "revocable",
                  "type": "bool"
                },
                {
                  "internalType": "bytes32",
                  "name": "refUID",
                  "type": "bytes32"
                },
                {
                  "internalType": "bytes",
                  "name": "data",
                  "type": "bytes"
                },
                {
                  "internalType": "uint256",
                  "name": "value",
                  "type": "uint256"
                }
              ],
              "internalType": "struct AttestationRequestData",
              "name": "data",
              "type": "tuple"
            }
          ],
          "internalType": "struct AttestationRequest",
          "name": "request",
          "type": "tuple"
        }
      ],
      "name": "attest",
      "outputs": [
        {
          "internalType": "bytes32",
          "name": "",
          "type": "bytes32"
        }
      ],
      "stateMutability": "payable",
      "type": "function"
    },
    {
      "inputs": [
        {
          "components": [
            {
              "internalType": "bytes32",
              "name": "schema",
              "type": "bytes32"
            },
            {
              "components": [
                {
                  "internalType": "address",
                  "name": "recipient",
                  "type": "address"
                },
                {
                  "internalType": "uint64",
                  "name": "expirationTime",
                  "type": "uint64"
                },
                {
                  "internalType": "bool",
                  "name": "revocable",
                  "type": "bool"
                },
                {
                  "internalType": "bytes32",
                  "name": "refUID",
                  "type": "bytes32"
                },
                {
                  "internalType": "bytes",
                  "name": "data",
                  "type": "bytes"
                },
                {
                  "internalType": "uint256",
                  "name": "value",
                  "type": "uint256"
                }
              ],
              "internalType": "struct AttestationRequestData",
              "name": "data",
              "type": "tuple"
            },
            {
              "components": [
                {
                  "internalType": "uint8",
                  "name": "v",
                  "type": "uint8"
                },
                {
                  "internalType": "bytes32",
                  "name": "r",
                  "type": "bytes32"
                },
                {
                  "internalType": "bytes32",
                  "name": "s",
                  "type": "bytes32"
                }
              ],
              "internalType": "struct Signature",
              "name": "signature",
              "type": "tuple"
            },
            {
              "internalType": "address",
              "name": "attester",
              "type": "address"
            },
            {
              "internalType": "uint64",
              "name": "deadline",
              "type": "uint64"
            }
          ],
          "internalType": "struct DelegatedAttestationRequest",
          "name": "delegatedRequest",
          "type": "tuple"
        }
      ],
      "name": "attestByDelegation",
      "outputs": [
        {
          "internalType": "bytes32",
          "name": "",
          "type": "bytes32"
        }
      ],
      "stateMutability": "payable",
      "type": "function"
    },
    {
      "inputs": [],
      "name": "eip712Domain",
      "outputs": [
        {
          "internalType": "bytes1",
          "name": "fields",
          "type": "bytes1"
        },
        {
          "internalType": "string",
          "name": "name",
          "type": "string"
        },
        {
          "internalType": "string",
          "name": "version",
          "type": "string"
        },
        {
          "internalType": "uint256",
          "name": "chainId",
          "type": "uint256"
        },
        {
          "internalType": "address",
          "name": "verifyingContract",
          "type": "address"
        },
        {
          "internalType": "bytes32",
          "name": "salt",
          "type": "bytes32"
        },
        {
          "internalType": "uint256[]",
          "name": "extensions",
          "type": "uint256[]"
        }
      ],
      "stateMutability": "view",
      "type": "function"
    },
    {
      "inputs": [],
      "name": "getAttestTypeHash",
      "outputs": [
        {
          "internalType": "bytes32",
          "name": "",
          "type": "bytes32"
        }
      ],
      "stateMutability": "pure",
      "type": "function"
    },
    {
      "inputs": [
        {
          "internalType": "bytes32",
          "name": "uid",
          "type": "bytes32"
        }
      ],
      "name": "getAttestation",
      "outputs": [
        {
          "components": [
            {
              "internalType": "bytes32",
              "name": "uid",
              "type": "bytes32"
            },
            {
              "internalType": "bytes32",
              "name": "schema",
              "type": "bytes32"
            },
            {
              "internalType": "uint64",
              "name": "time",
              "type": "uint64"
            },
            {
              "internalType": "uint64",
              "name": "expirationTime",
              "type": "uint64"
            },
            {
              "internalType": "uint64",
              "name": "revocationTime",
              "type": "uint64"
            },
            {
              "internalType": "bytes32",
              "name": "refUID",
              "type": "bytes32"
            },
            {
              "internalType": "address",
              "name": "recipient",
              "type": "address"
            },
            {
              "internalType": "address",
              "name": "attester",
              "type": "address"
            },
            {
              "internalType": "bool",
              "name": "revocable",
              "type": "bool"
            },
            {
              "internalType": "bytes",
              "name": "data",
              "type": "bytes"
            }
          ],
          "internalType": "struct Attestation",
          "name": "",
          "type": "tuple"
        }
      ],
      "stateMutability": "view",
      "type": "function"
    },
    {
      "inputs": [],
      "name": "getDomainSeparator",
      "outputs": [
        {
          "internalType": "bytes32",
          "name": "",
          "type": "bytes32"
        }
      ],
      "stateMutability": "view",
      "type": "function"
    },
    {
      "inputs": [],
      "name": "getName",
      "outputs": [
        {
          "internalType": "string",
          "name": "",
          "type": "string"
        }
      ],
      "stateMutability": "view",
      "type": "function"
    },
    {
      "inputs": [
        {
          "internalType": "address",
          "name": "account",
          "type": "address"
        }
      ],
      "name": "getNonce",
      "outputs": [
        {
          "internalType": "uint256",
          "name": "",
          "type": "uint256"
        }
      ],
      "stateMutability": "view",
      "type": "function"
    },
    {
      "inputs": [
        {
          "internalType": "address",
          "name": "revoker",
          "type": "address"
        },
        {
          "internalType": "bytes32",
          "name": "data",
          "type": "bytes32"
        }
      ],
      "name": "getRevokeOffchain",
      "outputs": [
        {
          "internalType": "uint64",
          "name": "",
          "type": "uint64"
        }
      ],
      "stateMutability": "view",
      "type": "function"
    },
    {
      "inputs": [],
      "name": "getRevokeTypeHash",
      "outputs": [
        {
          "internalType": "bytes32",
          "name": "",
          "type": "bytes32"
        }
      ],
      "stateMutability": "pure",
      "type": "function"
    },
    {
      "inputs": [],
      "name": "getSchemaRegistry",
      "outputs": [
        {
          "internalType": "contract ISchemaRegistry",
          "name": "",
          "type": "address"
        }
      ],
      "stateMutability": "view",
      "type": "function"
    },
    {
      "inputs": [
        {
          "internalType": "bytes32",
          "name": "data",
          "type": "bytes32"
        }
      ],
      "name": "getTimestamp",
      "outputs": [
        {
          "internalType": "uint64",
          "name": "",
          "type": "uint64"
        }
      ],
      "stateMutability": "view",
      "type": "function"
    },
    {
      "inputs": [
        {
          "internalType": "uint256",
          "name": "newNonce",
          "type": "uint256"
        }
      ],
      "name": "increaseNonce",
      "outputs": [],
      "stateMutability": "nonpayable",
      "type": "function"
    },
    {
      "inputs": [
        {
          "internalType": "bytes32",
          "name": "uid",
          "type": "bytes32"
        }
      ],
      "name": "isAttestationValid",
      "outputs": [
        {
          "internalType": "bool",
          "name": "",
          "type": "bool"
        }
      ],
      "stateMutability": "view",
      "type": "function"
    },
    {
      "inputs": [
        {
          "components": [
            {
              "internalType": "bytes32",
              "name": "schema",
              "type": "bytes32"
            },
            {
              "components": [
                {
                  "internalType": "address",
                  "name": "recipient",
                  "type": "address"
                },
                {
                  "internalType": "uint64",
                  "name": "expirationTime",
                  "type": "uint64"
                },
                {
                  "internalType": "bool",
                  "name": "revocable",
                  "type": "bool"
                },
                {
                  "internalType": "bytes32",
                  "name": "refUID",
                  "type": "bytes32"
                },
                {
                  "internalType": "bytes",
                  "name": "data",
                  "type": "bytes"
                },
                {
                  "internalType": "uint256",
                  "name": "value",
                  "type": "uint256"
                }
              ],
              "internalType": "struct AttestationRequestData[]",
              "name": "data",
              "type": "tuple[]"
            }
          ],
          "internalType": "struct MultiAttestationRequest[]",
          "name": "multiRequests",
          "type": "tuple[]"
        }
      ],
      "name": "multiAttest",
      "outputs": [
        {
          "internalType": "bytes32[]",
          "name": "",
          "type": "bytes32[]"
        }
      ],
      "stateMutability": "payable",
      "type": "function"
    },
    {
      "inputs": [
        {
          "components": [
            {
              "internalType": "bytes32",
              "name": "schema",
              "type": "bytes32"
            },
            {
              "components": [
                {
                  "internalType": "address",
                  "name": "recipient",
                  "type": "address"
                },
                {
                  "internalType": "uint64",
                  "name": "expirationTime",
                  "type": "uint64"
                },
                {
                  "internalType": "bool",
                  "name": "revocable",
                  "type": "bool"
                },
                {
                  "internalType": "bytes32",
                  "name": "refUID",
                  "type": "bytes32"
                },
                {
                  "internalType": "bytes",
                  "name": "data",
                  "type": "bytes"
                },
                {
                  "internalType": "uint256",
                  "name": "value",
                  "type": "uint256"
                }
              ],
              "internalType": "struct AttestationRequestData[]",
              "name": "data",
              "type": "tuple[]"
            },
            {
              "components": [
                {
                  "internalType": "uint8",
                  "name": "v",
                  "type": "uint8"
                },
                {
                  "internalType": "bytes32",
                  "name": "r",
                  "type": "bytes32"
                },
                {
                  "internalType": "bytes32",
                  "name": "s",
                  "type": "bytes32"
                }
              ],
              "internalType": "struct Signature[]",
              "name": "signatures",
              "type": "tuple[]"
            },
            {
              "internalType": "address",
              "name": "attester",
              "type": "address"
            },
            {
              "internalType": "uint64",
              "name": "deadline",
              "type": "uint64"
            }
          ],
          "internalType": "struct MultiDelegatedAttestationRequest[]",
          "name": "multiDelegatedRequests",
          "type": "tuple[]"
        }
      ],
      "name": "multiAttestByDelegation",
      "outputs": [
        {
          "internalType": "bytes32[]",
          "name": "",
          "type": "bytes32[]"
        }
      ],
      "stateMutability": "payable",
      "type": "function"
    },
    {
      "inputs": [
        {
          "components": [
            {
              "internalType": "bytes32",
              "name": "schema",
              "type": "bytes32"
            },
            {
              "components": [
                {
                  "internalType": "bytes32",
                  "name": "uid",
                  "type": "bytes32"
                },
                {
                  "internalType": "uint256",
                  "name": "value",
                  "type": "uint256"
                }
              ],
              "internalType": "struct RevocationRequestData[]",
              "name": "data",
              "type": "tuple[]"
            }
          ],
          "internalType": "struct MultiRevocationRequest[]",
          "name": "multiRequests",
          "type": "tuple[]"
        }
      ],
      "name": "multiRevoke",
      "outputs": [],
      "stateMutability": "payable",
      "type": "function"
    },
    {
      "inputs": [
        {
          "components": [
            {
              "internalType": "bytes32",
              "name": "schema",
              "type": "bytes32"
            },
            {
              "components": [
                {
                  "internalType": "bytes32",
                  "name": "uid",
                  "type": "bytes32"
                },
                {
                  "internalType": "uint256",
                  "name": "value",
                  "type": "uint256"
                }
              ],
              "internalType": "struct RevocationRequestData[]",
              "name": "data",
              "type": "tuple[]"
            },
            {
              "components": [
                {
                  "internalType": "uint8",
                  "name": "v",
                  "type": "uint8"
                },
                {
                  "internalType": "bytes32",
                  "name": "r",
                  "type": "bytes32"
                },
                {
                  "internalType": "bytes32",
                  "name": "s",
                  "type": "bytes32"
                }
              ],
              "internalType": "struct Signature[]",
              "name": "signatures",
              "type": "tuple[]"
            },
            {
              "internalType": "address",
              "name": "revoker",
              "type": "address"
            },
            {
              "internalType": "uint64",
              "name": "deadline",
              "type": "uint64"
            }
          ],
          "internalType": "struct MultiDelegatedRevocationRequest[]",
          "name": "multiDelegatedRequests",
          "type": "tuple[]"
        }
      ],
      "name": "multiRevokeByDelegation",
      "outputs": [],
      "stateMutability": "payable",
      "type": "function"
    },
    {
      "inputs": [
        {
          "internalType": "bytes32[]",
          "name": "data",
          "type": "bytes32[]"
        }
      ],
      "name": "multiRevokeOffchain",
      "outputs": [
        {
          "internalType": "uint64",
          "name": "",
          "type": "uint64"
        }
      ],
      "stateMutability": "nonpayable",
      "type": "function"
    },
    {
      "inputs": [
        {
          "internalType": "bytes32[]",
          "name": "data",
          "type": "bytes32[]"
        }
      ],
      "name": "multiTimestamp",
      "outputs": [
        {
          "internalType": "uint64",
          "name": "",
          "type": "uint64"
        }
      ],
      "stateMutability": "nonpayable",
      "type": "function"
    },
    {
      "inputs": [
        {
          "components": [
            {
              "internalType": "bytes32",
              "name": "schema",
              "type": "bytes32"
            },
            {
              "components": [
                {
                  "internalType": "bytes32",
                  "name": "uid",
                  "type": "bytes32"
                },
                {
                  "internalType": "uint256",
                  "name": "value",
                  "type": "uint256"
                }
              ],
              "internalType": "struct RevocationRequestData",
              "name": "data",
              "type": "tuple"
            }
          ],
          "internalType": "struct RevocationRequest",
          "name": "request",
          "type": "tuple"
        }
      ],
      "name": "revoke",
      "outputs": [],
      "stateMutability": "payable",
      "type": "function"
    },
    {
      "inputs": [
        {
          "components": [
            {
              "internalType": "bytes32",
              "name": "schema",
              "type": "bytes32"
            },
            {
              "components": [
                {
                  "internalType": "bytes32",
                  "name": "uid",
                  "type": "bytes32"
                },
                {
                  "internalType": "uint256",
                  "name": "value",
                  "type": "uint256"
                }
              ],
              "internalType": "struct RevocationRequestData",
              "name": "data",
              "type": "tuple"
            },
            {
              "components": [
                {
                  "internalType": "uint8",
                  "name": "v",
                  "type": "uint8"
                },
                {
                  "internalType": "bytes32",
                  "name": "r",
                  "type": "bytes32"
                },
                {
                  "internalType": "bytes32",
                  "name": "s",
                  "type": "bytes32"
                }
              ],
              "internalType": "struct Signature",
              "name": "signature",
              "type": "tuple"
            },
            {
              "internalType": "address",
              "name": "revoker",
              "type": "address"
            },
            {
              "internalType": "uint64",
              "name": "deadline",
              "type": "uint64"
            }
          ],
          "internalType": "struct DelegatedRevocationRequest",
          "name": "delegatedRequest",
          "type": "tuple"
        }
      ],
      "name": "revokeByDelegation",
      "outputs": [],
      "stateMutability": "payable",
      "type": "function"
    },
    {
      "inputs": [
        {
          "internalType": "bytes32",
          "name": "data",
          "type": "bytes32"
        }
      ],
      "name": "revokeOffchain",
      "outputs": [
        {
          "internalType": "uint64",
          "name": "",
          "type": "uint64"
        }
      ],
      "stateMutability": "nonpayable",
      "type": "function"
    },
    {
      "inputs": [
        {
          "internalType": "bytes32",
          "name": "data",
          "type": "bytes32"
        }
      ],
      "name": "timestamp",
      "outputs": [
        {
          "internalType": "uint64",
          "name": "",
          "type": "uint64"
        }
      ],
      "stateMutability": "nonpayable",
      "type": "function"
    },
    {
      "inputs": [],
      "name": "version",
      "outputs": [
        {
          "internalType": "string",
          "name": "",
          "type": "string"
        }
      ],
      "stateMutability": "view",
      "type": "function"
    }
  ],
  "transactionHash": "0xcad80ea86c4967fea1f8949e95c05831f99603c49a7d66975d32c7c4661c05b2",
  "args": [
    "0x947c308D0E6bc08E360a962D17330dD60d80Ae0E"
  ],
  "numDeployments": 1,
  "solcInputHash": "655bd6b59516633c939b20eece87194b",
  "bytecode": "0x6101e060405234801561001157600080fd5b50604051614194380380614194833981016040819052610030916101f3565b60408051808201825260038082526245415360e81b602080840191909152835180850190945260058452640312e332e360dc1b90840152600160805260a052600060c081905290919082908290610088908390610179565b61018052610097816001610179565b6101a0528151602080840191909120610140528151908201206101605246610100526101276101405161016051604080517f8b73c3c69bb8fe3d512ecc4cf759cc79239f7b179b0ffacaa9a75d522b39400f60208201529081019290925260608201524660808201523060a082015260009060c00160405160208183030381529060405280519060200120905090565b60e05250503061012052600261013d83826102c2565b5050506001600160a01b038116610167576040516311a1e69760e01b815260040160405180910390fd5b6001600160a01b03166101c0526103f2565b60006020835110156101955761018e836101ac565b90506101a6565b816101a084826102c2565b5060ff90505b92915050565b600080829050601f815111156101e0578260405163305a27a960e01b81526004016101d79190610380565b60405180910390fd5b80516101eb826103ce565b179392505050565b60006020828403121561020557600080fd5b81516001600160a01b038116811461021c57600080fd5b9392505050565b634e487b7160e01b600052604160045260246000fd5b600181811c9082168061024d57607f821691505b60208210810361026d57634e487b7160e01b600052602260045260246000fd5b50919050565b601f8211156102bd57806000526020600020601f840160051c8101602085101561029a5750805b601f840160051c820191505b818110156102ba57600081556001016102a6565b50505b505050565b81516001600160401b038111156102db576102db610223565b6102ef816102e98454610239565b84610273565b6020601f821160018114610323576000831561030b5750848201515b600019600385901b1c1916600184901b1784556102ba565b600084815260208120601f198516915b828110156103535787850151825560209485019460019092019101610333565b50848210156103715786840151600019600387901b60f8161c191681555b50505050600190811b01905550565b602081526000825180602084015260005b818110156103ae5760208186018101516040868401015201610391565b506000604082850101526040601f19601f83011684010191505092915050565b8051602080830151919081101561026d5760001960209190910360031b1b16919050565b60805160a05160c05160e05161010051610120516101405161016051610180516101a0516101c051613d0e610486600039600081816104de0152818161130b01526119ff01526000612115015260006120e801526000612215015260006121ed01526000612148015260006121720152600061219c01526000610b2101526000610af801526000610acf0152613d0e6000f3fe6080604052600436106101665760003560e01c806384b0196e116100d1578063cf190f341161008a578063e71ff36511610064578063e71ff3651461048f578063ed24911d146104af578063f10b5cc8146104c4578063f17325e71461050857600080fd5b8063cf190f34146103fa578063d45c44351461041a578063e30bb5631461045057600080fd5b806384b0196e146103005780639541152514610328578063a3112a641461033b578063a6d4dbc714610368578063b469318d1461037b578063b83010d3146103c757600080fd5b806344adc90e1161012357806344adc90e1461026557806346926267146102855780634cb7e9e5146102985780634d003070146102ab57806354fd4d50146102cb57806379f7573a146102e057600080fd5b80630eabf6601461016b57806312b11a171461018057806313893f61146101c257806317d7de7c146101fa5780632d0335ab1461021c5780633c04271514610252575b600080fd5b61017e610179366004612dcc565b61051b565b005b34801561018c57600080fd5b507ffeb2925a02bae3dae48d424a0437a2b6ac939aa9230ddc55a1a76f065d9880765b6040519081526020015b60405180910390f35b3480156101ce57600080fd5b506101e26101dd366004612dcc565b61066d565b6040516001600160401b0390911681526020016101b9565b34801561020657600080fd5b5061020f6106b2565b6040516101b99190612e5d565b34801561022857600080fd5b506101af610237366004612e9c565b6001600160a01b031660009081526003602052604090205490565b6101af610260366004612eb9565b610744565b610278610273366004612dcc565b610829565b6040516101b99190612ef3565b61017e610293366004612f36565b610972565b61017e6102a6366004612dcc565b6109f6565b3480156102b757600080fd5b506101e26102c6366004612f51565b610abb565b3480156102d757600080fd5b5061020f610ac8565b3480156102ec57600080fd5b5061017e6102fb366004612f51565b610b6b565b34801561030c57600080fd5b50610315610beb565b6040516101b99796959493929190612fa6565b610278610336366004612dcc565b610c31565b34801561034757600080fd5b5061035b610356366004612f51565b610e5e565b6040516101b991906130e4565b61017e6103763660046130f7565b610fa4565b34801561038757600080fd5b506101e261039636600461310b565b6001600160a01b0391909116600090815260066020908152604080832093835292905220546001600160401b031690565b3480156103d357600080fd5b507fb5d556f07587ec0f08cf386545cc4362c702a001650c2058002615ee5c9d1e756101af565b34801561040657600080fd5b506101e2610415366004612f51565b611049565b34801561042657600080fd5b506101e2610435366004612f51565b6000908152600560205260409020546001600160401b031690565b34801561045c57600080fd5b5061047f61046b366004612f51565b600090815260046020526040902054151590565b60405190151581526020016101b9565b34801561049b57600080fd5b506101e26104aa366004612dcc565b611057565b3480156104bb57600080fd5b506101af61108f565b3480156104d057600080fd5b506040516001600160a01b037f00000000000000000000000000000000000000000000000000000000000000001681526020016101b9565b6101af610516366004613137565b61109e565b348160005b818110156106665760001982018114600086868481811061054357610543613171565b90506020028101906105559190613187565b61055e906133c0565b602081015180519192509080158061057b57508260400151518114155b156105995760405163251f56a160e21b815260040160405180910390fd5b60005b8181101561062f576106276040518060a00160405280866000015181526020018584815181106105ce576105ce613171565b60200260200101518152602001866040015184815181106105f1576105f1613171565b6020026020010151815260200186606001516001600160a01b0316815260200186608001516001600160401b031681525061113e565b60010161059c565b5061064583600001518385606001518a886112e8565b61064f90886134d5565b96505050505061065f8160010190565b9050610520565b5050505050565b60004282825b818110156106a65761069e3387878481811061069157610691613171565b905060200201358561176c565b600101610673565b50909150505b92915050565b6060600280546106c1906134e8565b80601f01602080910402602001604051908101604052809291908181526020018280546106ed906134e8565b801561073a5780601f1061070f5761010080835404028352916020019161073a565b820191906000526020600020905b81548152906001019060200180831161071d57829003601f168201915b5050505050905090565b600061075761075283613629565b61181f565b604080516001808252818301909252600091816020015b6040805160c081018252600080825260208083018290529282018190526060808301829052608083015260a0820152825260001990920191018161076e5790505090506107be60208401846136a3565b6107c7906136b9565b816000815181106107da576107da613171565b60209081029190910101526108038335826107fb60c0870160a08801612e9c565b346001611973565b6020015160008151811061081957610819613171565b6020026020010151915050919050565b6060816000816001600160401b03811115610846576108466131a7565b60405190808252806020026020018201604052801561087957816020015b60608152602001906001900390816108645790505b509050600034815b8481101561095c5760001985018114368989848181106108a3576108a3613171565b90506020028101906108b591906136c5565b90506108c460208201826136db565b90506000036108e65760405163251f56a160e21b815260040160405180910390fd5b600061090b82356108fa60208501856136db565b61090391613724565b338887611973565b805190915061091a90866134d5565b9450806020015187858151811061093357610933613171565b6020026020010181905250806020015151860195505050506109558160010190565b9050610881565b506109678383611ed6565b979650505050505050565b604080516001808252818301909252600091816020015b60408051808201909152600080825260208201528152602001906001900390816109895790505090506109c436839003830160208401613789565b816000815181106109d7576109d7613171565b60209081029190910101526109f1823582333460016112e8565b505050565b348160005b81811015610666576000198201811436868684818110610a1d57610a1d613171565b9050602002810190610a2f91906136c5565b9050610a9c8135610a4360208401846137a5565b808060200260200160405190810160405280939291908181526020016000905b82821015610a8f57610a8060408302860136819003810190613789565b81526020019060010190610a63565b50505050503388866112e8565b610aa690866134d5565b94505050610ab48160010190565b90506109fb565b6000426106ac8382611fbf565b6060610af37f000000000000000000000000000000000000000000000000000000000000000061204f565b610b1c7f000000000000000000000000000000000000000000000000000000000000000061204f565b610b457f000000000000000000000000000000000000000000000000000000000000000061204f565b604051602001610b57939291906137ee565b604051602081830303815290604052905090565b33600090815260036020526040902054808211610b9b57604051633ab3447f60e11b815260040160405180910390fd5b3360009081526003602090815260409182902084905581518381529081018490527f57b09af877df9068fd60a69d7b21f5576b8b38955812d6ae4ac52942f1e38fb7910160405180910390a15050565b600060608060008060006060610bff6120e1565b610c0761210e565b60408051600080825260208201909252600f60f81b9b939a50919850469750309650945092509050565b6060816000816001600160401b03811115610c4e57610c4e6131a7565b604051908082528060200260200182016040528015610c8157816020015b6060815260200190600190039081610c6c5790505b509050600034815b8481101561095c576000198501811436898984818110610cab57610cab613171565b9050602002810190610cbd9190613187565b9050366000610ccf60208401846136db565b909250905080801580610cf05750610cea604085018561384d565b90508114155b15610d0e5760405163251f56a160e21b815260040160405180910390fd5b60005b81811015610de157610dd96040518060a0016040528087600001358152602001868685818110610d4357610d43613171565b9050602002810190610d5591906136a3565b610d5e906136b9565b8152602001610d70604089018961384d565b85818110610d8057610d80613171565b905060600201803603810190610d969190613895565b8152602001610dab6080890160608a01612e9c565b6001600160a01b03168152602001610dc960a0890160808a016138b1565b6001600160401b0316905261181f565b600101610d11565b506000610e0a8535610df38587613724565b610e036080890160608a01612e9c565b8b8a611973565b8051909150610e1990896134d5565b975080602001518a8881518110610e3257610e32613171565b602002602001018190525080602001515189019850505050505050610e578160010190565b9050610c89565b610e66612d2b565b6000828152600460208181526040928390208351610140810185528154815260018201549281019290925260028101546001600160401b0380821695840195909552600160401b810485166060840152600160801b90049093166080820152600383015460a0820152908201546001600160a01b0390811660c0830152600583015490811660e0830152600160a01b900460ff16151561010082015260068201805491929161012084019190610f1b906134e8565b80601f0160208091040260200160405190810160405280929190818152602001828054610f47906134e8565b8015610f945780601f10610f6957610100808354040283529160200191610f94565b820191906000526020600020905b815481529060010190602001808311610f7757829003601f168201915b5050505050815250509050919050565b610fbb610fb6368390038301836138cc565b61113e565b604080516001808252818301909252600091816020015b6040805180820190915260008082526020820152815260200190600190039081610fd257905050905061100d36839003830160208401613789565b8160008151811061102057611020613171565b60209081029190910101526109f182358261104160e0860160c08701612e9c565b3460016112e8565b6000426106ac33848361176c565b60004282825b818110156106a65761108786868381811061107a5761107a613171565b9050602002013584611fbf565b60010161105d565b600061109961213b565b905090565b604080516001808252818301909252600091829190816020015b6040805160c081018252600080825260208083018290529282018190526060808301829052608083015260a082015282526000199092019101816110b857905050905061110860208401846136a3565b611111906136b9565b8160008151811061112457611124613171565b602090810291909101015261080383358233346001611973565b60808101516001600160401b03161580159061116f5750426001600160401b031681608001516001600160401b0316105b1561118d57604051631ab7da6b60e01b815260040160405180910390fd5b602080820151604080840151606085015185518451858701516001600160a01b038416600090815260039098529487208054969794969495611267957fb5d556f07587ec0f08cf386545cc4362c702a001650c2058002615ee5c9d1e7595949392886111f88361393c565b909155506080808c01516040805160208101999099526001600160a01b039097169688019690965260608701949094529285019190915260a084015260c08301526001600160401b031660e0820152610100015b60405160208183030381529060405280519060200120612266565b90506112c58460600151828460200151856040015186600001516040516020016112b193929190928352602083019190915260f81b6001600160f81b031916604082015260410190565b604051602081830303815290604052612293565b6112e257604051638baa579f60e01b815260040160405180910390fd5b50505050565b6040516351753e3760e11b81526004810186905260009081906001600160a01b037f0000000000000000000000000000000000000000000000000000000000000000169063a2ea7c6e90602401600060405180830381865afa158015611352573d6000803e3d6000fd5b505050506040513d6000823e601f3d908101601f1916820160405261137a9190810190613955565b805190915061139c57604051635f9bd90760e11b815260040160405180910390fd5b85516000816001600160401b038111156113b8576113b86131a7565b6040519080825280602002602001820160405280156113f157816020015b6113de612d2b565b8152602001906001900390816113d65790505b5090506000826001600160401b0381111561140e5761140e6131a7565b604051908082528060200260200182016040528015611437578160200160208202803683370190505b50905060005b8381101561174e5760008a828151811061145957611459613171565b60209081029190910181015180516000908152600490925260409091208054919250906114995760405163c5723b5160e01b815260040160405180910390fd5b8c8160010154146114bd57604051635f9bd90760e11b815260040160405180910390fd5b60058101546001600160a01b038c81169116146114ed57604051634ca8886760e01b815260040160405180910390fd5b6005810154600160a01b900460ff166115195760405163157bd4c360e01b815260040160405180910390fd5b6002810154600160801b90046001600160401b03161561154c5760405163905e710760e01b815260040160405180910390fd5b4260028201805467ffffffffffffffff60801b198116600160801b6001600160401b03948516810291821793849055604080516101408101825287548152600188015460208201529386169286169290921791830191909152600160401b8304841660608301529091049091166080820152600382015460a082015260048201546001600160a01b0390811660c0830152600583015490811660e0830152600160a01b900460ff1615156101008201526006820180548391610120840191611613906134e8565b80601f016020809104026020016040519081016040528092919081815260200182805461163f906134e8565b801561168c5780601f106116615761010080835404028352916020019161168c565b820191906000526020600020905b81548152906001019060200180831161166f57829003601f168201915b5050505050815250508584815181106116a7576116a7613171565b602002602001018190525081602001518484815181106116c9576116c9613171565b6020026020010181815250508c8b6001600160a01b03168685815181106116f2576116f2613171565b602002602001015160c001516001600160a01b03167ff930a6e2523c9cc298691873087a740550b8fc85a0680830414c148ed927f615856000015160405161173c91815260200190565b60405180910390a4505060010161143d565b5061175e84838360018b8b6122f5565b9a9950505050505050505050565b6001600160a01b038316600090815260066020908152604080832085845291829052909120546001600160401b0316156117b95760405163ec9d6eeb60e01b815260040160405180910390fd5b600083815260208290526040808220805467ffffffffffffffff19166001600160401b0386169081179091559051909185916001600160a01b038816917f92a1f7a41a7c585a8b09e25b195e225b1d43248daca46b0faf9e0792777a222991a450505050565b60808101516001600160401b0316158015906118505750426001600160401b031681608001516001600160401b0316105b1561186e57604051631ab7da6b60e01b815260040160405180910390fd5b6020808201516040808401516060808601518651855186880151868801519488015160808901518051908b012060a08a01516001600160a01b03871660009081526003909c52988b2080549a9b989a9899611267997ffeb2925a02bae3dae48d424a0437a2b6ac939aa9230ddc55a1a76f065d988076999493928c6118f28361393c565b919050558e6080015160405160200161124c9b9a999897969594939291909a8b526001600160a01b03998a1660208c015260408b01989098529590971660608901526001600160401b03938416608089015291151560a088015260c087015260e0860152610100850193909352610120840152166101408201526101600190565b6040805180820190915260008152606060208201528451604080518082019091526000815260606020820152816001600160401b038111156119b7576119b76131a7565b6040519080825280602002602001820160405280156119e0578160200160208202803683370190505b5060208201526040516351753e3760e11b8152600481018990526000907f00000000000000000000000000000000000000000000000000000000000000006001600160a01b03169063a2ea7c6e90602401600060405180830381865afa158015611a4e573d6000803e3d6000fd5b505050506040513d6000823e601f3d908101601f19168201604052611a769190810190613955565b8051909150611a9857604051635f9bd90760e11b815260040160405180910390fd5b6000836001600160401b03811115611ab257611ab26131a7565b604051908082528060200260200182016040528015611aeb57816020015b611ad8612d2b565b815260200190600190039081611ad05790505b5090506000846001600160401b03811115611b0857611b086131a7565b604051908082528060200260200182016040528015611b31578160200160208202803683370190505b50905060005b85811015611eb55760008b8281518110611b5357611b53613171565b6020026020010151905060006001600160401b031681602001516001600160401b031614158015611b9a5750426001600160401b031681602001516001600160401b031611155b15611bb8576040516308e8b93760e01b815260040160405180910390fd5b8460400151158015611bcb575080604001515b15611be95760405163157bd4c360e01b815260040160405180910390fd5b60006040518061014001604052806000801b81526020018f8152602001611c0d4290565b6001600160401b0316815260200183602001516001600160401b0316815260200160006001600160401b031681526020018360600151815260200183600001516001600160a01b031681526020018d6001600160a01b0316815260200183604001511515815260200183608001518152509050600080600090505b611c928382612601565b60008181526004602052604090205490925015611cb157600101611c88565b8183526000828152600460208181526040928390208651815590860151600182015591850151600283018054606088015160808901516001600160401b03908116600160801b0267ffffffffffffffff60801b19928216600160401b026fffffffffffffffffffffffffffffffff199094169190951617919091171691909117905560a0850151600383015560c085015190820180546001600160a01b039283166001600160a01b031990911617905560e08501516005830180546101008801511515600160a01b026001600160a81b031990911692909316919091179190911790556101208401518491906006820190611dac9082613a78565b505050606084015115611dea576060840151600090815260046020526040902054611dea5760405163c5723b5160e01b815260040160405180910390fd5b82878681518110611dfd57611dfd613171565b60200260200101819052508360a00151868681518110611e1f57611e1f613171565b6020026020010181815250508189602001518681518110611e4257611e42613171565b6020026020010181815250508f8e6001600160a01b031685600001516001600160a01b03167f8bf46bf4cfd674fa735a3d63ec1c9ad4153f033c290341f3a588b75685141b3585604051611e9891815260200190565b60405180910390a450505050611eae8160010190565b9050611b37565b50611ec583838360008c8c6122f5565b845250919998505050505050505050565b60606000826001600160401b03811115611ef257611ef26131a7565b604051908082528060200260200182016040528015611f1b578160200160208202803683370190505b508451909150600090815b81811015611fb4576000878281518110611f4257611f42613171565b6020026020010151905060008151905060005b81811015611fa057828181518110611f6f57611f6f613171565b6020026020010151878781518110611f8957611f89613171565b602090810291909101015260019586019501611f55565b505050611fad8160010190565b9050611f26565b509195945050505050565b6000828152600560205260409020546001600160401b031615611ff5576040516317133ca360e11b815260040160405180910390fd5b600082815260056020526040808220805467ffffffffffffffff19166001600160401b0385169081179091559051909184917f5aafceeb1c7ad58e4a84898bdee37c02c0fc46e7d24e6b60e8209449f183459f9190a35050565b6060600061205c83612660565b60010190506000816001600160401b0381111561207b5761207b6131a7565b6040519080825280601f01601f1916602001820160405280156120a5576020820181803683370190505b5090508181016020015b600019016f181899199a1a9b1b9c1cb0b131b232b360811b600a86061a8153600a85049450846120af57509392505050565b60606110997f00000000000000000000000000000000000000000000000000000000000000006000612738565b60606110997f00000000000000000000000000000000000000000000000000000000000000006001612738565b6000306001600160a01b037f00000000000000000000000000000000000000000000000000000000000000001614801561219457507f000000000000000000000000000000000000000000000000000000000000000046145b156121be57507f000000000000000000000000000000000000000000000000000000000000000090565b611099604080517f8b73c3c69bb8fe3d512ecc4cf759cc79239f7b179b0ffacaa9a75d522b39400f60208201527f0000000000000000000000000000000000000000000000000000000000000000918101919091527f000000000000000000000000000000000000000000000000000000000000000060608201524660808201523060a082015260009060c00160405160208183030381529060405280519060200120905090565b60006106ac61227361213b565b8360405161190160f01b8152600281019290925260228201526042902090565b60008060006122a285856127e3565b50909250905060008160038111156122bc576122bc613b36565b1480156122da5750856001600160a01b0316826001600160a01b0316145b806122eb57506122eb868686612830565b9695505050505050565b8451600090600181900361234d57612345888860008151811061231a5761231a613171565b60200260200101518860008151811061233557612335613171565b602002602001015188888861290b565b9150506122eb565b60208801516001600160a01b0381166123c85760005b828110156123ad5787818151811061237d5761237d613171565b60200260200101516000146123a557604051631574f9f360e01b815260040160405180910390fd5b600101612363565b5083156123bd576123bd85612b47565b6000925050506122eb565b600080826001600160a01b031663ce46e0466040518163ffffffff1660e01b8152600401602060405180830381865afa158015612409573d6000803e3d6000fd5b505050506040513d601f19601f8201168201806040525081019061242d9190613b4c565b905060005b848110156124b85760008a828151811061244e5761244e613171565b602002602001015190508060000361246657506124b0565b8261248457604051631574f9f360e01b815260040160405180910390fd5b888111156124a55760405163044044a560e21b815260040160405180910390fd5b978890039792909201915b600101612432565b508715612554576040516388e5b2d960e01b81526001600160a01b038416906388e5b2d99084906124ef908e908e90600401613b69565b60206040518083038185885af115801561250d573d6000803e3d6000fd5b50505050506040513d601f19601f820116820180604052508101906125329190613b4c565b61254f5760405163bf2f3a8b60e01b815260040160405180910390fd5b6125e4565b6040516348ed85bf60e11b81526001600160a01b038416906391db0b7e908490612584908e908e90600401613b69565b60206040518083038185885af11580156125a2573d6000803e3d6000fd5b50505050506040513d601f19601f820116820180604052508101906125c79190613b4c565b6125e45760405163e8bee83960e01b815260040160405180910390fd5b85156125f3576125f387612b47565b509998505050505050505050565b60208083015160c084015160e0850151604080870151606088015161010089015160a08a01516101208b0151945160009961264299989796918c9101613be1565b60405160208183030381529060405280519060200120905092915050565b60008072184f03e93ff9f4daa797ed6e38ed64bf6a1f0160401b831061269f5772184f03e93ff9f4daa797ed6e38ed64bf6a1f0160401b830492506040015b6d04ee2d6d415b85acef810000000083106126cb576d04ee2d6d415b85acef8100000000830492506020015b662386f26fc1000083106126e957662386f26fc10000830492506010015b6305f5e1008310612701576305f5e100830492506008015b612710831061271557612710830492506004015b60648310612727576064830492506002015b600a83106106ac5760010192915050565b606060ff83146127525761274b83612b5a565b90506106ac565b81805461275e906134e8565b80601f016020809104026020016040519081016040528092919081815260200182805461278a906134e8565b80156127d75780601f106127ac576101008083540402835291602001916127d7565b820191906000526020600020905b8154815290600101906020018083116127ba57829003601f168201915b505050505090506106ac565b6000806000835160410361281d5760208401516040850151606086015160001a61280f88828585612b99565b955095509550505050612829565b50508151600091506002905b9250925092565b6000806000856001600160a01b03168585604051602401612852929190613c94565b60408051601f198184030181529181526020820180516001600160e01b0316630b135d3f60e11b179052516128879190613cad565b600060405180830381855afa9150503d80600081146128c2576040519150601f19603f3d011682016040523d82523d6000602084013e6128c7565b606091505b50915091508180156128db57506020815110155b80156122eb57508051630b135d3f60e11b906129009083016020908101908401613cbf565b149695505050505050565b60208601516000906001600160a01b03811661295957851561294057604051631574f9f360e01b815260040160405180910390fd5b821561294f5761294f84612b47565b60009150506122eb565b8515612a0557806001600160a01b031663ce46e0466040518163ffffffff1660e01b8152600401602060405180830381865afa15801561299d573d6000803e3d6000fd5b505050506040513d601f19601f820116820180604052508101906129c19190613b4c565b6129de57604051631574f9f360e01b815260040160405180910390fd5b838611156129ff5760405163044044a560e21b815260040160405180910390fd5b85840393505b8415612a9e5760405163e49617e160e01b81526001600160a01b0382169063e49617e1908890612a39908b906004016130e4565b60206040518083038185885af1158015612a57573d6000803e3d6000fd5b50505050506040513d601f19601f82011682018060405250810190612a7c9190613b4c565b612a995760405163ccf3bb2760e01b815260040160405180910390fd5b612b2c565b60405163e60c350560e01b81526001600160a01b0382169063e60c3505908890612acc908b906004016130e4565b60206040518083038185885af1158015612aea573d6000803e3d6000fd5b50505050506040513d601f19601f82011682018060405250810190612b0f9190613b4c565b612b2c5760405163bd8ba84d60e01b815260040160405180910390fd5b8215612b3b57612b3b84612b47565b50939695505050505050565b8015612b5757612b573382612c68565b50565b60606000612b6783612d03565b604080516020808252818301909252919250600091906020820181803683375050509182525060208101929092525090565b600080807f7fffffffffffffffffffffffffffffff5d576e7357a4501ddfe92f46681b20a0841115612bd45750600091506003905082612c5e565b604080516000808252602082018084528a905260ff891692820192909252606081018790526080810186905260019060a0016020604051602081039080840390855afa158015612c28573d6000803e3d6000fd5b5050604051601f1901519150506001600160a01b038116612c5457506000925060019150829050612c5e565b9250600091508190505b9450945094915050565b80471015612c8f5760405163cd78605960e01b815230600482015260240160405180910390fd5b6000826001600160a01b03168260405160006040518083038185875af1925050503d8060008114612cdc576040519150601f19603f3d011682016040523d82523d6000602084013e612ce1565b606091505b50509050806109f157604051630a12f52160e11b815260040160405180910390fd5b600060ff8216601f8111156106ac57604051632cd44ac360e21b815260040160405180910390fd5b604080516101408101825260008082526020820181905291810182905260608082018390526080820183905260a0820183905260c0820183905260e0820183905261010082019290925261012081019190915290565b60008083601f840112612d9357600080fd5b5081356001600160401b03811115612daa57600080fd5b6020830191508360208260051b8501011115612dc557600080fd5b9250929050565b60008060208385031215612ddf57600080fd5b82356001600160401b03811115612df557600080fd5b612e0185828601612d81565b90969095509350505050565b60005b83811015612e28578181015183820152602001612e10565b50506000910152565b60008151808452612e49816020860160208601612e0d565b601f01601f19169290920160200192915050565b602081526000612e706020830184612e31565b9392505050565b6001600160a01b0381168114612b5757600080fd5b8035612e9781612e77565b919050565b600060208284031215612eae57600080fd5b8135612e7081612e77565b600060208284031215612ecb57600080fd5b81356001600160401b03811115612ee157600080fd5b820160e08185031215612e7057600080fd5b602080825282518282018190526000918401906040840190835b81811015612f2b578351835260209384019390920191600101612f0d565b509095945050505050565b60006060828403128015612f4957600080fd5b509092915050565b600060208284031215612f6357600080fd5b5035919050565b600081518084526020840193506020830160005b82811015612f9c578151865260209586019590910190600101612f7e565b5093949350505050565b60ff60f81b8816815260e060208201526000612fc560e0830189612e31565b8281036040840152612fd78189612e31565b606084018890526001600160a01b038716608085015260a0840186905283810360c0850152905061175e8185612f6a565b80518252602081015160208301526000604082015161303260408501826001600160401b03169052565b50606082015161304d60608501826001600160401b03169052565b50608082015161306860808501826001600160401b03169052565b5060a082015160a084015260c082015161308d60c08501826001600160a01b03169052565b5060e08201516130a860e08501826001600160a01b03169052565b506101008201516130be61010085018215159052565b506101208201516101406101208501526130dc610140850182612e31565b949350505050565b602081526000612e706020830184613008565b6000610100828403128015612f4957600080fd5b6000806040838503121561311e57600080fd5b823561312981612e77565b946020939093013593505050565b60006020828403121561314957600080fd5b81356001600160401b0381111561315f57600080fd5b820160408185031215612e7057600080fd5b634e487b7160e01b600052603260045260246000fd5b60008235609e1983360301811261319d57600080fd5b9190910192915050565b634e487b7160e01b600052604160045260246000fd5b60405160a081016001600160401b03811182821017156131df576131df6131a7565b60405290565b60405160c081016001600160401b03811182821017156131df576131df6131a7565b604051608081016001600160401b03811182821017156131df576131df6131a7565b604051601f8201601f191681016001600160401b0381118282101715613251576132516131a7565b604052919050565b60006001600160401b03821115613272576132726131a7565b5060051b60200190565b60006040828403121561328e57600080fd5b604080519081016001600160401b03811182821017156132b0576132b06131a7565b604052823581526020928301359281019290925250919050565b6000606082840312156132dc57600080fd5b604051606081016001600160401b03811182821017156132fe576132fe6131a7565b604052905080823560ff8116811461331557600080fd5b815260208381013590820152604092830135920191909152919050565b600082601f83011261334357600080fd5b813561335661335182613259565b613229565b8082825260208201915060206060840286010192508583111561337857600080fd5b602085015b8381101561339f5761338f87826132ca565b835260209092019160600161337d565b5095945050505050565b80356001600160401b0381168114612e9757600080fd5b600060a082360312156133d257600080fd5b6133da6131bd565b8235815260208301356001600160401b038111156133f757600080fd5b830136601f82011261340857600080fd5b803561341661335182613259565b8082825260208201915060208360061b85010192503683111561343857600080fd5b6020840193505b8284101561346457613451368561327c565b825260208201915060408401935061343f565b602085015250505060408301356001600160401b0381111561348557600080fd5b61349136828601613332565b6040830152506134a360608401612e8c565b60608201526134b4608084016133a9565b608082015292915050565b634e487b7160e01b600052601160045260246000fd5b818103818111156106ac576106ac6134bf565b600181811c908216806134fc57607f821691505b60208210810361351c57634e487b7160e01b600052602260045260246000fd5b50919050565b8015158114612b5757600080fd5b60006001600160401b03821115613549576135496131a7565b50601f01601f191660200190565b600060c0828403121561356957600080fd5b6135716131e5565b9050813561357e81612e77565b815261358c602083016133a9565b6020820152604082013561359f81613522565b60408201526060828101359082015260808201356001600160401b038111156135c757600080fd5b8201601f810184136135d857600080fd5b80356135e661335182613530565b8181528560208385010111156135fb57600080fd5b8160208401602083013760009181016020019190915260808301525060a09182013591810191909152919050565b600060e0823603121561363b57600080fd5b6136436131bd565b8235815260208301356001600160401b0381111561366057600080fd5b61366c36828601613557565b60208301525061367f36604085016132ca565b604082015260a083013561369281612e77565b60608201526134b460c084016133a9565b6000823560be1983360301811261319d57600080fd5b60006106ac3683613557565b60008235603e1983360301811261319d57600080fd5b6000808335601e198436030181126136f257600080fd5b8301803591506001600160401b0382111561370c57600080fd5b6020019150600581901b3603821315612dc557600080fd5b600061373261335184613259565b8381526020810190600585901b84013681111561374e57600080fd5b845b81811015612f2b5780356001600160401b0381111561376e57600080fd5b61377a36828901613557565b85525060209384019301613750565b60006040828403121561379b57600080fd5b612e70838361327c565b6000808335601e198436030181126137bc57600080fd5b8301803591506001600160401b038211156137d657600080fd5b6020019150600681901b3603821315612dc557600080fd5b60008451613800818460208901612e0d565b601760f91b908301908152845161381e816001840160208901612e0d565b601760f91b600192909101918201528351613840816002840160208801612e0d565b0160020195945050505050565b6000808335601e1984360301811261386457600080fd5b8301803591506001600160401b0382111561387e57600080fd5b6020019150606081023603821315612dc557600080fd5b6000606082840312156138a757600080fd5b612e7083836132ca565b6000602082840312156138c357600080fd5b612e70826133a9565b60006101008284031280156138e057600080fd5b506138e96131bd565b823581526138fa846020850161327c565b602082015261390c84606085016132ca565b604082015260c083013561391f81612e77565b606082015261393060e084016133a9565b60808201529392505050565b60006001820161394e5761394e6134bf565b5060010190565b60006020828403121561396757600080fd5b81516001600160401b0381111561397d57600080fd5b82016080818503121561398f57600080fd5b613997613207565b8151815260208201516139a981612e77565b602082015260408201516139bc81613522565b604082015260608201516001600160401b038111156139da57600080fd5b80830192505084601f8301126139ef57600080fd5b81516139fd61335182613530565b818152866020838601011115613a1257600080fd5b613a23826020830160208701612e0d565b606083015250949350505050565b601f8211156109f157806000526020600020601f840160051c81016020851015613a585750805b601f840160051c820191505b818110156106665760008155600101613a64565b81516001600160401b03811115613a9157613a916131a7565b613aa581613a9f84546134e8565b84613a31565b6020601f821160018114613ad95760008315613ac15750848201515b600019600385901b1c1916600184901b178455610666565b600084815260208120601f198516915b82811015613b095787850151825560209485019460019092019101613ae9565b5084821015613b275786840151600019600387901b60f8161c191681555b50505050600190811b01905550565b634e487b7160e01b600052602160045260246000fd5b600060208284031215613b5e57600080fd5b8151612e7081613522565b6000604082016040835280855180835260608501915060608160051b86010192506020870160005b82811015613bc257605f19878603018452613bad858351613008565b94506020938401939190910190600101613b91565b505050508281036020840152613bd88185612f6a565b95945050505050565b8981526bffffffffffffffffffffffff198960601b1660208201526bffffffffffffffffffffffff198860601b1660348201526001600160401b0360c01b8760c01b1660488201526001600160401b0360c01b8660c01b16605082015284151560f81b605882015283605982015260006079820160008551613c67818460208a01612e0d565b82019050613c81818660e01b6001600160e01b0319169052565b6004019c9b505050505050505050505050565b8281526040602082015260006130dc6040830184612e31565b6000825161319d818460208701612e0d565b600060208284031215613cd157600080fd5b505191905056fea2646970667358221220d5beb3cdb24f1fc64badbf456643316a1d8743d887290b37c3c64f9d8465b6ee64736f6c634300081a0033",
  "devdoc": {
    "errors": {
      "AddressInsufficientBalance(address)": [
        {
          "details": "The ETH balance of the account is not enough to perform the operation."
        }
      ],
      "FailedInnerCall()": [
        {
          "details": "A call to an address target failed. The target may have reverted."
        }
      ]
    },
    "events": {
      "Attested(address,address,bytes32,bytes32)": {
        "params": {
          "attester": "The attesting account.",
          "recipient": "The recipient of the attestation.",
          "schemaUID": "The UID of the schema.",
          "uid": "The UID of the new attestation."
        }
      },
      "EIP712DomainChanged()": {
        "details": "MAY be emitted to signal that the domain could have changed."
      },
      "NonceIncreased(uint256,uint256)": {
        "params": {
          "newNonce": "The new value.",
          "oldNonce": "The previous nonce."
        }
      },
      "Revoked(address,address,bytes32,bytes32)": {
        "params": {
          "attester": "The attesting account.",
          "recipient": "The recipient of the attestation.",
          "schemaUID": "The UID of the schema.",
          "uid": "The UID the revoked attestation."
        }
      },
      "RevokedOffchain(address,bytes32,uint64)": {
        "params": {
          "data": "The data.",
          "revoker": "The address of the revoker.",
          "timestamp": "The timestamp."
        }
      },
      "Timestamped(bytes32,uint64)": {
        "params": {
          "data": "The data.",
          "timestamp": "The timestamp."
        }
      }
    },
    "kind": "dev",
    "methods": {
      "attest((bytes32,(address,uint64,bool,bytes32,bytes,uint256)))": {
        "params": {
          "request": "The arguments of the attestation request."
        },
        "returns": {
          "_0": "The UID of the new attestation. Example:     attest({         schema: \"0facc36681cbe2456019c1b0d1e7bedd6d1d40f6f324bf3dd3a4cef2999200a0\",         data: {             recipient: \"0xdEADBeAFdeAdbEafdeadbeafDeAdbEAFdeadbeaf\",             expirationTime: 0,             revocable: true,             refUID: \"0x0000000000000000000000000000000000000000000000000000000000000000\",             data: \"0xF00D\",             value: 0         }     })"
        }
      },
      "attestByDelegation((bytes32,(address,uint64,bool,bytes32,bytes,uint256),(uint8,bytes32,bytes32),address,uint64))": {
        "params": {
          "delegatedRequest": "The arguments of the delegated attestation request."
        },
        "returns": {
          "_0": "The UID of the new attestation. Example:     attestByDelegation({         schema: '0x8e72f5bc0a8d4be6aa98360baa889040c50a0e51f32dbf0baa5199bd93472ebc',         data: {             recipient: '0xf39Fd6e51aad88F6F4ce6aB8827279cffFb92266',             expirationTime: 1673891048,             revocable: true,             refUID: '0x0000000000000000000000000000000000000000000000000000000000000000',             data: '0x1234',             value: 0         },         signature: {             v: 28,             r: '0x148c...b25b',             s: '0x5a72...be22'         },         attester: '0xc5E8740aD971409492b1A63Db8d83025e0Fc427e',         deadline: 1673891048     })"
        }
      },
      "constructor": {
        "details": "Creates a new EAS instance.",
        "params": {
          "registry": "The address of the global schema registry."
        }
      },
      "eip712Domain()": {
        "details": "See {IERC-5267}."
      },
      "getAttestTypeHash()": {
        "returns": {
          "_0": "The EIP712 type hash for the attest function."
        }
      },
      "getAttestation(bytes32)": {
        "params": {
          "uid": "The UID of the attestation to retrieve."
        },
        "returns": {
          "_0": "The attestation data members."
        }
      },
      "getDomainSeparator()": {
        "returns": {
          "_0": "The domain separator used in the encoding of the signatures for attest, and revoke."
        }
      },
      "getName()": {
        "returns": {
          "_0": "The EIP712 name."
        }
      },
      "getNonce(address)": {
        "params": {
          "account": "The requested account."
        },
        "returns": {
          "_0": "The current nonce."
        }
      },
      "getRevokeOffchain(address,bytes32)": {
        "params": {
          "data": "The data to query."
        },
        "returns": {
          "_0": "The timestamp the data was timestamped with."
        }
      },
      "getRevokeTypeHash()": {
        "returns": {
          "_0": "The EIP712 type hash for the revoke function."
        }
      },
      "getSchemaRegistry()": {
        "returns": {
          "_0": "The address of the global schema registry."
        }
      },
      "getTimestamp(bytes32)": {
        "params": {
          "data": "The data to query."
        },
        "returns": {
          "_0": "The timestamp the data was timestamped with."
        }
      },
      "increaseNonce(uint256)": {
        "params": {
          "newNonce": "The (higher) new value."
        }
      },
      "isAttestationValid(bytes32)": {
        "params": {
          "uid": "The UID of the attestation to retrieve."
        },
        "returns": {
          "_0": "Whether an attestation exists."
        }
      },
      "multiAttest((bytes32,(address,uint64,bool,bytes32,bytes,uint256)[])[])": {
        "params": {
          "multiRequests": "The arguments of the multi attestation requests. The requests should be grouped by distinct     schema ids to benefit from the best batching optimization."
        },
        "returns": {
          "_0": "The UIDs of the new attestations. Example:     multiAttest([{         schema: '0x33e9094830a5cba5554d1954310e4fbed2ef5f859ec1404619adea4207f391fd',         data: [{             recipient: '0xdEADBeAFdeAdbEafdeadbeafDeAdbEAFdeadbeaf',             expirationTime: 1673891048,             revocable: true,             refUID: '0x0000000000000000000000000000000000000000000000000000000000000000',             data: '0x1234',             value: 1000         },         {             recipient: '0xf39Fd6e51aad88F6F4ce6aB8827279cffFb92266',             expirationTime: 0,             revocable: false,             refUID: '0x480df4a039efc31b11bfdf491b383ca138b6bde160988222a2a3509c02cee174',             data: '0x00',             value: 0         }],     },     {         schema: '0x5ac273ce41e3c8bfa383efe7c03e54c5f0bff29c9f11ef6ffa930fc84ca32425',         data: [{             recipient: '0xdEADBeAFdeAdbEafdeadbeafDeAdbEAFdeadbeaf',             expirationTime: 0,             revocable: true,             refUID: '0x75bf2ed8dca25a8190c50c52db136664de25b2449535839008ccfdab469b214f',             data: '0x12345678',             value: 0         },     }])"
        }
      },
      "multiAttestByDelegation((bytes32,(address,uint64,bool,bytes32,bytes,uint256)[],(uint8,bytes32,bytes32)[],address,uint64)[])": {
        "params": {
          "multiDelegatedRequests": "The arguments of the delegated multi attestation requests. The requests should be     grouped by distinct schema ids to benefit from the best batching optimization."
        },
        "returns": {
          "_0": "The UIDs of the new attestations. Example:     multiAttestByDelegation([{         schema: '0x8e72f5bc0a8d4be6aa98360baa889040c50a0e51f32dbf0baa5199bd93472ebc',         data: [{             recipient: '0xf39Fd6e51aad88F6F4ce6aB8827279cffFb92266',             expirationTime: 1673891048,             revocable: true,             refUID: '0x0000000000000000000000000000000000000000000000000000000000000000',             data: '0x1234',             value: 0         },         {             recipient: '0xdEADBeAFdeAdbEafdeadbeafDeAdbEAFdeadbeaf',             expirationTime: 0,             revocable: false,             refUID: '0x0000000000000000000000000000000000000000000000000000000000000000',             data: '0x00',             value: 0         }],         signatures: [{             v: 28,             r: '0x148c...b25b',             s: '0x5a72...be22'         },         {             v: 28,             r: '0x487s...67bb',             s: '0x12ad...2366'         }],         attester: '0x1D86495b2A7B524D747d2839b3C645Bed32e8CF4',         deadline: 1673891048     }])"
        }
      },
      "multiRevoke((bytes32,(bytes32,uint256)[])[])": {
        "params": {
          "multiRequests": "The arguments of the multi revocation requests. The requests should be grouped by distinct     schema ids to benefit from the best batching optimization. Example:     multiRevoke([{         schema: '0x8e72f5bc0a8d4be6aa98360baa889040c50a0e51f32dbf0baa5199bd93472ebc',         data: [{             uid: '0x211296a1ca0d7f9f2cfebf0daaa575bea9b20e968d81aef4e743d699c6ac4b25',             value: 1000         },         {             uid: '0xe160ac1bd3606a287b4d53d5d1d6da5895f65b4b4bab6d93aaf5046e48167ade',             value: 0         }],     },     {         schema: '0x5ac273ce41e3c8bfa383efe7c03e54c5f0bff29c9f11ef6ffa930fc84ca32425',         data: [{             uid: '0x053d42abce1fd7c8fcddfae21845ad34dae287b2c326220b03ba241bc5a8f019',             value: 0         },     }])"
        }
      },
      "multiRevokeByDelegation((bytes32,(bytes32,uint256)[],(uint8,bytes32,bytes32)[],address,uint64)[])": {
        "params": {
          "multiDelegatedRequests": "The arguments of the delegated multi revocation attestation requests. The requests     should be grouped by distinct schema ids to benefit from the best batching optimization. Example:     multiRevokeByDelegation([{         schema: '0x8e72f5bc0a8d4be6aa98360baa889040c50a0e51f32dbf0baa5199bd93472ebc',         data: [{             uid: '0x211296a1ca0d7f9f2cfebf0daaa575bea9b20e968d81aef4e743d699c6ac4b25',             value: 1000         },         {             uid: '0xe160ac1bd3606a287b4d53d5d1d6da5895f65b4b4bab6d93aaf5046e48167ade',             value: 0         }],         signatures: [{             v: 28,             r: '0x148c...b25b',             s: '0x5a72...be22'         },         {             v: 28,             r: '0x487s...67bb',             s: '0x12ad...2366'         }],         revoker: '0x244934dd3e31bE2c81f84ECf0b3E6329F5381992',         deadline: 1673891048     }])"
        }
      },
      "multiRevokeOffchain(bytes32[])": {
        "params": {
          "data": "The data to timestamp."
        },
        "returns": {
          "_0": "The timestamp the data was revoked with."
        }
      },
      "multiTimestamp(bytes32[])": {
        "params": {
          "data": "The data to timestamp."
        },
        "returns": {
          "_0": "The timestamp the data was timestamped with."
        }
      },
      "revoke((bytes32,(bytes32,uint256)))": {
        "params": {
          "request": "The arguments of the revocation request. Example:     revoke({         schema: '0x8e72f5bc0a8d4be6aa98360baa889040c50a0e51f32dbf0baa5199bd93472ebc',         data: {             uid: '0x101032e487642ee04ee17049f99a70590c735b8614079fc9275f9dd57c00966d',             value: 0         }     })"
        }
      },
      "revokeByDelegation((bytes32,(bytes32,uint256),(uint8,bytes32,bytes32),address,uint64))": {
        "params": {
          "delegatedRequest": "The arguments of the delegated revocation request. Example:     revokeByDelegation({         schema: '0x8e72f5bc0a8d4be6aa98360baa889040c50a0e51f32dbf0baa5199bd93472ebc',         data: {             uid: '0xcbbc12102578c642a0f7b34fe7111e41afa25683b6cd7b5a14caf90fa14d24ba',             value: 0         },         signature: {             v: 27,             r: '0xb593...7142',             s: '0x0f5b...2cce'         },         revoker: '0x244934dd3e31bE2c81f84ECf0b3E6329F5381992',         deadline: 1673891048     })"
        }
      },
      "revokeOffchain(bytes32)": {
        "params": {
          "data": "The data to timestamp."
        },
        "returns": {
          "_0": "The timestamp the data was revoked with."
        }
      },
      "timestamp(bytes32)": {
        "params": {
          "data": "The data to timestamp."
        },
        "returns": {
          "_0": "The timestamp the data was timestamped with."
        }
      },
      "version()": {
        "returns": {
          "_0": "Semver contract version as a string."
        }
      }
    },
    "title": "EAS",
    "version": 1
  },
  "userdoc": {
    "events": {
      "Attested(address,address,bytes32,bytes32)": {
        "notice": "Emitted when an attestation has been made."
      },
      "NonceIncreased(uint256,uint256)": {
        "notice": "Emitted when users invalidate nonces by increasing their nonces to (higher) new values."
      },
      "Revoked(address,address,bytes32,bytes32)": {
        "notice": "Emitted when an attestation has been revoked."
      },
      "RevokedOffchain(address,bytes32,uint64)": {
        "notice": "Emitted when a data has been revoked."
      },
      "Timestamped(bytes32,uint64)": {
        "notice": "Emitted when a data has been timestamped."
      }
    },
    "kind": "user",
    "methods": {
      "attest((bytes32,(address,uint64,bool,bytes32,bytes,uint256)))": {
        "notice": "Attests to a specific schema."
      },
      "attestByDelegation((bytes32,(address,uint64,bool,bytes32,bytes,uint256),(uint8,bytes32,bytes32),address,uint64))": {
        "notice": "Attests to a specific schema via the provided ECDSA signature."
      },
      "getAttestTypeHash()": {
        "notice": "Returns the EIP712 type hash for the attest function."
      },
      "getAttestation(bytes32)": {
        "notice": "Returns an existing attestation by UID."
      },
      "getDomainSeparator()": {
        "notice": "Returns the domain separator used in the encoding of the signatures for attest, and revoke."
      },
      "getName()": {
        "notice": "Returns the EIP712 name."
      },
      "getNonce(address)": {
        "notice": "Returns the current nonce per-account."
      },
      "getRevokeOffchain(address,bytes32)": {
        "notice": "Returns the timestamp that the specified data was timestamped with."
      },
      "getRevokeTypeHash()": {
        "notice": "Returns the EIP712 type hash for the revoke function."
      },
      "getSchemaRegistry()": {
        "notice": "Returns the address of the global schema registry."
      },
      "getTimestamp(bytes32)": {
        "notice": "Returns the timestamp that the specified data was timestamped with."
      },
      "increaseNonce(uint256)": {
        "notice": "Provides users an option to invalidate nonces by increasing their nonces to (higher) new values."
      },
      "isAttestationValid(bytes32)": {
        "notice": "Checks whether an attestation exists."
      },
      "multiAttest((bytes32,(address,uint64,bool,bytes32,bytes,uint256)[])[])": {
        "notice": "Attests to multiple schemas."
      },
      "multiAttestByDelegation((bytes32,(address,uint64,bool,bytes32,bytes,uint256)[],(uint8,bytes32,bytes32)[],address,uint64)[])": {
        "notice": "Attests to multiple schemas using via provided ECDSA signatures."
      },
      "multiRevoke((bytes32,(bytes32,uint256)[])[])": {
        "notice": "Revokes existing attestations to multiple schemas."
      },
      "multiRevokeByDelegation((bytes32,(bytes32,uint256)[],(uint8,bytes32,bytes32)[],address,uint64)[])": {
        "notice": "Revokes existing attestations to multiple schemas via provided ECDSA signatures."
      },
      "multiRevokeOffchain(bytes32[])": {
        "notice": "Revokes the specified multiple bytes32 data."
      },
      "multiTimestamp(bytes32[])": {
        "notice": "Timestamps the specified multiple bytes32 data."
      },
      "revoke((bytes32,(bytes32,uint256)))": {
        "notice": "Revokes an existing attestation to a specific schema."
      },
      "revokeByDelegation((bytes32,(bytes32,uint256),(uint8,bytes32,bytes32),address,uint64))": {
        "notice": "Revokes an existing attestation to a specific schema via the provided ECDSA signature."
      },
      "revokeOffchain(bytes32)": {
        "notice": "Revokes the specified bytes32 data."
      },
      "timestamp(bytes32)": {
        "notice": "Timestamps the specified bytes32 data."
      },
      "version()": {
        "notice": "Returns the full semver contract version."
      }
    },
    "notice": "The Ethereum Attestation Service protocol.",
    "version": 1
  },
  "storageLayout": {
    "storage": [
      {
        "astId": 6610,
        "contract": "@ethereum-attestation-service/eas-contracts/contracts/EAS.sol:EAS",
        "label": "_nameFallback",
        "offset": 0,
        "slot": "0",
        "type": "t_string_storage"
      },
      {
        "astId": 6612,
        "contract": "@ethereum-attestation-service/eas-contracts/contracts/EAS.sol:EAS",
        "label": "_versionFallback",
        "offset": 0,
        "slot": "1",
        "type": "t_string_storage"
      },
      {
        "astId": 2622,
        "contract": "@ethereum-attestation-service/eas-contracts/contracts/EAS.sol:EAS",
        "label": "_name",
        "offset": 0,
        "slot": "2",
        "type": "t_string_storage"
      },
      {
        "astId": 2626,
        "contract": "@ethereum-attestation-service/eas-contracts/contracts/EAS.sol:EAS",
        "label": "_nonces",
        "offset": 0,
        "slot": "3",
        "type": "t_mapping(t_address,t_uint256)"
      },
      {
        "astId": 155,
        "contract": "@ethereum-attestation-service/eas-contracts/contracts/EAS.sol:EAS",
        "label": "_db",
        "offset": 0,
        "slot": "4",
        "type": "t_mapping(t_bytes32,t_struct(Attestation)49_storage)"
      },
      {
        "astId": 159,
        "contract": "@ethereum-attestation-service/eas-contracts/contracts/EAS.sol:EAS",
        "label": "_timestamps",
        "offset": 0,
        "slot": "5",
        "type": "t_mapping(t_bytes32,t_uint64)"
      },
      {
        "astId": 165,
        "contract": "@ethereum-attestation-service/eas-contracts/contracts/EAS.sol:EAS",
        "label": "_revocationsOffchain",
        "offset": 0,
        "slot": "6",
        "type": "t_mapping(t_address,t_mapping(t_bytes32,t_uint64))"
      }
    ],
    "types": {
      "t_address": {
        "encoding": "inplace",
        "label": "address",
        "numberOfBytes": "20"
      },
      "t_bool": {
        "encoding": "inplace",
        "label": "bool",
        "numberOfBytes": "1"
      },
      "t_bytes32": {
        "encoding": "inplace",
        "label": "bytes32",
        "numberOfBytes": "32"
      },
      "t_bytes_storage": {
        "encoding": "bytes",
        "label": "bytes",
        "numberOfBytes": "32"
      },
      "t_mapping(t_address,t_mapping(t_bytes32,t_uint64))": {
        "encoding": "mapping",
        "key": "t_address",
        "label": "mapping(address => mapping(bytes32 => uint64))",
        "numberOfBytes": "32",
        "value": "t_mapping(t_bytes32,t_uint64)"
      },
      "t_mapping(t_address,t_uint256)": {
        "encoding": "mapping",
        "key": "t_address",
        "label": "mapping(address => uint256)",
        "numberOfBytes": "32",
        "value": "t_uint256"
      },
      "t_mapping(t_bytes32,t_struct(Attestation)49_storage)": {
        "encoding": "mapping",
        "key": "t_bytes32",
        "label": "mapping(bytes32 => struct Attestation)",
        "numberOfBytes": "32",
        "value": "t_struct(Attestation)49_storage"
      },
      "t_mapping(t_bytes32,t_uint64)": {
        "encoding": "mapping",
        "key": "t_bytes32",
        "label": "mapping(bytes32 => uint64)",
        "numberOfBytes": "32",
        "value": "t_uint64"
      },
      "t_string_storage": {
        "encoding": "bytes",
        "label": "string",
        "numberOfBytes": "32"
      },
      "t_struct(Attestation)49_storage": {
        "encoding": "inplace",
        "label": "struct Attestation",
        "members": [
          {
            "astId": 30,
            "contract": "@ethereum-attestation-service/eas-contracts/contracts/EAS.sol:EAS",
            "label": "uid",
            "offset": 0,
            "slot": "0",
            "type": "t_bytes32"
          },
          {
            "astId": 32,
            "contract": "@ethereum-attestation-service/eas-contracts/contracts/EAS.sol:EAS",
            "label": "schema",
            "offset": 0,
            "slot": "1",
            "type": "t_bytes32"
          },
          {
            "astId": 34,
            "contract": "@ethereum-attestation-service/eas-contracts/contracts/EAS.sol:EAS",
            "label": "time",
            "offset": 0,
            "slot": "2",
            "type": "t_uint64"
          },
          {
            "astId": 36,
            "contract": "@ethereum-attestation-service/eas-contracts/contracts/EAS.sol:EAS",
            "label": "expirationTime",
            "offset": 8,
            "slot": "2",
            "type": "t_uint64"
          },
          {
            "astId": 38,
            "contract": "@ethereum-attestation-service/eas-contracts/contracts/EAS.sol:EAS",
            "label": "revocationTime",
            "offset": 16,
            "slot": "2",
            "type": "t_uint64"
          },
          {
            "astId": 40,
            "contract": "@ethereum-attestation-service/eas-contracts/contracts/EAS.sol:EAS",
            "label": "refUID",
            "offset": 0,
            "slot": "3",
            "type": "t_bytes32"
          },
          {
            "astId": 42,
            "contract": "@ethereum-attestation-service/eas-contracts/contracts/EAS.sol:EAS",
            "label": "recipient",
            "offset": 0,
            "slot": "4",
            "type": "t_address"
          },
          {
            "astId": 44,
            "contract": "@ethereum-attestation-service/eas-contracts/contracts/EAS.sol:EAS",
            "label": "attester",
            "offset": 0,
            "slot": "5",
            "type": "t_address"
          },
          {
            "astId": 46,
            "contract": "@ethereum-attestation-service/eas-contracts/contracts/EAS.sol:EAS",
            "label": "revocable",
            "offset": 20,
            "slot": "5",
            "type": "t_bool"
          },
          {
            "astId": 48,
            "contract": "@ethereum-attestation-service/eas-contracts/contracts/EAS.sol:EAS",
            "label": "data",
            "offset": 0,
            "slot": "6",
            "type": "t_bytes_storage"
          }
        ],
        "numberOfBytes": "224"
      },
      "t_uint256": {
        "encoding": "inplace",
        "label": "uint256",
        "numberOfBytes": "32"
      },
      "t_uint64": {
        "encoding": "inplace",
        "label": "uint64",
        "numberOfBytes": "8"
      }
    }
  }
}