{
  "address": "0x0141636c8026225A974C1EA70aF1d123c7750d8D",
  "abi": [
    {
      "inputs": [
        {
          "internalType": "contract IEAS",
          "name": "eas",
          "type": "address"
        }
      ],
      "stateMutability": "nonpayable",
      "type": "constructor"
    },
    {
      "inputs": [],
      "name": "AccessDenied",
      "type": "error"
    },
    {
      "inputs": [],
      "name": "InsufficientValue",
      "type": "error"
    },
    {
      "inputs": [],
      "name": "InvalidEAS",
      "type": "error"
    },
    {
      "inputs": [],
      "name": "InvalidLength",
      "type": "error"
    },
    {
      "inputs": [],
      "name": "NotPayable",
      "type": "error"
    },
    {
      "inputs": [
        {
          "internalType": "address",
          "name": "attester",
          "type": "address"
        }
      ],
      "name": "addTargetAttester",
      "outputs": [],
      "stateMutability": "nonpayable",
      "type": "function"
    },
    {
      "inputs": [
        {
          "components": [
            {
              "internalType": "bytes32",
              "name": "uid",
              "type": "bytes32"
            },
            {
              "internalType": "bytes32",
              "name": "schema",
              "type": "bytes32"
            },
            {
              "internalType": "uint64",
              "name": "time",
              "type": "uint64"
            },
            {
              "internalType": "uint64",
              "name": "expirationTime",
              "type": "uint64"
            },
            {
              "internalType": "uint64",
              "name": "revocationTime",
              "type": "uint64"
            },
            {
              "internalType": "bytes32",
              "name": "refUID",
              "type": "bytes32"
            },
            {
              "internalType": "address",
              "name": "recipient",
              "type": "address"
            },
            {
              "internalType": "address",
              "name": "attester",
              "type": "address"
            },
            {
              "internalType": "bool",
              "name": "revocable",
              "type": "bool"
            },
            {
              "internalType": "bytes",
              "name": "data",
              "type": "bytes"
            }
          ],
          "internalType": "struct Attestation",
          "name": "attestation",
          "type": "tuple"
        }
      ],
      "name": "attest",
      "outputs": [
        {
          "internalType": "bool",
          "name": "",
          "type": "bool"
        }
      ],
      "stateMutability": "payable",
      "type": "function"
    },
    {
      "inputs": [],
      "name": "isPayable",
      "outputs": [
        {
          "internalType": "bool",
          "name": "",
          "type": "bool"
        }
      ],
      "stateMutability": "pure",
      "type": "function"
    },
    {
      "inputs": [
        {
          "components": [
            {
              "internalType": "bytes32",
              "name": "uid",
              "type": "bytes32"
            },
            {
              "internalType": "bytes32",
              "name": "schema",
              "type": "bytes32"
            },
            {
              "internalType": "uint64",
              "name": "time",
              "type": "uint64"
            },
            {
              "internalType": "uint64",
              "name": "expirationTime",
              "type": "uint64"
            },
            {
              "internalType": "uint64",
              "name": "revocationTime",
              "type": "uint64"
            },
            {
              "internalType": "bytes32",
              "name": "refUID",
              "type": "bytes32"
            },
            {
              "internalType": "address",
              "name": "recipient",
              "type": "address"
            },
            {
              "internalType": "address",
              "name": "attester",
              "type": "address"
            },
            {
              "internalType": "bool",
              "name": "revocable",
              "type": "bool"
            },
            {
              "internalType": "bytes",
              "name": "data",
              "type": "bytes"
            }
          ],
          "internalType": "struct Attestation[]",
          "name": "attestations",
          "type": "tuple[]"
        },
        {
          "internalType": "uint256[]",
          "name": "values",
          "type": "uint256[]"
        }
      ],
      "name": "multiAttest",
      "outputs": [
        {
          "internalType": "bool",
          "name": "",
          "type": "bool"
        }
      ],
      "stateMutability": "payable",
      "type": "function"
    },
    {
      "inputs": [
        {
          "components": [
            {
              "internalType": "bytes32",
              "name": "uid",
              "type": "bytes32"
            },
            {
              "internalType": "bytes32",
              "name": "schema",
              "type": "bytes32"
            },
            {
              "internalType": "uint64",
              "name": "time",
              "type": "uint64"
            },
            {
              "internalType": "uint64",
              "name": "expirationTime",
              "type": "uint64"
            },
            {
              "internalType": "uint64",
              "name": "revocationTime",
              "type": "uint64"
            },
            {
              "internalType": "bytes32",
              "name": "refUID",
              "type": "bytes32"
            },
            {
              "internalType": "address",
              "name": "recipient",
              "type": "address"
            },
            {
              "internalType": "address",
              "name": "attester",
              "type": "address"
            },
            {
              "internalType": "bool",
              "name": "revocable",
              "type": "bool"
            },
            {
              "internalType": "bytes",
              "name": "data",
              "type": "bytes"
            }
          ],
          "internalType": "struct Attestation[]",
          "name": "attestations",
          "type": "tuple[]"
        },
        {
          "internalType": "uint256[]",
          "name": "values",
          "type": "uint256[]"
        }
      ],
      "name": "multiRevoke",
      "outputs": [
        {
          "internalType": "bool",
          "name": "",
          "type": "bool"
        }
      ],
      "stateMutability": "payable",
      "type": "function"
    },
    {
      "inputs": [
        {
          "components": [
            {
              "internalType": "bytes32",
              "name": "uid",
              "type": "bytes32"
            },
            {
              "internalType": "bytes32",
              "name": "schema",
              "type": "bytes32"
            },
            {
              "internalType": "uint64",
              "name": "time",
              "type": "uint64"
            },
            {
              "internalType": "uint64",
              "name": "expirationTime",
              "type": "uint64"
            },
            {
              "internalType": "uint64",
              "name": "revocationTime",
              "type": "uint64"
            },
            {
              "internalType": "bytes32",
              "name": "refUID",
              "type": "bytes32"
            },
            {
              "internalType": "address",
              "name": "recipient",
              "type": "address"
            },
            {
              "internalType": "address",
              "name": "attester",
              "type": "address"
            },
            {
              "internalType": "bool",
              "name": "revocable",
              "type": "bool"
            },
            {
              "internalType": "bytes",
              "name": "data",
              "type": "bytes"
            }
          ],
          "internalType": "struct Attestation",
          "name": "attestation",
          "type": "tuple"
        }
      ],
      "name": "revoke",
      "outputs": [
        {
          "internalType": "bool",
          "name": "",
          "type": "bool"
        }
      ],
      "stateMutability": "payable",
      "type": "function"
    },
    {
      "inputs": [
        {
          "internalType": "uint256",
          "name": "",
          "type": "uint256"
        }
      ],
      "name": "targetAttesters",
      "outputs": [
        {
          "internalType": "address",
          "name": "",
          "type": "address"
        }
      ],
      "stateMutability": "view",
      "type": "function"
    },
    {
      "inputs": [],
      "name": "version",
      "outputs": [
        {
          "internalType": "string",
          "name": "",
          "type": "string"
        }
      ],
      "stateMutability": "view",
      "type": "function"
    },
    {
      "stateMutability": "payable",
      "type": "receive"
    }
  ],
  "transactionHash": "0xef49a02fe0d37e281f6a45660854a86111fcce2d714aef31339af0ffec3c449f",
  "args": [
    "0x2634Ae0c59F5b3D048632F6115AdceA90C471540"
  ],
  "numDeployments": 1,
  "solcInputHash": "6790a447a92238394d3dde7a445ef347",
  "bytecode": "0x61010060405234801561001157600080fd5b506040516109e33803806109e383398101604081905261003091610079565b6001608052600360a052600060c052806001600160a01b038116610067576040516341bc07ff60e11b815260040160405180910390fd5b6001600160a01b031660e052506100a9565b60006020828403121561008b57600080fd5b81516001600160a01b03811681146100a257600080fd5b9392505050565b60805160a05160c05160e0516109016100e260003960006104fd01526000610260015260006102370152600061020e01526109016000f3fe60806040526004361061007f5760003560e01c8063ce46e0461161004e578063ce46e04614610139578063e49617e11461014d578063e60c350514610160578063f26c88aa1461017357600080fd5b8063419dc4fc146100a457806354fd4d50146100e157806388e5b2d91461010357806391db0b7e1461012657600080fd5b3661009f57604051631574f9f360e01b815260040160405180910390fd5b005b600080fd5b3480156100b057600080fd5b506100c46100bf366004610686565b6101dd565b6040516001600160a01b0390911681526020015b60405180910390f35b3480156100ed57600080fd5b506100f6610207565b6040516100d891906106c3565b610116610111366004610742565b6102aa565b60405190151581526020016100d8565b610116610134366004610742565b610379565b34801561014557600080fd5b506000610116565b61011661015b3660046107b3565b610438565b61011661016e3660046107b3565b61044b565b34801561017f57600080fd5b5061009d61018e3660046107f6565b600080546001810182559080527f290decd9548b62a8d60345a988386fc84ba6bc95484008f6362f93160ef3e5630180546001600160a01b0319166001600160a01b0392909216919091179055565b600081815481106101ed57600080fd5b6000918252602090912001546001600160a01b0316905081565b60606102327f000000000000000000000000000000000000000000000000000000000000000061045f565b61025b7f000000000000000000000000000000000000000000000000000000000000000061045f565b6102847f000000000000000000000000000000000000000000000000000000000000000061045f565b6040516020016102969392919061081f565b604051602081830303815290604052905090565b60006102b46104f2565b838281146102d55760405163251f56a160e21b815260040160405180910390fd5b3460005b828110156103695760008686838181106102f5576102f561087e565b9050602002013590508281111561031f5760405163044044a560e21b815260040160405180910390fd5b61034c8989848181106103345761033461087e565b90506020028101906103469190610894565b50600190565b61035d576000945050505050610371565b909103906001016102d9565b506001925050505b949350505050565b60006103836104f2565b838281146103a45760405163251f56a160e21b815260040160405180910390fd5b3460005b828110156103695760008686838181106103c4576103c461087e565b905060200201359050828111156103ee5760405163044044a560e21b815260040160405180910390fd5b61041b8989848181106104035761040361087e565b90506020028101906104159190610894565b8261053d565b61042c576000945050505050610371565b909103906001016103a8565b60006104426104f2565b60015b92915050565b60006104556104f2565b610445823461053d565b6060600061046c836105ae565b600101905060008167ffffffffffffffff81111561048c5761048c6108b5565b6040519080825280601f01601f1916602001820160405280156104b6576020820181803683370190505b5090508181016020015b600019016f181899199a1a9b1b9c1cb0b131b232b360811b600a86061a8153600a85049450846104c057509392505050565b336001600160a01b037f0000000000000000000000000000000000000000000000000000000000000000161461053b57604051634ca8886760e01b815260040160405180910390fd5b565b6000805b6000548110156105a4576000818154811061055e5761055e61087e565b6000918252602090912001546001600160a01b0316610584610100860160e087016107f6565b6001600160a01b03160361059c576001915050610445565b600101610541565b5060009392505050565b60008072184f03e93ff9f4daa797ed6e38ed64bf6a1f0160401b83106105ed5772184f03e93ff9f4daa797ed6e38ed64bf6a1f0160401b830492506040015b6d04ee2d6d415b85acef81000000008310610619576d04ee2d6d415b85acef8100000000830492506020015b662386f26fc10000831061063757662386f26fc10000830492506010015b6305f5e100831061064f576305f5e100830492506008015b612710831061066357612710830492506004015b60648310610675576064830492506002015b600a83106104455760010192915050565b60006020828403121561069857600080fd5b5035919050565b60005b838110156106ba5781810151838201526020016106a2565b50506000910152565b60208152600082518060208401526106e281604085016020870161069f565b601f01601f19169190910160400192915050565b60008083601f84011261070857600080fd5b50813567ffffffffffffffff81111561072057600080fd5b6020830191508360208260051b850101111561073b57600080fd5b9250929050565b6000806000806040858703121561075857600080fd5b843567ffffffffffffffff81111561076f57600080fd5b61077b878288016106f6565b909550935050602085013567ffffffffffffffff81111561079b57600080fd5b6107a7878288016106f6565b95989497509550505050565b6000602082840312156107c557600080fd5b813567ffffffffffffffff8111156107dc57600080fd5b820161014081850312156107ef57600080fd5b9392505050565b60006020828403121561080857600080fd5b81356001600160a01b03811681146107ef57600080fd5b6000845161083181846020890161069f565b601760f91b908301908152845161084f81600184016020890161069f565b601760f91b60019290910191820152835161087181600284016020880161069f565b0160020195945050505050565b634e487b7160e01b600052603260045260246000fd5b6000823561013e198336030181126108ab57600080fd5b9190910192915050565b634e487b7160e01b600052604160045260246000fdfea26469706673582212208491bd651f3523f4dac869ab345c1fa68ad05cf5a0a3ad6048d204bdf721abe664736f6c634300081a0033",
  "devdoc": {
    "kind": "dev",
    "methods": {
      "attest((bytes32,bytes32,uint64,uint64,uint64,bytes32,address,address,bool,bytes))": {
        "params": {
          "attestation": "The new attestation."
        },
        "returns": {
          "_0": "Whether the attestation is valid."
        }
      },
      "isPayable()": {
        "returns": {
          "_0": "Whether the resolver supports ETH transfers."
        }
      },
      "multiAttest((bytes32,bytes32,uint64,uint64,uint64,bytes32,address,address,bool,bytes)[],uint256[])": {
        "params": {
          "attestations": "The new attestations.",
          "values": "Explicit ETH amounts which were sent with each attestation."
        },
        "returns": {
          "_0": "Whether all the attestations are valid."
        }
      },
      "multiRevoke((bytes32,bytes32,uint64,uint64,uint64,bytes32,address,address,bool,bytes)[],uint256[])": {
        "params": {
          "attestations": "The existing attestations to be revoked.",
          "values": "Explicit ETH amounts which were sent with each revocation."
        },
        "returns": {
          "_0": "Whether the attestations can be revoked."
        }
      },
      "revoke((bytes32,bytes32,uint64,uint64,uint64,bytes32,address,address,bool,bytes))": {
        "params": {
          "attestation": "The existing attestation to be revoked."
        },
        "returns": {
          "_0": "Whether the attestation can be revoked."
        }
      },
      "version()": {
        "returns": {
          "_0": "Semver contract version as a string."
        }
      }
    },
    "version": 1
  },
  "userdoc": {
    "kind": "user",
    "methods": {
      "attest((bytes32,bytes32,uint64,uint64,uint64,bytes32,address,address,bool,bytes))": {
        "notice": "Processes an attestation and verifies whether it's valid."
      },
      "isPayable()": {
        "notice": "Checks if the resolver can be sent ETH."
      },
      "multiAttest((bytes32,bytes32,uint64,uint64,uint64,bytes32,address,address,bool,bytes)[],uint256[])": {
        "notice": "Processes multiple attestations and verifies whether they are valid."
      },
      "multiRevoke((bytes32,bytes32,uint64,uint64,uint64,bytes32,address,address,bool,bytes)[],uint256[])": {
        "notice": "Processes revocation of multiple attestation and verifies they can be revoked."
      },
      "revoke((bytes32,bytes32,uint64,uint64,uint64,bytes32,address,address,bool,bytes))": {
        "notice": "Processes an attestation revocation and verifies if it can be revoked."
      },
      "version()": {
        "notice": "Returns the full semver contract version."
      }
    },
    "version": 1
  },
  "storageLayout": {
    "storage": [
      {
        "astId": 4989,
        "contract": "contracts/EAS/attester_resolvers/OwnershipVerifierAttestationResolver.sol:OwnershipVerifierAttestationResolver",
        "label": "targetAttesters",
        "offset": 0,
        "slot": "0",
        "type": "t_array(t_address)dyn_storage"
      }
    ],
    "types": {
      "t_address": {
        "encoding": "inplace",
        "label": "address",
        "numberOfBytes": "20"
      },
      "t_array(t_address)dyn_storage": {
        "base": "t_address",
        "encoding": "dynamic_array",
        "label": "address[]",
        "numberOfBytes": "32"
      }
    }
  }
}