{
  "address": "0x15B6914b88db674D0ED487F0ACE909aBe2278A13",
  "abi": [
    {
      "inputs": [
        {
          "internalType": "address",
          "name": "defaultAdmin",
          "type": "address"
        },
        {
          "internalType": "address",
          "name": "pauser",
          "type": "address"
        },
        {
          "internalType": "address",
          "name": "minter",
          "type": "address"
        },
        {
          "internalType": "address",
          "name": "easContractAddress",
          "type": "address"
        },
        {
          "internalType": "address",
          "name": "ccipRouterAddress",
          "type": "address"
        },
        {
          "internalType": "uint64",
          "name": "currentChainSelector",
          "type": "uint64"
        }
      ],
      "stateMutability": "nonpayable",
      "type": "constructor"
    },
    {
      "inputs": [],
      "name": "AccessControlBadConfirmation",
      "type": "error"
    },
    {
      "inputs": [
        {
          "internalType": "address",
          "name": "account",
          "type": "address"
        },
        {
          "internalType": "bytes32",
          "name": "neededRole",
          "type": "bytes32"
        }
      ],
      "name": "AccessControlUnauthorizedAccount",
      "type": "error"
    },
    {
      "inputs": [
        {
          "internalType": "address",
          "name": "sender",
          "type": "address"
        },
        {
          "internalType": "uint256",
          "name": "balance",
          "type": "uint256"
        },
        {
          "internalType": "uint256",
          "name": "needed",
          "type": "uint256"
        },
        {
          "internalType": "uint256",
          "name": "tokenId",
          "type": "uint256"
        }
      ],
      "name": "ERC1155InsufficientBalance",
      "type": "error"
    },
    {
      "inputs": [
        {
          "internalType": "address",
          "name": "approver",
          "type": "address"
        }
      ],
      "name": "ERC1155InvalidApprover",
      "type": "error"
    },
    {
      "inputs": [
        {
          "internalType": "uint256",
          "name": "idsLength",
          "type": "uint256"
        },
        {
          "internalType": "uint256",
          "name": "valuesLength",
          "type": "uint256"
        }
      ],
      "name": "ERC1155InvalidArrayLength",
      "type": "error"
    },
    {
      "inputs": [
        {
          "internalType": "address",
          "name": "operator",
          "type": "address"
        }
      ],
      "name": "ERC1155InvalidOperator",
      "type": "error"
    },
    {
      "inputs": [
        {
          "internalType": "address",
          "name": "receiver",
          "type": "address"
        }
      ],
      "name": "ERC1155InvalidReceiver",
      "type": "error"
    },
    {
      "inputs": [
        {
          "internalType": "address",
          "name": "sender",
          "type": "address"
        }
      ],
      "name": "ERC1155InvalidSender",
      "type": "error"
    },
    {
      "inputs": [
        {
          "internalType": "address",
          "name": "operator",
          "type": "address"
        },
        {
          "internalType": "address",
          "name": "owner",
          "type": "address"
        }
      ],
      "name": "ERC1155MissingApprovalForAll",
      "type": "error"
    },
    {
      "inputs": [],
      "name": "EnforcedPause",
      "type": "error"
    },
    {
      "inputs": [],
      "name": "ExpectedPause",
      "type": "error"
    },
    {
      "inputs": [],
      "name": "LinkReal__AppraisalHasNotBeenSet",
      "type": "error"
    },
    {
      "inputs": [],
      "name": "LinkReal__AttestationOrCollateralRequired",
      "type": "error"
    },
    {
      "inputs": [
        {
          "internalType": "uint64",
          "name": "chainSelector",
          "type": "uint64"
        }
      ],
      "name": "LinkReal__ChainNotEnabled",
      "type": "error"
    },
    {
      "inputs": [],
      "name": "LinkReal__InvalidGuarantor",
      "type": "error"
    },
    {
      "inputs": [],
      "name": "LinkReal__InvalidGuarantorAttestation",
      "type": "error"
    },
    {
      "inputs": [],
      "name": "LinkReal__InvalidOwnershipVerifierAttestation",
      "type": "error"
    },
    {
      "inputs": [
        {
          "internalType": "address",
          "name": "router",
          "type": "address"
        }
      ],
      "name": "LinkReal__InvalidRouter",
      "type": "error"
    },
    {
      "inputs": [
        {
          "internalType": "uint256",
          "name": "currentBalance",
          "type": "uint256"
        },
        {
          "internalType": "uint256",
          "name": "calculatedFees",
          "type": "uint256"
        }
      ],
      "name": "LinkReal__NotEnoughBalanceForFees",
      "type": "error"
    },
    {
      "inputs": [
        {
          "internalType": "uint64",
          "name": "chainSelector",
          "type": "uint64"
        }
      ],
      "name": "LinkReal__OperationNotAllowedOnCurrentChain",
      "type": "error"
    },
    {
      "inputs": [
        {
          "internalType": "address",
          "name": "sender",
          "type": "address"
        }
      ],
      "name": "LinkReal__SenderNotEnabled",
      "type": "error"
    },
    {
      "inputs": [],
      "name": "ReentrancyGuardReentrantCall",
      "type": "error"
    },
    {
      "anonymous": false,
      "inputs": [
        {
          "indexed": true,
          "internalType": "address",
          "name": "account",
          "type": "address"
        },
        {
          "indexed": true,
          "internalType": "address",
          "name": "operator",
          "type": "address"
        },
        {
          "indexed": false,
          "internalType": "bool",
          "name": "approved",
          "type": "bool"
        }
      ],
      "name": "ApprovalForAll",
      "type": "event"
    },
    {
      "anonymous": false,
      "inputs": [
        {
          "indexed": false,
          "internalType": "uint64",
          "name": "chainSelector",
          "type": "uint64"
        }
      ],
      "name": "ChainDisabled",
      "type": "event"
    },
    {
      "anonymous": false,
      "inputs": [
        {
          "indexed": false,
          "internalType": "uint64",
          "name": "chainSelector",
          "type": "uint64"
        },
        {
          "indexed": false,
          "internalType": "address",
          "name": "xNftAddress",
          "type": "address"
        },
        {
          "indexed": false,
          "internalType": "bytes",
          "name": "ccipExtraArgs",
          "type": "bytes"
        }
      ],
      "name": "ChainEnabled",
      "type": "event"
    },
    {
      "anonymous": false,
      "inputs": [
        {
          "indexed": false,
          "internalType": "address",
          "name": "from",
          "type": "address"
        },
        {
          "indexed": false,
          "internalType": "address",
          "name": "to",
          "type": "address"
        },
        {
          "indexed": false,
          "internalType": "uint256",
          "name": "tokenId",
          "type": "uint256"
        },
        {
          "indexed": false,
          "internalType": "uint64",
          "name": "sourceChainSelector",
          "type": "uint64"
        },
        {
          "indexed": false,
          "internalType": "uint64",
          "name": "destinationChainSelector",
          "type": "uint64"
        }
      ],
      "name": "CrossChainReceived",
      "type": "event"
    },
    {
      "anonymous": false,
      "inputs": [
        {
          "indexed": false,
          "internalType": "address",
          "name": "from",
          "type": "address"
        },
        {
          "indexed": false,
          "internalType": "address",
          "name": "to",
          "type": "address"
        },
        {
          "indexed": false,
          "internalType": "uint256",
          "name": "tokenId",
          "type": "uint256"
        },
        {
          "indexed": false,
          "internalType": "uint64",
          "name": "sourceChainSelector",
          "type": "uint64"
        },
        {
          "indexed": false,
          "internalType": "uint64",
          "name": "destinationChainSelector",
          "type": "uint64"
        }
      ],
      "name": "CrossChainSent",
      "type": "event"
    },
    {
      "anonymous": false,
      "inputs": [
        {
          "indexed": false,
          "internalType": "address",
          "name": "account",
          "type": "address"
        }
      ],
      "name": "Paused",
      "type": "event"
    },
    {
      "anonymous": false,
      "inputs": [
        {
          "indexed": true,
          "internalType": "bytes32",
          "name": "role",
          "type": "bytes32"
        },
        {
          "indexed": true,
          "internalType": "bytes32",
          "name": "previousAdminRole",
          "type": "bytes32"
        },
        {
          "indexed": true,
          "internalType": "bytes32",
          "name": "newAdminRole",
          "type": "bytes32"
        }
      ],
      "name": "RoleAdminChanged",
      "type": "event"
    },
    {
      "anonymous": false,
      "inputs": [
        {
          "indexed": true,
          "internalType": "bytes32",
          "name": "role",
          "type": "bytes32"
        },
        {
          "indexed": true,
          "internalType": "address",
          "name": "account",
          "type": "address"
        },
        {
          "indexed": true,
          "internalType": "address",
          "name": "sender",
          "type": "address"
        }
      ],
      "name": "RoleGranted",
      "type": "event"
    },
    {
      "anonymous": false,
      "inputs": [
        {
          "indexed": true,
          "internalType": "bytes32",
          "name": "role",
          "type": "bytes32"
        },
        {
          "indexed": true,
          "internalType": "address",
          "name": "account",
          "type": "address"
        },
        {
          "indexed": true,
          "internalType": "address",
          "name": "sender",
          "type": "address"
        }
      ],
      "name": "RoleRevoked",
      "type": "event"
    },
    {
      "anonymous": false,
      "inputs": [
        {
          "indexed": true,
          "internalType": "address",
          "name": "operator",
          "type": "address"
        },
        {
          "indexed": true,
          "internalType": "address",
          "name": "from",
          "type": "address"
        },
        {
          "indexed": true,
          "internalType": "address",
          "name": "to",
          "type": "address"
        },
        {
          "indexed": false,
          "internalType": "uint256[]",
          "name": "ids",
          "type": "uint256[]"
        },
        {
          "indexed": false,
          "internalType": "uint256[]",
          "name": "values",
          "type": "uint256[]"
        }
      ],
      "name": "TransferBatch",
      "type": "event"
    },
    {
      "anonymous": false,
      "inputs": [
        {
          "indexed": true,
          "internalType": "address",
          "name": "operator",
          "type": "address"
        },
        {
          "indexed": true,
          "internalType": "address",
          "name": "from",
          "type": "address"
        },
        {
          "indexed": true,
          "internalType": "address",
          "name": "to",
          "type": "address"
        },
        {
          "indexed": false,
          "internalType": "uint256",
          "name": "id",
          "type": "uint256"
        },
        {
          "indexed": false,
          "internalType": "uint256",
          "name": "value",
          "type": "uint256"
        }
      ],
      "name": "TransferSingle",
      "type": "event"
    },
    {
      "anonymous": false,
      "inputs": [
        {
          "indexed": false,
          "internalType": "string",
          "name": "value",
          "type": "string"
        },
        {
          "indexed": true,
          "internalType": "uint256",
          "name": "id",
          "type": "uint256"
        }
      ],
      "name": "URI",
      "type": "event"
    },
    {
      "anonymous": false,
      "inputs": [
        {
          "indexed": false,
          "internalType": "address",
          "name": "account",
          "type": "address"
        }
      ],
      "name": "Unpaused",
      "type": "event"
    },
    {
      "inputs": [],
      "name": "ASSET_APPRAISAL_UPDATER_ROLE",
      "outputs": [
        {
          "internalType": "bytes32",
          "name": "",
          "type": "bytes32"
        }
      ],
      "stateMutability": "view",
      "type": "function"
    },
    {
      "inputs": [],
      "name": "DEFAULT_ADMIN_ROLE",
      "outputs": [
        {
          "internalType": "bytes32",
          "name": "",
          "type": "bytes32"
        }
      ],
      "stateMutability": "view",
      "type": "function"
    },
    {
      "inputs": [],
      "name": "GUARANTOR_ROLE",
      "outputs": [
        {
          "internalType": "bytes32",
          "name": "",
          "type": "bytes32"
        }
      ],
      "stateMutability": "view",
      "type": "function"
    },
    {
      "inputs": [],
      "name": "MINTER_ROLE",
      "outputs": [
        {
          "internalType": "bytes32",
          "name": "",
          "type": "bytes32"
        }
      ],
      "stateMutability": "view",
      "type": "function"
    },
    {
      "inputs": [],
      "name": "OWNERSHIP_VERIFIER_ROLE",
      "outputs": [
        {
          "internalType": "bytes32",
          "name": "",
          "type": "bytes32"
        }
      ],
      "stateMutability": "view",
      "type": "function"
    },
    {
      "inputs": [],
      "name": "PAUSER_ROLE",
      "outputs": [
        {
          "internalType": "bytes32",
          "name": "",
          "type": "bytes32"
        }
      ],
      "stateMutability": "view",
      "type": "function"
    },
    {
      "inputs": [],
      "name": "URI_SETTER_ROLE",
      "outputs": [
        {
          "internalType": "bytes32",
          "name": "",
          "type": "bytes32"
        }
      ],
      "stateMutability": "view",
      "type": "function"
    },
    {
      "inputs": [],
      "name": "allPropertyData",
      "outputs": [
        {
          "components": [
            {
              "internalType": "address",
              "name": "propertyOwner",
              "type": "address"
            },
            {
              "internalType": "uint256",
              "name": "propertyId",
              "type": "uint256"
            },
            {
              "internalType": "string",
              "name": "propertyAddress",
              "type": "string"
            },
            {
              "internalType": "uint256",
              "name": "propertyListValue",
              "type": "uint256"
            },
            {
              "internalType": "uint256",
              "name": "propertyValueAppraisal",
              "type": "uint256"
            },
            {
              "internalType": "uint256",
              "name": "propertyFractionsCount",
              "type": "uint256"
            },
            {
              "internalType": "address",
              "name": "propertyOwnershipVerifier",
              "type": "address"
            },
            {
              "internalType": "address",
              "name": "propertyGuarantor",
              "type": "address"
            },
            {
              "internalType": "bytes32",
              "name": "propertyOwnerShipVerifierAttestationUID",
              "type": "bytes32"
            },
            {
              "internalType": "bytes32",
              "name": "propertyGuarantorAttestationUID",
              "type": "bytes32"
            },
            {
              "internalType": "uint256",
              "name": "propertyCollateralAmount",
              "type": "uint256"
            },
            {
              "internalType": "bytes32",
              "name": "propertyOwnerTOSAttastationUID",
              "type": "bytes32"
            },
            {
              "components": [
                {
                  "internalType": "string",
                  "name": "propertyImageURL",
                  "type": "string"
                },
                {
                  "internalType": "string",
                  "name": "description",
                  "type": "string"
                }
              ],
              "internalType": "struct RealEstateTokenRegistry.propertyMetadata",
              "name": "metadata",
              "type": "tuple"
            },
            {
              "internalType": "bool",
              "name": "isListed",
              "type": "bool"
            }
          ],
          "internalType": "struct RealEstateTokenRegistry.PropertyData[]",
          "name": "",
          "type": "tuple[]"
        }
      ],
      "stateMutability": "view",
      "type": "function"
    },
    {
      "inputs": [
        {
          "internalType": "uint256",
          "name": "",
          "type": "uint256"
        }
      ],
      "name": "allPropertyDataArray",
      "outputs": [
        {
          "internalType": "address",
          "name": "propertyOwner",
          "type": "address"
        },
        {
          "internalType": "uint256",
          "name": "propertyId",
          "type": "uint256"
        },
        {
          "internalType": "string",
          "name": "propertyAddress",
          "type": "string"
        },
        {
          "internalType": "uint256",
          "name": "propertyListValue",
          "type": "uint256"
        },
        {
          "internalType": "uint256",
          "name": "propertyValueAppraisal",
          "type": "uint256"
        },
        {
          "internalType": "uint256",
          "name": "propertyFractionsCount",
          "type": "uint256"
        },
        {
          "internalType": "address",
          "name": "propertyOwnershipVerifier",
          "type": "address"
        },
        {
          "internalType": "address",
          "name": "propertyGuarantor",
          "type": "address"
        },
        {
          "internalType": "bytes32",
          "name": "propertyOwnerShipVerifierAttestationUID",
          "type": "bytes32"
        },
        {
          "internalType": "bytes32",
          "name": "propertyGuarantorAttestationUID",
          "type": "bytes32"
        },
        {
          "internalType": "uint256",
          "name": "propertyCollateralAmount",
          "type": "uint256"
        },
        {
          "internalType": "bytes32",
          "name": "propertyOwnerTOSAttastationUID",
          "type": "bytes32"
        },
        {
          "components": [
            {
              "internalType": "string",
              "name": "propertyImageURL",
              "type": "string"
            },
            {
              "internalType": "string",
              "name": "description",
              "type": "string"
            }
          ],
          "internalType": "struct RealEstateTokenRegistry.propertyMetadata",
          "name": "metadata",
          "type": "tuple"
        },
        {
          "internalType": "bool",
          "name": "isListed",
          "type": "bool"
        }
      ],
      "stateMutability": "view",
      "type": "function"
    },
    {
      "inputs": [
        {
          "internalType": "address",
          "name": "account",
          "type": "address"
        },
        {
          "internalType": "uint256",
          "name": "id",
          "type": "uint256"
        }
      ],
      "name": "balanceOf",
      "outputs": [
        {
          "internalType": "uint256",
          "name": "",
          "type": "uint256"
        }
      ],
      "stateMutability": "view",
      "type": "function"
    },
    {
      "inputs": [
        {
          "internalType": "address[]",
          "name": "accounts",
          "type": "address[]"
        },
        {
          "internalType": "uint256[]",
          "name": "ids",
          "type": "uint256[]"
        }
      ],
      "name": "balanceOfBatch",
      "outputs": [
        {
          "internalType": "uint256[]",
          "name": "",
          "type": "uint256[]"
        }
      ],
      "stateMutability": "view",
      "type": "function"
    },
    {
      "inputs": [
        {
          "internalType": "address",
          "name": "account",
          "type": "address"
        },
        {
          "internalType": "uint256",
          "name": "id",
          "type": "uint256"
        },
        {
          "internalType": "uint256",
          "name": "value",
          "type": "uint256"
        }
      ],
      "name": "burn",
      "outputs": [],
      "stateMutability": "nonpayable",
      "type": "function"
    },
    {
      "inputs": [
        {
          "internalType": "address",
          "name": "account",
          "type": "address"
        },
        {
          "internalType": "uint256[]",
          "name": "ids",
          "type": "uint256[]"
        },
        {
          "internalType": "uint256[]",
          "name": "values",
          "type": "uint256[]"
        }
      ],
      "name": "burnBatch",
      "outputs": [],
      "stateMutability": "nonpayable",
      "type": "function"
    },
    {
      "inputs": [
        {
          "components": [
            {
              "internalType": "bytes32",
              "name": "messageId",
              "type": "bytes32"
            },
            {
              "internalType": "uint64",
              "name": "sourceChainSelector",
              "type": "uint64"
            },
            {
              "internalType": "bytes",
              "name": "sender",
              "type": "bytes"
            },
            {
              "internalType": "bytes",
              "name": "data",
              "type": "bytes"
            },
            {
              "components": [
                {
                  "internalType": "address",
                  "name": "token",
                  "type": "address"
                },
                {
                  "internalType": "uint256",
                  "name": "amount",
                  "type": "uint256"
                }
              ],
              "internalType": "struct Client.EVMTokenAmount[]",
              "name": "destTokenAmounts",
              "type": "tuple[]"
            }
          ],
          "internalType": "struct Client.Any2EVMMessage",
          "name": "message",
          "type": "tuple"
        }
      ],
      "name": "ccipReceive",
      "outputs": [],
      "stateMutability": "nonpayable",
      "type": "function"
    },
    {
      "inputs": [
        {
          "internalType": "address",
          "name": "to",
          "type": "address"
        },
        {
          "internalType": "uint256",
          "name": "tokenId",
          "type": "uint256"
        },
        {
          "internalType": "uint256",
          "name": "amount",
          "type": "uint256"
        },
        {
          "internalType": "uint64",
          "name": "destinationChainSelector",
          "type": "uint64"
        }
      ],
      "name": "crossChainTransferFrom",
      "outputs": [
        {
          "internalType": "bytes32",
          "name": "messageId",
          "type": "bytes32"
        }
      ],
      "stateMutability": "nonpayable",
      "type": "function"
    },
    {
      "inputs": [
        {
          "internalType": "address",
          "name": "",
          "type": "address"
        }
      ],
      "name": "currentPropertyIdCount",
      "outputs": [
        {
          "internalType": "uint256",
          "name": "",
          "type": "uint256"
        }
      ],
      "stateMutability": "view",
      "type": "function"
    },
    {
      "inputs": [
        {
          "internalType": "uint64",
          "name": "chainSelector",
          "type": "uint64"
        }
      ],
      "name": "disableChain",
      "outputs": [],
      "stateMutability": "nonpayable",
      "type": "function"
    },
    {
      "inputs": [],
      "name": "easContractInstance",
      "outputs": [
        {
          "internalType": "contract IEAS",
          "name": "",
          "type": "address"
        }
      ],
      "stateMutability": "view",
      "type": "function"
    },
    {
      "inputs": [
        {
          "internalType": "uint64",
          "name": "chainSelector",
          "type": "uint64"
        },
        {
          "internalType": "address",
          "name": "xNftAddress",
          "type": "address"
        },
        {
          "internalType": "bytes",
          "name": "ccipExtraArgs",
          "type": "bytes"
        }
      ],
      "name": "enableChain",
      "outputs": [],
      "stateMutability": "nonpayable",
      "type": "function"
    },
    {
      "inputs": [
        {
          "internalType": "uint256",
          "name": "id",
          "type": "uint256"
        }
      ],
      "name": "exists",
      "outputs": [
        {
          "internalType": "bool",
          "name": "",
          "type": "bool"
        }
      ],
      "stateMutability": "view",
      "type": "function"
    },
    {
      "inputs": [
        {
          "internalType": "bytes32",
          "name": "role",
          "type": "bytes32"
        }
      ],
      "name": "getRoleAdmin",
      "outputs": [
        {
          "internalType": "bytes32",
          "name": "",
          "type": "bytes32"
        }
      ],
      "stateMutability": "view",
      "type": "function"
    },
    {
      "inputs": [
        {
          "internalType": "bytes32",
          "name": "role",
          "type": "bytes32"
        },
        {
          "internalType": "address",
          "name": "account",
          "type": "address"
        }
      ],
      "name": "grantRole",
      "outputs": [],
      "stateMutability": "nonpayable",
      "type": "function"
    },
    {
      "inputs": [
        {
          "internalType": "bytes32",
          "name": "role",
          "type": "bytes32"
        },
        {
          "internalType": "address",
          "name": "account",
          "type": "address"
        }
      ],
      "name": "hasRole",
      "outputs": [
        {
          "internalType": "bool",
          "name": "",
          "type": "bool"
        }
      ],
      "stateMutability": "view",
      "type": "function"
    },
    {
      "inputs": [
        {
          "internalType": "address",
          "name": "account",
          "type": "address"
        },
        {
          "internalType": "address",
          "name": "operator",
          "type": "address"
        }
      ],
      "name": "isApprovedForAll",
      "outputs": [
        {
          "internalType": "bool",
          "name": "",
          "type": "bool"
        }
      ],
      "stateMutability": "view",
      "type": "function"
    },
    {
      "inputs": [
        {
          "internalType": "address",
          "name": "propertyOwnerAddress",
          "type": "address"
        },
        {
          "internalType": "uint256",
          "name": "propertyId",
          "type": "uint256"
        },
        {
          "internalType": "uint256",
          "name": "assetShares",
          "type": "uint256"
        },
        {
          "internalType": "bool",
          "name": "isListed",
          "type": "bool"
        },
        {
          "internalType": "bytes",
          "name": "data",
          "type": "bytes"
        }
      ],
      "name": "issueRWA",
      "outputs": [],
      "stateMutability": "nonpayable",
      "type": "function"
    },
    {
      "inputs": [
        {
          "internalType": "address",
          "name": "propertyOwnerAddress",
          "type": "address"
        },
        {
          "internalType": "uint256[]",
          "name": "propertyIds",
          "type": "uint256[]"
        },
        {
          "internalType": "uint256[]",
          "name": "assetShareAmounts",
          "type": "uint256[]"
        },
        {
          "internalType": "bool[]",
          "name": "isListeds",
          "type": "bool[]"
        },
        {
          "internalType": "bytes",
          "name": "data",
          "type": "bytes"
        }
      ],
      "name": "issueRWABatch",
      "outputs": [],
      "stateMutability": "nonpayable",
      "type": "function"
    },
    {
      "inputs": [],
      "name": "pause",
      "outputs": [],
      "stateMutability": "nonpayable",
      "type": "function"
    },
    {
      "inputs": [],
      "name": "paused",
      "outputs": [
        {
          "internalType": "bool",
          "name": "",
          "type": "bool"
        }
      ],
      "stateMutability": "view",
      "type": "function"
    },
    {
      "inputs": [
        {
          "internalType": "address",
          "name": "propertyOwner",
          "type": "address"
        },
        {
          "internalType": "uint256",
          "name": "propertyId",
          "type": "uint256"
        }
      ],
      "name": "propertyData",
      "outputs": [
        {
          "components": [
            {
              "internalType": "address",
              "name": "propertyOwner",
              "type": "address"
            },
            {
              "internalType": "uint256",
              "name": "propertyId",
              "type": "uint256"
            },
            {
              "internalType": "string",
              "name": "propertyAddress",
              "type": "string"
            },
            {
              "internalType": "uint256",
              "name": "propertyListValue",
              "type": "uint256"
            },
            {
              "internalType": "uint256",
              "name": "propertyValueAppraisal",
              "type": "uint256"
            },
            {
              "internalType": "uint256",
              "name": "propertyFractionsCount",
              "type": "uint256"
            },
            {
              "internalType": "address",
              "name": "propertyOwnershipVerifier",
              "type": "address"
            },
            {
              "internalType": "address",
              "name": "propertyGuarantor",
              "type": "address"
            },
            {
              "internalType": "bytes32",
              "name": "propertyOwnerShipVerifierAttestationUID",
              "type": "bytes32"
            },
            {
              "internalType": "bytes32",
              "name": "propertyGuarantorAttestationUID",
              "type": "bytes32"
            },
            {
              "internalType": "uint256",
              "name": "propertyCollateralAmount",
              "type": "uint256"
            },
            {
              "internalType": "bytes32",
              "name": "propertyOwnerTOSAttastationUID",
              "type": "bytes32"
            },
            {
              "components": [
                {
                  "internalType": "string",
                  "name": "propertyImageURL",
                  "type": "string"
                },
                {
                  "internalType": "string",
                  "name": "description",
                  "type": "string"
                }
              ],
              "internalType": "struct RealEstateTokenRegistry.propertyMetadata",
              "name": "metadata",
              "type": "tuple"
            },
            {
              "internalType": "bool",
              "name": "isListed",
              "type": "bool"
            }
          ],
          "internalType": "struct RealEstateTokenRegistry.PropertyData",
          "name": "",
          "type": "tuple"
        }
      ],
      "stateMutability": "view",
      "type": "function"
    },
    {
      "inputs": [
        {
          "internalType": "address",
          "name": "owner",
          "type": "address"
        }
      ],
      "name": "propertyDataByOwner",
      "outputs": [
        {
          "components": [
            {
              "internalType": "address",
              "name": "propertyOwner",
              "type": "address"
            },
            {
              "internalType": "uint256",
              "name": "propertyId",
              "type": "uint256"
            },
            {
              "internalType": "string",
              "name": "propertyAddress",
              "type": "string"
            },
            {
              "internalType": "uint256",
              "name": "propertyListValue",
              "type": "uint256"
            },
            {
              "internalType": "uint256",
              "name": "propertyValueAppraisal",
              "type": "uint256"
            },
            {
              "internalType": "uint256",
              "name": "propertyFractionsCount",
              "type": "uint256"
            },
            {
              "internalType": "address",
              "name": "propertyOwnershipVerifier",
              "type": "address"
            },
            {
              "internalType": "address",
              "name": "propertyGuarantor",
              "type": "address"
            },
            {
              "internalType": "bytes32",
              "name": "propertyOwnerShipVerifierAttestationUID",
              "type": "bytes32"
            },
            {
              "internalType": "bytes32",
              "name": "propertyGuarantorAttestationUID",
              "type": "bytes32"
            },
            {
              "internalType": "uint256",
              "name": "propertyCollateralAmount",
              "type": "uint256"
            },
            {
              "internalType": "bytes32",
              "name": "propertyOwnerTOSAttastationUID",
              "type": "bytes32"
            },
            {
              "components": [
                {
                  "internalType": "string",
                  "name": "propertyImageURL",
                  "type": "string"
                },
                {
                  "internalType": "string",
                  "name": "description",
                  "type": "string"
                }
              ],
              "internalType": "struct RealEstateTokenRegistry.propertyMetadata",
              "name": "metadata",
              "type": "tuple"
            },
            {
              "internalType": "bool",
              "name": "isListed",
              "type": "bool"
            }
          ],
          "internalType": "struct RealEstateTokenRegistry.PropertyData[]",
          "name": "",
          "type": "tuple[]"
        }
      ],
      "stateMutability": "view",
      "type": "function"
    },
    {
      "inputs": [
        {
          "internalType": "uint256",
          "name": "propertyId",
          "type": "uint256"
        },
        {
          "internalType": "address",
          "name": "propertyOwnerAddress",
          "type": "address"
        },
        {
          "internalType": "bytes32",
          "name": "attestationUID",
          "type": "bytes32"
        }
      ],
      "name": "provideGurantee",
      "outputs": [],
      "stateMutability": "payable",
      "type": "function"
    },
    {
      "inputs": [
        {
          "internalType": "uint256",
          "name": "propertyId",
          "type": "uint256"
        },
        {
          "internalType": "address",
          "name": "propertyOwnerAddress",
          "type": "address"
        },
        {
          "internalType": "bytes32",
          "name": "attestationUID",
          "type": "bytes32"
        }
      ],
      "name": "provideOwnershipVerification",
      "outputs": [],
      "stateMutability": "nonpayable",
      "type": "function"
    },
    {
      "inputs": [
        {
          "internalType": "address",
          "name": "lostWallet",
          "type": "address"
        },
        {
          "internalType": "address",
          "name": "newWallet",
          "type": "address"
        },
        {
          "internalType": "uint256",
          "name": "propertyId",
          "type": "uint256"
        },
        {
          "internalType": "uint256",
          "name": "assetShares",
          "type": "uint256"
        }
      ],
      "name": "recoverAssetsTest",
      "outputs": [],
      "stateMutability": "nonpayable",
      "type": "function"
    },
    {
      "inputs": [
        {
          "internalType": "bytes32",
          "name": "role",
          "type": "bytes32"
        },
        {
          "internalType": "address",
          "name": "callerConfirmation",
          "type": "address"
        }
      ],
      "name": "renounceRole",
      "outputs": [],
      "stateMutability": "nonpayable",
      "type": "function"
    },
    {
      "inputs": [
        {
          "internalType": "bytes32",
          "name": "role",
          "type": "bytes32"
        },
        {
          "internalType": "address",
          "name": "account",
          "type": "address"
        }
      ],
      "name": "revokeRole",
      "outputs": [],
      "stateMutability": "nonpayable",
      "type": "function"
    },
    {
      "inputs": [
        {
          "internalType": "uint64",
          "name": "destChainSelector",
          "type": "uint64"
        }
      ],
      "name": "s_chains",
      "outputs": [
        {
          "internalType": "address",
          "name": "xTokenAddress",
          "type": "address"
        },
        {
          "internalType": "bytes",
          "name": "ccipExtraArgsBytes",
          "type": "bytes"
        }
      ],
      "stateMutability": "view",
      "type": "function"
    },
    {
      "inputs": [
        {
          "internalType": "address",
          "name": "from",
          "type": "address"
        },
        {
          "internalType": "address",
          "name": "to",
          "type": "address"
        },
        {
          "internalType": "uint256[]",
          "name": "ids",
          "type": "uint256[]"
        },
        {
          "internalType": "uint256[]",
          "name": "values",
          "type": "uint256[]"
        },
        {
          "internalType": "bytes",
          "name": "data",
          "type": "bytes"
        }
      ],
      "name": "safeBatchTransferFrom",
      "outputs": [],
      "stateMutability": "nonpayable",
      "type": "function"
    },
    {
      "inputs": [
        {
          "internalType": "address",
          "name": "from",
          "type": "address"
        },
        {
          "internalType": "address",
          "name": "to",
          "type": "address"
        },
        {
          "internalType": "uint256",
          "name": "id",
          "type": "uint256"
        },
        {
          "internalType": "uint256",
          "name": "value",
          "type": "uint256"
        },
        {
          "internalType": "bytes",
          "name": "data",
          "type": "bytes"
        }
      ],
      "name": "safeTransferFrom",
      "outputs": [],
      "stateMutability": "nonpayable",
      "type": "function"
    },
    {
      "inputs": [
        {
          "internalType": "address",
          "name": "operator",
          "type": "address"
        },
        {
          "internalType": "bool",
          "name": "approved",
          "type": "bool"
        }
      ],
      "name": "setApprovalForAll",
      "outputs": [],
      "stateMutability": "nonpayable",
      "type": "function"
    },
    {
      "inputs": [
        {
          "internalType": "string",
          "name": "newuri",
          "type": "string"
        }
      ],
      "name": "setURI",
      "outputs": [],
      "stateMutability": "nonpayable",
      "type": "function"
    },
    {
      "inputs": [
        {
          "internalType": "address",
          "name": "propertyOwner",
          "type": "address"
        },
        {
          "internalType": "string",
          "name": "propertyAddress",
          "type": "string"
        },
        {
          "internalType": "uint256",
          "name": "propertyListValue",
          "type": "uint256"
        },
        {
          "internalType": "uint256",
          "name": "propertyFractionsCount",
          "type": "uint256"
        },
        {
          "internalType": "string",
          "name": "propertyImageURL",
          "type": "string"
        },
        {
          "internalType": "string",
          "name": "description",
          "type": "string"
        }
      ],
      "name": "submitUnlistedProperty",
      "outputs": [],
      "stateMutability": "nonpayable",
      "type": "function"
    },
    {
      "inputs": [
        {
          "internalType": "bytes4",
          "name": "interfaceId",
          "type": "bytes4"
        }
      ],
      "name": "supportsInterface",
      "outputs": [
        {
          "internalType": "bool",
          "name": "",
          "type": "bool"
        }
      ],
      "stateMutability": "view",
      "type": "function"
    },
    {
      "inputs": [],
      "name": "totalSupply",
      "outputs": [
        {
          "internalType": "uint256",
          "name": "",
          "type": "uint256"
        }
      ],
      "stateMutability": "view",
      "type": "function"
    },
    {
      "inputs": [
        {
          "internalType": "uint256",
          "name": "id",
          "type": "uint256"
        }
      ],
      "name": "totalSupply",
      "outputs": [
        {
          "internalType": "uint256",
          "name": "",
          "type": "uint256"
        }
      ],
      "stateMutability": "view",
      "type": "function"
    },
    {
      "inputs": [],
      "name": "unpause",
      "outputs": [],
      "stateMutability": "nonpayable",
      "type": "function"
    },
    {
      "inputs": [
        {
          "internalType": "address",
          "name": "propertyOwnerAddress",
          "type": "address"
        },
        {
          "internalType": "uint256",
          "name": "propertyId",
          "type": "uint256"
        },
        {
          "internalType": "uint256",
          "name": "newValue",
          "type": "uint256"
        }
      ],
      "name": "updateAssetAppraisal",
      "outputs": [],
      "stateMutability": "nonpayable",
      "type": "function"
    },
    {
      "inputs": [
        {
          "internalType": "uint256",
          "name": "",
          "type": "uint256"
        }
      ],
      "name": "uri",
      "outputs": [
        {
          "internalType": "string",
          "name": "",
          "type": "string"
        }
      ],
      "stateMutability": "view",
      "type": "function"
    }
  ],
  "transactionHash": "0x83341bda0d16c1446f248b16b77a6da2b5f682321032bf88bdcb51bf8d105245",
  "args": [
    "0x9BD348A8c28A95B256C0262d6Af33ad9912f6073",
    "0x9BD348A8c28A95B256C0262d6Af33ad9912f6073",
    "0x9BD348A8c28A95B256C0262d6Af33ad9912f6073",
    "0x2634Ae0c59F5b3D048632F6115AdceA90C471540",
    "0x2a9C5afB0d0e4BAb2BCdaE109EC4b0c4Be15a165",
    "3478487238524512106"
  ],
  "numDeployments": 1,
  "solcInputHash": "1d98e25b2899efcac4babf9eed3bc04a",
  "bytecode": "0x60c06040523480156200001157600080fd5b50604051620056d5380380620056d583398101604081905262000034916200021e565b6040805160208101909152600081526200004e816200013c565b506004805460ff1916905560016007556001600160a01b0382166200008d57604051637cb1cfd160e11b81526000600482015260240160405180910390fd5b6001600160a01b0382166080526001600160401b03811660a052620000b46000876200014e565b50620000e17f65d7a28e3265b37a6474929f336521b332c1681b933f6cb9f3376673440d862a866200014e565b506200010e7f9f2df0fed2c77648de5860a4cc508cd0818c85b8b8a1ab4ceeef8d981c8956a6856200014e565b5050600880546001600160a01b0319166001600160a01b039390931692909217909155506200042092505050565b60026200014a828262000354565b5050565b60008281526003602090815260408083206001600160a01b038516845290915281205460ff16620001f75760008381526003602090815260408083206001600160a01b03861684529091529020805460ff19166001179055620001ae3390565b6001600160a01b0316826001600160a01b0316847f2f8788117e7eff1d82e926ec794901d17c78024a50270940304540a733656f0d60405160405180910390a4506001620001fb565b5060005b92915050565b80516001600160a01b03811681146200021957600080fd5b919050565b60008060008060008060c087890312156200023857600080fd5b620002438762000201565b9550620002536020880162000201565b9450620002636040880162000201565b9350620002736060880162000201565b9250620002836080880162000201565b60a08801519092506001600160401b0381168114620002a157600080fd5b809150509295509295509295565b634e487b7160e01b600052604160045260246000fd5b600181811c90821680620002da57607f821691505b602082108103620002fb57634e487b7160e01b600052602260045260246000fd5b50919050565b601f8211156200034f57600081815260208120601f850160051c810160208610156200032a5750805b601f850160051c820191505b818110156200034b5782815560010162000336565b5050505b505050565b81516001600160401b03811115620003705762000370620002af565b6200038881620003818454620002c5565b8462000301565b602080601f831160018114620003c05760008415620003a75750858301515b600019600386901b1c1916600185901b1785556200034b565b600085815260208120601f198616915b82811015620003f157888601518255948401946001909101908401620003d0565b5085821015620004105787850151600019600388901b60f8161c191681555b5050505050600190811b01905550565b60805160a05161526c6200046960003960008181610f8201528181611022015281816115dc0152612670015260008181610e0e01528181610ede01526123a2015261526c6000f3fe6080604052600436106102875760003560e01c8063608ab2411161015a578063afb36d8a116100c1578063e953b2301161007a578063e953b23014610892578063e985e9c5146108ca578063ed03fcfc146108ea578063f242432a1461090a578063f5298aca1461092a578063f68f233b1461094a57600080fd5b8063afb36d8a14610789578063afdeaf15146107a9578063bd85b039146107dd578063d53913931461080a578063d547741f1461083e578063e63ab1e91461085e57600080fd5b80637f345710116101135780637f345710146106cb5780638456cb59146106ff57806385572ffb1461071457806391d1485414610734578063a217fddf14610754578063a22cb4651461076957600080fd5b8063608ab241146105f757806362ef3883146106175780636b20c45414610644578063730b7a6c1461066457806377ed106514610684578063782935d6146106b857600080fd5b80632f2ff15d116101fe5780634e1273f4116101b75780634e1273f4146104f95780634f558e7914610526578063525d559d146105555780635c871b2f1461058f5780635c975abb146105b15780635dc5ebdb146105c957600080fd5b80632f2ff15d1461044457806336568abe146104645780633ec2d35a146104845780633f4ba83a146104a457806341eade46146104b95780634de54caa146104d957600080fd5b80630ce639c4116102505780630ce639c41461035e5780630e89341c1461037e5780630f4b5794146103ab57806318160ddd146103df578063248a9ca3146103f45780632eb2c2d61461042457600080fd5b8062fdd58e1461028c57806301b5fa8f146102bf57806301ffc9a7146102df57806302fe53051461030f57806303daca9514610331575b600080fd5b34801561029857600080fd5b506102ac6102a7366004613d52565b61096a565b6040519081526020015b60405180910390f35b3480156102cb57600080fd5b506102ac6102da366004613d93565b610992565b3480156102eb57600080fd5b506102ff6102fa366004613df3565b610fd2565b60405190151581526020016102b6565b34801561031b57600080fd5b5061032f61032a366004613f26565b610fdd565b005b34801561033d57600080fd5b506102ac61034c366004613f5a565b600a6020526000908152604090205481565b34801561036a57600080fd5b5061032f610379366004613f77565b611014565b34801561038a57600080fd5b5061039e610399366004613fd8565b611122565b6040516102b69190614041565b3480156103b757600080fd5b506102ac7fd06d8e8124a5b16f1c83a761ecebf2ff499d3479b082621b3da1539d5a7e016681565b3480156103eb57600080fd5b506006546102ac565b34801561040057600080fd5b506102ac61040f366004613fd8565b60009081526003602052604090206001015490565b34801561043057600080fd5b5061032f61043f3660046140dd565b6111b6565b34801561045057600080fd5b5061032f61045f36600461418a565b61121d565b34801561047057600080fd5b5061032f61047f36600461418a565b611248565b34801561049057600080fd5b5061032f61049f3660046141ba565b611280565b3480156104b057600080fd5b5061032f611599565b3480156104c557600080fd5b5061032f6104d4366004614266565b6115ce565b3480156104e557600080fd5b5061032f6104f4366004614283565b6116ae565b34801561050557600080fd5b506105196105143660046142c9565b611705565b6040516102b691906143c5565b34801561053257600080fd5b506102ff610541366004613fd8565b600090815260056020526040902054151590565b34801561056157600080fd5b50610575610570366004613fd8565b6117d9565b6040516102b69e9d9c9b9a9998979695949392919061440f565b34801561059b57600080fd5b506105a4611a3a565b6040516102b691906145b2565b3480156105bd57600080fd5b5060045460ff166102ff565b3480156105d557600080fd5b506105e96105e4366004614266565b611d03565b6040516102b6929190614614565b34801561060357600080fd5b5061032f610612366004614638565b611db2565b34801561062357600080fd5b50610637610632366004613d52565b611e06565b6040516102b6919061466d565b34801561065057600080fd5b5061032f61065f366004614680565b612124565b34801561067057600080fd5b5061032f61067f3660046146eb565b612183565b34801561069057600080fd5b506102ac7f59646329c61c5d94892753ef41cd88158fe7a7302ebfce1612f9f9d0cad2643181565b61032f6106c63660046146eb565b612229565b3480156106d757600080fd5b506102ac7f7804d923f43a17d325d77e781528e0793b2edd9890ab45fc64efd7b4b427744c81565b34801561070b57600080fd5b5061032f612365565b34801561072057600080fd5b5061032f61072f366004614723565b612397565b34801561074057600080fd5b506102ff61074f36600461418a565b6126af565b34801561076057600080fd5b506102ac600081565b34801561077557600080fd5b5061032f610784366004614776565b6126da565b34801561079557600080fd5b5061032f6107a43660046147a4565b6126e5565b3480156107b557600080fd5b506102ac7f2d7a7544ecdf54eb35b6efa91f9c2c22f6bf39cb49dc786ed943755756b0830681565b3480156107e957600080fd5b506102ac6107f8366004613fd8565b60009081526005602052604090205490565b34801561081657600080fd5b506102ac7f9f2df0fed2c77648de5860a4cc508cd0818c85b8b8a1ab4ceeef8d981c8956a681565b34801561084a57600080fd5b5061032f61085936600461418a565b6127b7565b34801561086a57600080fd5b506102ac7f65d7a28e3265b37a6474929f336521b332c1681b933f6cb9f3376673440d862a81565b34801561089e57600080fd5b506008546108b2906001600160a01b031681565b6040516001600160a01b0390911681526020016102b6565b3480156108d657600080fd5b506102ff6108e53660046148b6565b6127dc565b3480156108f657600080fd5b506105a4610905366004613f5a565b61280a565b34801561091657600080fd5b5061032f6109253660046148e4565b612ae9565b34801561093657600080fd5b5061032f610945366004614638565b612b48565b34801561095657600080fd5b5061032f61096536600461494c565b612b7e565b6000818152602081815260408083206001600160a01b03861684529091529020545b92915050565b600061099c612d34565b6001600160401b03821660009081526009602052604090205482906001600160a01b03166109ed576040516333a970bd60e21b81526001600160401b03821660048201526024015b60405180910390fd5b336000818152600b60209081526040808320898452825280832081516101c08101835281546001600160a01b031681526001820154938101939093526002810180549192840191610a3d906149a8565b80601f0160208091040260200160405190810160405280929190818152602001828054610a69906149a8565b8015610ab65780601f10610a8b57610100808354040283529160200191610ab6565b820191906000526020600020905b815481529060010190602001808311610a9957829003601f168201915b50505091835250506003820154602082015260048201546040808301919091526005830154606083015260068301546001600160a01b03908116608084015260078401541660a0830152600883015460c0830152600983015460e0830152600a830154610100830152600b8301546101208301528051808201909152600c830180546101409093019282908290610b4c906149a8565b80601f0160208091040260200160405190810160405280929190818152602001828054610b78906149a8565b8015610bc55780601f10610b9a57610100808354040283529160200191610bc5565b820191906000526020600020905b815481529060010190602001808311610ba857829003601f168201915b50505050508152602001600182018054610bde906149a8565b80601f0160208091040260200160405190810160405280929190818152602001828054610c0a906149a8565b8015610c575780601f10610c2c57610100808354040283529160200191610c57565b820191906000526020600020905b815481529060010190602001808311610c3a57829003601f168201915b505050919092525050508152600e919091015460ff1615156020909101529050610c82828888612d5e565b6040805160a0810182526001600160401b03871660009081526009602052918220546001600160a01b031660c08201528060e081016040516020818303038152906040528152602001848b8b86604051602001610ce294939291906149e2565b60408051601f1981840301815291905281526020016000604051908082528060200260200182016040528015610d3e57816020015b6040805180820190915260008082526020820152815260200190600190039081610d175790505b50815260200160006001600160a01b0316815260200160096000896001600160401b03166001600160401b031681526020019081526020016000206001018054610d87906149a8565b80601f0160208091040260200160405190810160405280929190818152602001828054610db3906149a8565b8015610e005780601f10610dd557610100808354040283529160200191610e00565b820191906000526020600020905b815481529060010190602001808311610de357829003601f168201915b5050505050815250905060007f00000000000000000000000000000000000000000000000000000000000000006001600160a01b03166320487ded88846040518363ffffffff1660e01b8152600401610e5a929190614a1f565b602060405180830381865afa158015610e77573d6000803e3d6000fd5b505050506040513d601f19601f82011682018060405250810190610e9b9190614af8565b905047811115610ec75760405163f45e1ccd60e01b8152476004820152602481018290526044016109e4565b6040516396f4e9f960e01b81526001600160a01b037f000000000000000000000000000000000000000000000000000000000000000016906396f4e9f9908390610f17908b908790600401614a1f565b60206040518083038185885af1158015610f35573d6000803e3d6000fd5b50505050506040513d601f19601f82011682018060405250810190610f5a9190614af8565b95507fa9f07ae17940e1d4158dd439217c292ffc5cd591eb8533d395ee1d797f171c8e848b8b7f00000000000000000000000000000000000000000000000000000000000000008b604051610fb3959493929190614b11565b60405180910390a15050505050610fca6001600755565b949350505050565b600061098c82612dc6565b7f7804d923f43a17d325d77e781528e0793b2edd9890ab45fc64efd7b4b427744c61100781612deb565b61101082612df5565b5050565b600061101f81612deb565b837f00000000000000000000000000000000000000000000000000000000000000006001600160401b0316816001600160401b03160361107d5760405163150b624d60e31b81526001600160401b03821660048201526024016109e4565b6040805180820182526001600160a01b03868116825260208083018781526001600160401b038a1660009081526009909252939020825181546001600160a01b0319169216919091178155915190919060018201906110dc9082614b93565b509050507f59cc0b49d3359ac35e3872e99199469b6a1025c9a945cd9b6a411bffe337272d85858560405161111393929190614c52565b60405180910390a15050505050565b606060028054611131906149a8565b80601f016020809104026020016040519081016040528092919081815260200182805461115d906149a8565b80156111aa5780601f1061117f576101008083540402835291602001916111aa565b820191906000526020600020905b81548152906001019060200180831161118d57829003601f168201915b50505050509050919050565b336001600160a01b03861681148015906111d757506111d586826127dc565b155b156112085760405163711bec9160e11b81526001600160a01b038083166004830152871660248201526044016109e4565b6112158686868686612e01565b505050505050565b60008281526003602052604090206001015461123881612deb565b6112428383612e61565b50505050565b6001600160a01b03811633146112715760405163334bd91960e11b815260040160405180910390fd5b61127b8282612ef5565b505050565b6001600160a01b0386166000908152600a60205260408120546112a4906001614c9b565b604080516101c0810182526001600160a01b038a811680835260208084018681528486018d8152606086018d905260006080870181905260a087018d905260c0870181905260e087018190526101008701819052610120870181905261014087018190526101608701819052875180890189528c81528085018c90526101808801526101a08701819052938452600b835286842088855290925294909120835181546001600160a01b03191693169290921782559251600182015591519293509182919060028201906113779082614b93565b50606082015160038201556080820151600482015560a0820151600582015560c08201516006820180546001600160a01b039283166001600160a01b03199182161790915560e084015160078401805491909316911617905561010082015160088201556101208201516009820155610140820151600a820155610160820151600b8201556101808201518051600c83019081906114159082614b93565b506020820151600182019061142a9082614b93565b5050506101a09190910151600e909101805460ff19169115159190911790556001600160a01b038881166000908152600a60209081526040808320869055600c8252808320805460018181018355918552938390208651600f9095020180546001600160a01b03191694909516939093178455908401519183019190915582015182919060028201906114bd9082614b93565b50606082015160038201556080820151600482015560a0820151600582015560c08201516006820180546001600160a01b039283166001600160a01b03199182161790915560e084015160078401805491909316911617905561010082015160088201556101208201516009820155610140820151600a820155610160820151600b8201556101808201518051600c830190819061155b9082614b93565b50602082015160018201906115709082614b93565b5050506101a09190910151600e909101805460ff19169115159190911790555050505050505050565b7f65d7a28e3265b37a6474929f336521b332c1681b933f6cb9f3376673440d862a6115c381612deb565b6115cb612f62565b50565b60006115d981612deb565b817f00000000000000000000000000000000000000000000000000000000000000006001600160401b0316816001600160401b0316036116375760405163150b624d60e31b81526001600160401b03821660048201526024016109e4565b6001600160401b038316600090815260096020526040812080546001600160a01b03191681559061166b6001830182613cdf565b50506040516001600160401b03841681527f67e02000179a6045f4db8fb1b09f01e170b0347e0b698fc5112ce4d798ef19f69060200160405180910390a1505050565b7f2d7a7544ecdf54eb35b6efa91f9c2c22f6bf39cb49dc786ed943755756b083066116d881612deb565b6116e3858484612d5e565b6116fe84848460405180602001604052806000815250612fb4565b5050505050565b606081518351146117365781518351604051635b05999160e01b8152600481019290925260248201526044016109e4565b600083516001600160401b0381111561175157611751613e17565b60405190808252806020026020018201604052801561177a578160200160208202803683370190505b50905060005b84518110156117d1576020808202860101516117a49060208084028701015161096a565b8282815181106117b6576117b6614cae565b60209081029190910101526117ca81614cc4565b9050611780565b509392505050565b600d81815481106117e957600080fd5b60009182526020909120600f90910201805460018201546002830180546001600160a01b03909316945090929161181f906149a8565b80601f016020809104026020016040519081016040528092919081815260200182805461184b906149a8565b80156118985780601f1061186d57610100808354040283529160200191611898565b820191906000526020600020905b81548152906001019060200180831161187b57829003601f168201915b5050505050908060030154908060040154908060050154908060060160009054906101000a90046001600160a01b0316908060070160009054906101000a90046001600160a01b03169080600801549080600901549080600a01549080600b01549080600c01604051806040016040529081600082018054611919906149a8565b80601f0160208091040260200160405190810160405280929190818152602001828054611945906149a8565b80156119925780601f1061196757610100808354040283529160200191611992565b820191906000526020600020905b81548152906001019060200180831161197557829003601f168201915b505050505081526020016001820180546119ab906149a8565b80601f01602080910402602001604051908101604052809291908181526020018280546119d7906149a8565b8015611a245780601f106119f957610100808354040283529160200191611a24565b820191906000526020600020905b815481529060010190602001808311611a0757829003601f168201915b50505091909252505050600e9091015460ff168e565b6060600d805480602002602001604051908101604052809291908181526020016000905b82821015611cfa576000848152602090819020604080516101c081018252600f860290920180546001600160a01b0316835260018101549383019390935260028301805492939291840191611ab2906149a8565b80601f0160208091040260200160405190810160405280929190818152602001828054611ade906149a8565b8015611b2b5780601f10611b0057610100808354040283529160200191611b2b565b820191906000526020600020905b815481529060010190602001808311611b0e57829003601f168201915b50505091835250506003820154602082015260048201546040808301919091526005830154606083015260068301546001600160a01b03908116608084015260078401541660a0830152600883015460c0830152600983015460e0830152600a830154610100830152600b8301546101208301528051808201909152600c830180546101409093019282908290611bc1906149a8565b80601f0160208091040260200160405190810160405280929190818152602001828054611bed906149a8565b8015611c3a5780601f10611c0f57610100808354040283529160200191611c3a565b820191906000526020600020905b815481529060010190602001808311611c1d57829003601f168201915b50505050508152602001600182018054611c53906149a8565b80601f0160208091040260200160405190810160405280929190818152602001828054611c7f906149a8565b8015611ccc5780601f10611ca157610100808354040283529160200191611ccc565b820191906000526020600020905b815481529060010190602001808311611caf57829003601f168201915b505050919092525050508152600e919091015460ff1615156020918201529082526001929092019101611a5e565b50505050905090565b600960205260009081526040902080546001820180546001600160a01b039092169291611d2f906149a8565b80601f0160208091040260200160405190810160405280929190818152602001828054611d5b906149a8565b8015611da85780601f10611d7d57610100808354040283529160200191611da8565b820191906000526020600020905b815481529060010190602001808311611d8b57829003601f168201915b5050505050905082565b7fd06d8e8124a5b16f1c83a761ecebf2ff499d3479b082621b3da1539d5a7e0166611ddc81612deb565b506001600160a01b039092166000908152600b602090815260408083209383529290522060040155565b611e8e604080516101c0810182526000808252602080830182905260608385018190528084018390526080840183905260a0840183905260c0840183905260e084018390526101008401839052610120840183905261014084018390526101608401929092528351808501909452818452830152906101808201908152600060209091015290565b6001600160a01b038084166000908152600b60209081526040808320868452825280832081516101c0810183528154909516855260018101549285019290925260028201805493949391840191611ee4906149a8565b80601f0160208091040260200160405190810160405280929190818152602001828054611f10906149a8565b8015611f5d5780601f10611f3257610100808354040283529160200191611f5d565b820191906000526020600020905b815481529060010190602001808311611f4057829003601f168201915b50505091835250506003820154602082015260048201546040808301919091526005830154606083015260068301546001600160a01b03908116608084015260078401541660a0830152600883015460c0830152600983015460e0830152600a830154610100830152600b8301546101208301528051808201909152600c830180546101409093019282908290611ff3906149a8565b80601f016020809104026020016040519081016040528092919081815260200182805461201f906149a8565b801561206c5780601f106120415761010080835404028352916020019161206c565b820191906000526020600020905b81548152906001019060200180831161204f57829003601f168201915b50505050508152602001600182018054612085906149a8565b80601f01602080910402602001604051908101604052809291908181526020018280546120b1906149a8565b80156120fe5780601f106120d3576101008083540402835291602001916120fe565b820191906000526020600020905b8154815290600101906020018083116120e157829003601f168201915b505050919092525050508152600e919091015460ff161515602090910152949350505050565b6001600160a01b0383163314801590612144575061214283336127dc565b155b1561217857335b60405163711bec9160e11b81526001600160a01b03918216600482015290841660248201526044016109e4565b61127b838383613011565b7f59646329c61c5d94892753ef41cd88158fe7a7302ebfce1612f9f9d0cad264316121ad81612deb565b3360006121bb828686613057565b9050806121db5760405163956ecfa960e01b815260040160405180910390fd5b506001600160a01b039384166000908152600b60209081526040808320978352969052949094206006810180546001600160a01b031916959094169490941790925560089092019190915550565b3360006122567f2d7a7544ecdf54eb35b6efa91f9c2c22f6bf39cb49dc786ed943755756b08306836126af565b6001600160a01b0385166000908152600b602090815260408083208984529091529020600401549091503490808211801590612290575082155b156122ae57604051631bdbaf8760e21b815260040160405180910390fd5b821561232b5760006122c1858888613057565b9050806122e15760405163d0073e2f60e01b815260040160405180910390fd5b506001600160a01b038681166000908152600b602090815260408083208b845290915290206007810180546001600160a01b0319169287169290921790915560090185905561235c565b80821061235c576001600160a01b0386166000908152600b602090815260408083208a84529091529020600a018290555b50505050505050565b7f65d7a28e3265b37a6474929f336521b332c1681b933f6cb9f3376673440d862a61238f81612deb565b6115cb613195565b336001600160a01b037f000000000000000000000000000000000000000000000000000000000000000016146123e257604051637cb1cfd160e11b81523360048201526024016109e4565b6123ea612d34565b6123fa6040820160208301614266565b6001600160401b0381166000908152600960205260409020546001600160a01b0316612444576040516333a970bd60e21b81526001600160401b03821660048201526024016109e4565b6124546040830160208401614266565b6124616040840184614cdd565b81019061246e9190613f5a565b6001600160401b0382166000908152600960205260409020546001600160a01b038281169116146124bc576040516260dcc960e61b81526001600160a01b03821660048201526024016109e4565b60006124ce6040860160208701614266565b905060008080806124e260608a018a614cdd565b8101906124ef9190614db3565b93509350935093506125138383600160405180602001604052806000815250612fb4565b6001600160a01b038381166000908152600b60209081526040808320868452825291829020845181546001600160a01b03191694169390931783558301516001830155820151829190600282019061256b9082614b93565b50606082015160038201556080820151600482015560a0820151600582015560c08201516006820180546001600160a01b039283166001600160a01b03199182161790915560e084015160078401805491909316911617905561010082015160088201556101208201516009820155610140820151600a820155610160820151600b8201556101808201518051600c83019081906126099082614b93565b506020820151600182019061261e9082614b93565b5050506101a09190910151600e909101805460ff19169115159190911790556040517f6e9bfe954c66a08ef8d6079c61c1858538c528eb7632e017fef134e4165fce1190612695908690869086908a907f000000000000000000000000000000000000000000000000000000000000000090614b11565b60405180910390a150505050505050506115cb6001600755565b60009182526003602090815260408084206001600160a01b0393909316845291905290205460ff1690565b6110103383836131d2565b60005b84518110156127aa576127148686838151811061270757612707614cae565b6020026020010151613268565b82818151811061272657612726614cae565b6020026020010151600b6000886001600160a01b03166001600160a01b03168152602001908152602001600020600087848151811061276757612767614cae565b60200260200101518152602001908152602001600020600e0160006101000a81548160ff02191690831515021790555080806127a290614cc4565b9150506126e8565b506116fe85858584613562565b6000828152600360205260409020600101546127d281612deb565b6112428383612ef5565b6001600160a01b03918216600090815260016020908152604080832093909416825291909152205460ff1690565b6001600160a01b0381166000908152600c60209081526040808320805482518185028101850190935280835260609492939192909184015b82821015612ade576000848152602090819020604080516101c081018252600f860290920180546001600160a01b0316835260018101549383019390935260028301805492939291840191612896906149a8565b80601f01602080910402602001604051908101604052809291908181526020018280546128c2906149a8565b801561290f5780601f106128e45761010080835404028352916020019161290f565b820191906000526020600020905b8154815290600101906020018083116128f257829003601f168201915b50505091835250506003820154602082015260048201546040808301919091526005830154606083015260068301546001600160a01b03908116608084015260078401541660a0830152600883015460c0830152600983015460e0830152600a830154610100830152600b8301546101208301528051808201909152600c8301805461014090930192829082906129a5906149a8565b80601f01602080910402602001604051908101604052809291908181526020018280546129d1906149a8565b8015612a1e5780601f106129f357610100808354040283529160200191612a1e565b820191906000526020600020905b815481529060010190602001808311612a0157829003601f168201915b50505050508152602001600182018054612a37906149a8565b80601f0160208091040260200160405190810160405280929190818152602001828054612a63906149a8565b8015612ab05780601f10612a8557610100808354040283529160200191612ab0565b820191906000526020600020905b815481529060010190602001808311612a9357829003601f168201915b505050919092525050508152600e919091015460ff1615156020918201529082526001929092019101612842565b505050509050919050565b336001600160a01b0386168114801590612b0a5750612b0886826127dc565b155b15612b3b5760405163711bec9160e11b81526001600160a01b038083166004830152871660248201526044016109e4565b611215868686868661359a565b6001600160a01b0383163314801590612b685750612b6683336127dc565b155b15612b73573361214b565b61127b838383612d5e565b612b888585613268565b6001600160a01b038581166000908152600b602090815260408083208884529091528120600e8101805460ff1916861515179055600d8054600181810183559190935281547fd7b6990105719101dabeb77144f2a3385c8033acd3af97e9423a695e81ad1eb5600f9094029384018054919095166001600160a01b03199091161784558101547fd7b6990105719101dabeb77144f2a3385c8033acd3af97e9423a695e81ad1eb683015591907fd7b6990105719101dabeb77144f2a3385c8033acd3af97e9423a695e81ad1eb701612c636002840182614f12565b5060038281015490820155600480830154908201556005808301549082015560068083015490820180546001600160a01b039283166001600160a01b03199182161790915560078085015490840180549190931691161790556008808301549082015560098083015490820155600a8083015490820155600b8083015490820155600c80830190820180612cf78382614f12565b50600181810190612d0a90840182614f12565b505050600e918201549101805460ff191660ff90921615159190911790556116fe85858584612fb4565b600260075403612d5757604051633ee5aeb560e01b815260040160405180910390fd5b6002600755565b6001600160a01b038316612d8757604051626a0d4560e21b8152600060048201526024016109e4565b604080516001808252602082018590528183019081526060820184905260a082019092526000608082018181529192916116fe9187918590859061361b565b60006001600160e01b03198216637965db0b60e01b148061098c575061098c8261366e565b6115cb81336136be565b60026110108282614b93565b6001600160a01b038416612e2b57604051632bfa23e760e11b8152600060048201526024016109e4565b6001600160a01b038516612e5457604051626a0d4560e21b8152600060048201526024016109e4565b6116fe858585858561361b565b6000612e6d83836126af565b612eed5760008381526003602090815260408083206001600160a01b03861684529091529020805460ff19166001179055612ea53390565b6001600160a01b0316826001600160a01b0316847f2f8788117e7eff1d82e926ec794901d17c78024a50270940304540a733656f0d60405160405180910390a450600161098c565b50600061098c565b6000612f0183836126af565b15612eed5760008381526003602090815260408083206001600160a01b0386168085529252808320805460ff1916905551339286917ff6391f5c32d9c69d2a47ea670b442974b53935d1edc7fd64eb21e047a839171b9190a450600161098c565b612f6a6136f7565b6004805460ff191690557f5db9ee0a495bf2e6ff9c91a7834c1ba4fdd244a5e8aa4e537bd38aeae4b073aa335b6040516001600160a01b03909116815260200160405180910390a1565b6001600160a01b038416612fde57604051632bfa23e760e11b8152600060048201526024016109e4565b6040805160018082526020820186905281830190815260608201859052608082019092529061121560008784848761361b565b6001600160a01b03831661303a57604051626a0d4560e21b8152600060048201526024016109e4565b61127b83600084846040518060200160405280600081525061361b565b60085460405163e30bb56360e01b81526004810183905260009182916001600160a01b039091169063e30bb56390602401602060405180830381865afa1580156130a5573d6000803e3d6000fd5b505050506040513d601f19601f820116820180604052508101906130c99190614fef565b6008546040516328c44a9960e21b8152600481018690529192506000916001600160a01b039091169063a3112a6490602401600060405180830381865afa158015613118573d6000803e3d6000fd5b505050506040513d6000823e601f3d908101601f191682016040526131409190810190615067565b60c081015160e08201519192509083801561316c5750866001600160a01b0316826001600160a01b0316145b80156131895750876001600160a01b0316816001600160a01b0316145b98975050505050505050565b61319d61371c565b6004805460ff191660011790557f62e78cea01bee320cd4e420270b5ea74000d11b0c9f74754ebdbfc544b05a258612f973390565b6001600160a01b0382166131fb5760405162ced3e160e81b8152600060048201526024016109e4565b6001600160a01b03838116600081815260016020908152604080832094871680845294825291829020805460ff191686151590811790915591519182527f17307eab39ab6107e8899845ad3d59bd9653f200f220920489ca2b5937696c31910160405180910390a3505050565b6001600160a01b038083166000908152600b60209081526040808320858452825280832081516101c08101835281549095168552600181015492850192909252600282018054939493918401916132be906149a8565b80601f01602080910402602001604051908101604052809291908181526020018280546132ea906149a8565b80156133375780601f1061330c57610100808354040283529160200191613337565b820191906000526020600020905b81548152906001019060200180831161331a57829003601f168201915b50505091835250506003820154602082015260048201546040808301919091526005830154606083015260068301546001600160a01b03908116608084015260078401541660a0830152600883015460c0830152600983015460e0830152600a830154610100830152600b8301546101208301528051808201909152600c8301805461014090930192829082906133cd906149a8565b80601f01602080910402602001604051908101604052809291908181526020018280546133f9906149a8565b80156134465780601f1061341b57610100808354040283529160200191613446565b820191906000526020600020905b81548152906001019060200180831161342957829003601f168201915b5050505050815260200160018201805461345f906149a8565b80601f016020809104026020016040519081016040528092919081815260200182805461348b906149a8565b80156134d85780601f106134ad576101008083540402835291602001916134d8565b820191906000526020600020905b8154815290600101906020018083116134bb57829003601f168201915b505050919092525050508152600e919091015460ff161515602090910152608081015190915060000361351e57604051631412b8ad60e01b815260040160405180910390fd5b6101408101516080820151808210613537575050505050565b61012083015115613549575050505050565b604051636a810bad60e11b815260040160405180910390fd5b6001600160a01b03841661358c57604051632bfa23e760e11b8152600060048201526024016109e4565b61124260008585858561361b565b6001600160a01b0384166135c457604051632bfa23e760e11b8152600060048201526024016109e4565b6001600160a01b0385166135ed57604051626a0d4560e21b8152600060048201526024016109e4565b6040805160018082526020820186905281830190815260608201859052608082019092529061235c87878484875b61362785858585613740565b6001600160a01b038416156116fe5782513390600103613660576020848101519084015161365983898985858961374c565b5050611215565b611215818787878787613870565b60006001600160e01b03198216636cdb3d1360e11b148061369f57506001600160e01b031982166303a24d0760e21b145b8061098c57506301ffc9a760e01b6001600160e01b031983161461098c565b6136c882826126af565b6110105760405163e2517d3f60e01b81526001600160a01b0382166004820152602481018390526044016109e4565b60045460ff1661371a57604051638dfc202b60e01b815260040160405180910390fd5b565b60045460ff161561371a5760405163d93c066560e01b815260040160405180910390fd5b61124284848484613959565b6001600160a01b0384163b156112155760405163f23a6e6160e01b81526001600160a01b0385169063f23a6e6190613790908990899088908890889060040161515d565b6020604051808303816000875af19250505080156137cb575060408051601f3d908101601f191682019092526137c8918101906151a2565b60015b613834573d8080156137f9576040519150601f19603f3d011682016040523d82523d6000602084013e6137fe565b606091505b50805160000361382c57604051632bfa23e760e11b81526001600160a01b03861660048201526024016109e4565b805181602001fd5b6001600160e01b0319811663f23a6e6160e01b1461235c57604051632bfa23e760e11b81526001600160a01b03861660048201526024016109e4565b6001600160a01b0384163b156112155760405163bc197c8160e01b81526001600160a01b0385169063bc197c81906138b490899089908890889088906004016151bf565b6020604051808303816000875af19250505080156138ef575060408051601f3d908101601f191682019092526138ec918101906151a2565b60015b61391d573d8080156137f9576040519150601f19603f3d011682016040523d82523d6000602084013e6137fe565b6001600160e01b0319811663bc197c8160e01b1461235c57604051632bfa23e760e11b81526001600160a01b03861660048201526024016109e4565b61396584848484613ab3565b6001600160a01b038416613a18576000805b83518110156139fe57600083828151811061399457613994614cae565b6020026020010151905080600560008785815181106139b5576139b5614cae565b6020026020010151815260200190815260200160002060008282546139da9190614c9b565b909155506139ea90508184614c9b565b925050806139f790614cc4565b9050613977565b508060066000828254613a119190614c9b565b9091555050505b6001600160a01b038316611242576000805b8351811015613aa2576000838281518110613a4757613a47614cae565b602002602001015190508060056000878581518110613a6857613a68614cae565b602002602001015181526020019081526020016000206000828254039250508190555080830192505080613a9b90614cc4565b9050613a2a565b506006805491909103905550505050565b613abb61371c565b611242848484848051825114613af15781518151604051635b05999160e01b8152600481019290925260248201526044016109e4565b3360005b8351811015613c00576020818102858101820151908501909101516001600160a01b03881615613ba8576000828152602081815260408083206001600160a01b038c16845290915290205481811015613b81576040516303dee4c560e01b81526001600160a01b038a1660048201526024810182905260448101839052606481018490526084016109e4565b6000838152602081815260408083206001600160a01b038d16845290915290209082900390555b6001600160a01b03871615613bed576000828152602081815260408083206001600160a01b038b16845290915281208054839290613be7908490614c9b565b90915550505b505080613bf990614cc4565b9050613af5565b508251600103613c815760208301516000906020840151909150856001600160a01b0316876001600160a01b0316846001600160a01b03167fc3d58168c5ae7397731d063d5bbf3d657854427343f4c083240f7aacaa2d0f628585604051613c72929190918252602082015260400190565b60405180910390a450506116fe565b836001600160a01b0316856001600160a01b0316826001600160a01b03167f4a39dc06d4c0dbc64b70af90fd698a233a518aa5d07e595d983b8c0526c8f7fb8686604051613cd0929190615211565b60405180910390a45050505050565b508054613ceb906149a8565b6000825580601f10613cfb575050565b601f0160209004906000526020600020908101906115cb91905b80821115613d295760008155600101613d15565b5090565b6001600160a01b03811681146115cb57600080fd5b8035613d4d81613d2d565b919050565b60008060408385031215613d6557600080fd5b8235613d7081613d2d565b946020939093013593505050565b6001600160401b03811681146115cb57600080fd5b60008060008060808587031215613da957600080fd5b8435613db481613d2d565b935060208501359250604085013591506060850135613dd281613d7e565b939692955090935050565b6001600160e01b0319811681146115cb57600080fd5b600060208284031215613e0557600080fd5b8135613e1081613ddd565b9392505050565b634e487b7160e01b600052604160045260246000fd5b6040516101c081016001600160401b0381118282101715613e5057613e50613e17565b60405290565b60405161014081016001600160401b0381118282101715613e5057613e50613e17565b604051601f8201601f191681016001600160401b0381118282101715613ea157613ea1613e17565b604052919050565b60006001600160401b03821115613ec257613ec2613e17565b50601f01601f191660200190565b600082601f830112613ee157600080fd5b8135613ef4613eef82613ea9565b613e79565b818152846020838601011115613f0957600080fd5b816020850160208301376000918101602001919091529392505050565b600060208284031215613f3857600080fd5b81356001600160401b03811115613f4e57600080fd5b610fca84828501613ed0565b600060208284031215613f6c57600080fd5b8135613e1081613d2d565b600080600060608486031215613f8c57600080fd5b8335613f9781613d7e565b92506020840135613fa781613d2d565b915060408401356001600160401b03811115613fc257600080fd5b613fce86828701613ed0565b9150509250925092565b600060208284031215613fea57600080fd5b5035919050565b60005b8381101561400c578181015183820152602001613ff4565b50506000910152565b6000815180845261402d816020860160208601613ff1565b601f01601f19169290920160200192915050565b602081526000613e106020830184614015565b60006001600160401b0382111561406d5761406d613e17565b5060051b60200190565b600082601f83011261408857600080fd5b81356020614098613eef83614054565b82815260059290921b840181019181810190868411156140b757600080fd5b8286015b848110156140d257803583529183019183016140bb565b509695505050505050565b600080600080600060a086880312156140f557600080fd5b853561410081613d2d565b9450602086013561411081613d2d565b935060408601356001600160401b038082111561412c57600080fd5b61413889838a01614077565b9450606088013591508082111561414e57600080fd5b61415a89838a01614077565b9350608088013591508082111561417057600080fd5b5061417d88828901613ed0565b9150509295509295909350565b6000806040838503121561419d57600080fd5b8235915060208301356141af81613d2d565b809150509250929050565b60008060008060008060c087890312156141d357600080fd5b86356141de81613d2d565b955060208701356001600160401b03808211156141fa57600080fd5b6142068a838b01613ed0565b96506040890135955060608901359450608089013591508082111561422a57600080fd5b6142368a838b01613ed0565b935060a089013591508082111561424c57600080fd5b5061425989828a01613ed0565b9150509295509295509295565b60006020828403121561427857600080fd5b8135613e1081613d7e565b6000806000806080858703121561429957600080fd5b84356142a481613d2d565b935060208501356142b481613d2d565b93969395505050506040820135916060013590565b600080604083850312156142dc57600080fd5b82356001600160401b03808211156142f357600080fd5b818501915085601f83011261430757600080fd5b81356020614317613eef83614054565b82815260059290921b8401810191818101908984111561433657600080fd5b948201945b8386101561435d57853561434e81613d2d565b8252948201949082019061433b565b9650508601359250508082111561437357600080fd5b5061438085828601614077565b9150509250929050565b600081518084526020808501945080840160005b838110156143ba5781518752958201959082019060010161439e565b509495945050505050565b602081526000613e10602083018461438a565b60008151604084526143ed6040850182614015565b9050602083015184820360208601526144068282614015565b95945050505050565b60018060a01b038f1681528d60208201526101c0604082015260006144386101c083018f614015565b8d60608401528c60808401528b60a084015261445f60c084018c6001600160a01b03169052565b6001600160a01b038a1660e08401528861010084015287610120840152866101408401528561016084015282810361018084015261449d81866143d8565b9150506144af6101a083018415159052565b9f9e505050505050505050505050505050565b80516001600160a01b0316825260006101c06020830151602085015260408301518160408601526144f582860182614015565b915050606083015160608501526080830151608085015260a083015160a085015260c083015161453060c08601826001600160a01b03169052565b5060e083015161454b60e08601826001600160a01b03169052565b506101008381015190850152610120808401519085015261014080840151908501526101608084015190850152610180808401518583038287015261459083826143d8565b925050506101a0808401516145a88287018215159052565b5090949350505050565b6000602080830181845280855180835260408601915060408160051b870101925083870160005b8281101561460757603f198886030184526145f58583516144c2565b945092850192908501906001016145d9565b5092979650505050505050565b6001600160a01b0383168152604060208201819052600090610fca90830184614015565b60008060006060848603121561464d57600080fd5b833561465881613d2d565b95602085013595506040909401359392505050565b602081526000613e1060208301846144c2565b60008060006060848603121561469557600080fd5b83356146a081613d2d565b925060208401356001600160401b03808211156146bc57600080fd5b6146c887838801614077565b935060408601359150808211156146de57600080fd5b50613fce86828701614077565b60008060006060848603121561470057600080fd5b83359250602084013561471281613d2d565b929592945050506040919091013590565b60006020828403121561473557600080fd5b81356001600160401b0381111561474b57600080fd5b820160a08185031215613e1057600080fd5b80151581146115cb57600080fd5b8035613d4d8161475d565b6000806040838503121561478957600080fd5b823561479481613d2d565b915060208301356141af8161475d565b600080600080600060a086880312156147bc57600080fd5b85356147c781613d2d565b94506020868101356001600160401b03808211156147e457600080fd5b6147f08a838b01614077565b9650604089013591508082111561480657600080fd5b6148128a838b01614077565b9550606089013591508082111561482857600080fd5b818901915089601f83011261483c57600080fd5b813561484a613eef82614054565b81815260059190911b8301840190848101908c83111561486957600080fd5b938501935b828510156148905784356148818161475d565b8252938501939085019061486e565b9650505060808901359250808311156148a857600080fd5b505061417d88828901613ed0565b600080604083850312156148c957600080fd5b82356148d481613d2d565b915060208301356141af81613d2d565b600080600080600060a086880312156148fc57600080fd5b853561490781613d2d565b9450602086013561491781613d2d565b9350604086013592506060860135915060808601356001600160401b0381111561494057600080fd5b61417d88828901613ed0565b600080600080600060a0868803121561496457600080fd5b853561496f81613d2d565b94506020860135935060408601359250606086013561498d8161475d565b915060808601356001600160401b0381111561494057600080fd5b600181811c908216806149bc57607f821691505b6020821081036149dc57634e487b7160e01b600052602260045260246000fd5b50919050565b6001600160a01b0385811682528416602082015260408101839052608060608201819052600090614a15908301846144c2565b9695505050505050565b600060406001600160401b038516835260208181850152845160a083860152614a4b60e0860182614015565b905081860151603f1980878403016060880152614a688383614015565b88860151888203830160808a01528051808352908601945060009350908501905b80841015614abb57845180516001600160a01b0316835286015186830152938501936001939093019290860190614a89565b5060608901516001600160a01b031660a08901526080890151888203830160c08a01529550614aea8187614015565b9a9950505050505050505050565b600060208284031215614b0a57600080fd5b5051919050565b6001600160a01b03958616815293909416602084015260408301919091526001600160401b039081166060830152909116608082015260a00190565b601f82111561127b57600081815260208120601f850160051c81016020861015614b745750805b601f850160051c820191505b8181101561121557828155600101614b80565b81516001600160401b03811115614bac57614bac613e17565b614bc081614bba84546149a8565b84614b4d565b602080601f831160018114614bf55760008415614bdd5750858301515b600019600386901b1c1916600185901b178555611215565b600085815260208120601f198616915b82811015614c2457888601518255948401946001909101908401614c05565b5085821015614c425787850151600019600388901b60f8161c191681555b5050505050600190811b01905550565b6001600160401b03841681526001600160a01b038316602082015260606040820181905260009061440690830184614015565b634e487b7160e01b600052601160045260246000fd5b8082018082111561098c5761098c614c85565b634e487b7160e01b600052603260045260246000fd5b600060018201614cd657614cd6614c85565b5060010190565b6000808335601e19843603018112614cf457600080fd5b8301803591506001600160401b03821115614d0e57600080fd5b602001915036819003821315614d2357600080fd5b9250929050565b600060408284031215614d3c57600080fd5b604051604081016001600160401b038282108183111715614d5f57614d5f613e17565b816040528293508435915080821115614d7757600080fd5b614d8386838701613ed0565b83526020850135915080821115614d9957600080fd5b50614da685828601613ed0565b6020830152505092915050565b60008060008060808587031215614dc957600080fd5b8435614dd481613d2d565b93506020850135614de481613d2d565b92506040850135915060608501356001600160401b0380821115614e0757600080fd5b908601906101c08289031215614e1c57600080fd5b614e24613e2d565b614e2d83613d42565b815260208301356020820152604083013582811115614e4b57600080fd5b614e578a828601613ed0565b604083015250606083013560608201526080830135608082015260a083013560a0820152614e8760c08401613d42565b60c0820152614e9860e08401613d42565b60e082015261010083810135908201526101208084013590820152610140808401359082015261016080840135908201526101808084013583811115614edd57600080fd5b614ee98b828701614d2a565b8284015250506101a09150614eff82840161476b565b8282015280935050505092959194509250565b818103614f1d575050565b614f2782546149a8565b6001600160401b03811115614f3e57614f3e613e17565b614f4c81614bba84546149a8565b6000601f821160018114614f805760008315614f685750848201545b600019600385901b1c1916600184901b1784556116fe565b600085815260209020601f19841690600086815260209020845b83811015614fba5782860154825560019586019590910190602001614f9a565b5085831015614c425793015460001960f8600387901b161c19169092555050600190811b01905550565b8051613d4d8161475d565b60006020828403121561500157600080fd5b8151613e108161475d565b8051613d4d81613d7e565b8051613d4d81613d2d565b600082601f83011261503357600080fd5b8151615041613eef82613ea9565b81815284602083860101111561505657600080fd5b610fca826020830160208701613ff1565b60006020828403121561507957600080fd5b81516001600160401b038082111561509057600080fd5b9083019061014082860312156150a557600080fd5b6150ad613e56565b82518152602083015160208201526150c76040840161500c565b60408201526150d86060840161500c565b60608201526150e96080840161500c565b608082015260a083015160a082015261510460c08401615017565b60c082015261511560e08401615017565b60e0820152610100615128818501614fe4565b90820152610120838101518381111561514057600080fd5b61514c88828701615022565b918301919091525095945050505050565b6001600160a01b03868116825285166020820152604081018490526060810183905260a06080820181905260009061519790830184614015565b979650505050505050565b6000602082840312156151b457600080fd5b8151613e1081613ddd565b6001600160a01b0386811682528516602082015260a0604082018190526000906151eb9083018661438a565b82810360608401526151fd818661438a565b905082810360808401526131898185614015565b604081526000615224604083018561438a565b8281036020840152614406818561438a56fea264697066735822122013484c408a388991aaedcd901b96d56c551d5ca1e7e4d3c602f5f53bea96b88364736f6c63430008140033",
  "devdoc": {
    "errors": {
      "AccessControlBadConfirmation()": [
        {
          "details": "The caller of a function is not the expected one. NOTE: Don't confuse with {AccessControlUnauthorizedAccount}."
        }
      ],
      "AccessControlUnauthorizedAccount(address,bytes32)": [
        {
          "details": "The `account` is missing a role."
        }
      ],
      "ERC1155InsufficientBalance(address,uint256,uint256,uint256)": [
        {
          "details": "Indicates an error related to the current `balance` of a `sender`. Used in transfers.",
          "params": {
            "balance": "Current balance for the interacting account.",
            "needed": "Minimum amount required to perform a transfer.",
            "sender": "Address whose tokens are being transferred.",
            "tokenId": "Identifier number of a token."
          }
        }
      ],
      "ERC1155InvalidApprover(address)": [
        {
          "details": "Indicates a failure with the `approver` of a token to be approved. Used in approvals.",
          "params": {
            "approver": "Address initiating an approval operation."
          }
        }
      ],
      "ERC1155InvalidArrayLength(uint256,uint256)": [
        {
          "details": "Indicates an array length mismatch between ids and values in a safeBatchTransferFrom operation. Used in batch transfers.",
          "params": {
            "idsLength": "Length of the array of token identifiers",
            "valuesLength": "Length of the array of token amounts"
          }
        }
      ],
      "ERC1155InvalidOperator(address)": [
        {
          "details": "Indicates a failure with the `operator` to be approved. Used in approvals.",
          "params": {
            "operator": "Address that may be allowed to operate on tokens without being their owner."
          }
        }
      ],
      "ERC1155InvalidReceiver(address)": [
        {
          "details": "Indicates a failure with the token `receiver`. Used in transfers.",
          "params": {
            "receiver": "Address to which tokens are being transferred."
          }
        }
      ],
      "ERC1155InvalidSender(address)": [
        {
          "details": "Indicates a failure with the token `sender`. Used in transfers.",
          "params": {
            "sender": "Address whose tokens are being transferred."
          }
        }
      ],
      "ERC1155MissingApprovalForAll(address,address)": [
        {
          "details": "Indicates a failure with the `operator`s approval. Used in transfers.",
          "params": {
            "operator": "Address that may be allowed to operate on tokens without being their owner.",
            "owner": "Address of the current owner of a token."
          }
        }
      ],
      "EnforcedPause()": [
        {
          "details": "The operation failed because the contract is paused."
        }
      ],
      "ExpectedPause()": [
        {
          "details": "The operation failed because the contract is not paused."
        }
      ],
      "ReentrancyGuardReentrantCall()": [
        {
          "details": "Unauthorized reentrant call."
        }
      ]
    },
    "events": {
      "ApprovalForAll(address,address,bool)": {
        "details": "Emitted when `account` grants or revokes permission to `operator` to transfer their tokens, according to `approved`."
      },
      "Paused(address)": {
        "details": "Emitted when the pause is triggered by `account`."
      },
      "RoleAdminChanged(bytes32,bytes32,bytes32)": {
        "details": "Emitted when `newAdminRole` is set as ``role``'s admin role, replacing `previousAdminRole` `DEFAULT_ADMIN_ROLE` is the starting admin for all roles, despite {RoleAdminChanged} not being emitted signaling this."
      },
      "RoleGranted(bytes32,address,address)": {
        "details": "Emitted when `account` is granted `role`. `sender` is the account that originated the contract call, an admin role bearer except when using {AccessControl-_setupRole}."
      },
      "RoleRevoked(bytes32,address,address)": {
        "details": "Emitted when `account` is revoked `role`. `sender` is the account that originated the contract call:   - if using `revokeRole`, it is the admin role bearer   - if using `renounceRole`, it is the role bearer (i.e. `account`)"
      },
      "TransferBatch(address,address,address,uint256[],uint256[])": {
        "details": "Equivalent to multiple {TransferSingle} events, where `operator`, `from` and `to` are the same for all transfers."
      },
      "TransferSingle(address,address,address,uint256,uint256)": {
        "details": "Emitted when `value` amount of tokens of type `id` are transferred from `from` to `to` by `operator`."
      },
      "URI(string,uint256)": {
        "details": "Emitted when the URI for token type `id` changes to `value`, if it is a non-programmatic URI. If an {URI} event was emitted for `id`, the standard https://eips.ethereum.org/EIPS/eip-1155#metadata-extensions[guarantees] that `value` will equal the value returned by {IERC1155MetadataURI-uri}."
      },
      "Unpaused(address)": {
        "details": "Emitted when the pause is lifted by `account`."
      }
    },
    "kind": "dev",
    "methods": {
      "balanceOf(address,uint256)": {
        "details": "See {IERC1155-balanceOf}."
      },
      "balanceOfBatch(address[],uint256[])": {
        "details": "See {IERC1155-balanceOfBatch}. Requirements: - `accounts` and `ids` must have the same length."
      },
      "ccipReceive((bytes32,uint64,bytes,bytes,(address,uint256)[]))": {
        "details": "Note ensure you check the msg.sender is the OffRampRouter",
        "params": {
          "message": "CCIP Message"
        }
      },
      "exists(uint256)": {
        "details": "Indicates whether any token exist with a given id, or not."
      },
      "getRoleAdmin(bytes32)": {
        "details": "Returns the admin role that controls `role`. See {grantRole} and {revokeRole}. To change a role's admin, use {_setRoleAdmin}."
      },
      "grantRole(bytes32,address)": {
        "details": "Grants `role` to `account`. If `account` had not been already granted `role`, emits a {RoleGranted} event. Requirements: - the caller must have ``role``'s admin role. May emit a {RoleGranted} event."
      },
      "hasRole(bytes32,address)": {
        "details": "Returns `true` if `account` has been granted `role`."
      },
      "isApprovedForAll(address,address)": {
        "details": "See {IERC1155-isApprovedForAll}."
      },
      "paused()": {
        "details": "Returns true if the contract is paused, and false otherwise."
      },
      "provideGurantee(uint256,address,bytes32)": {
        "details": "TODO: make use of delegateAttest and call attest function inside this function."
      },
      "provideOwnershipVerification(uint256,address,bytes32)": {
        "details": "TODO: make use of delegateAttest and call attest function inside this function."
      },
      "renounceRole(bytes32,address)": {
        "details": "Revokes `role` from the calling account. Roles are often managed via {grantRole} and {revokeRole}: this function's purpose is to provide a mechanism for accounts to lose their privileges if they are compromised (such as when a trusted device is misplaced). If the calling account had been revoked `role`, emits a {RoleRevoked} event. Requirements: - the caller must be `callerConfirmation`. May emit a {RoleRevoked} event."
      },
      "revokeRole(bytes32,address)": {
        "details": "Revokes `role` from `account`. If `account` had been granted `role`, emits a {RoleRevoked} event. Requirements: - the caller must have ``role``'s admin role. May emit a {RoleRevoked} event."
      },
      "safeBatchTransferFrom(address,address,uint256[],uint256[],bytes)": {
        "details": "See {IERC1155-safeBatchTransferFrom}."
      },
      "safeTransferFrom(address,address,uint256,uint256,bytes)": {
        "details": "See {IERC1155-safeTransferFrom}."
      },
      "setApprovalForAll(address,bool)": {
        "details": "See {IERC1155-setApprovalForAll}."
      },
      "totalSupply()": {
        "details": "Total value of tokens."
      },
      "totalSupply(uint256)": {
        "details": "Total value of tokens in with a given id."
      },
      "uri(uint256)": {
        "details": "See {IERC1155MetadataURI-uri}. This implementation returns the same URI for *all* token types. It relies on the token type ID substitution mechanism https://eips.ethereum.org/EIPS/eip-1155#metadata[defined in the EIP]. Clients calling this function must replace the `\\{id\\}` substring with the actual token type ID."
      }
    },
    "version": 1
  },
  "userdoc": {
    "kind": "user",
    "methods": {
      "ccipReceive((bytes32,uint64,bytes,bytes,(address,uint256)[]))": {
        "notice": "Called by the Router to deliver a message. If this reverts, any token transfers also revert. The message will move to a FAILED state and become available for manual execution."
      },
      "provideGurantee(uint256,address,bytes32)": {
        "notice": "For now the ownership verifier has to have called attest function in EAS.sol previously."
      },
      "provideOwnershipVerification(uint256,address,bytes32)": {
        "notice": "For now the ownership verifier has to have called attest function in EAS.sol previously."
      },
      "recoverAssetsTest(address,address,uint256,uint256)": {
        "notice": "This function is used to recover assets from a lost wallet to a new wallet. Can be only performed by vereified ASSET_RECOVERER_ROLE. TODO: I have temporaily used GUARANTOR_ROLE for this. Change it to ASSET_RECOVERER_ROLE."
      },
      "updateAssetAppraisal(address,uint256,uint256)": {
        "notice": "ASSET_APPRAISAL_UPDATER_ROLE has to be assigned, preferably only to the AssetValueUpdater.sol contract."
      }
    },
    "version": 1
  },
  "storageLayout": {
    "storage": [
      {
        "astId": 3292,
        "contract": "contracts/RealEstateTokenRegistry.sol:RealEstateTokenRegistry",
        "label": "_balances",
        "offset": 0,
        "slot": "0",
        "type": "t_mapping(t_uint256,t_mapping(t_address,t_uint256))"
      },
      {
        "astId": 3298,
        "contract": "contracts/RealEstateTokenRegistry.sol:RealEstateTokenRegistry",
        "label": "_operatorApprovals",
        "offset": 0,
        "slot": "1",
        "type": "t_mapping(t_address,t_mapping(t_address,t_bool))"
      },
      {
        "astId": 3300,
        "contract": "contracts/RealEstateTokenRegistry.sol:RealEstateTokenRegistry",
        "label": "_uri",
        "offset": 0,
        "slot": "2",
        "type": "t_string_storage"
      },
      {
        "astId": 2757,
        "contract": "contracts/RealEstateTokenRegistry.sol:RealEstateTokenRegistry",
        "label": "_roles",
        "offset": 0,
        "slot": "3",
        "type": "t_mapping(t_bytes32,t_struct(RoleData)2752_storage)"
      },
      {
        "astId": 5652,
        "contract": "contracts/RealEstateTokenRegistry.sol:RealEstateTokenRegistry",
        "label": "_paused",
        "offset": 0,
        "slot": "4",
        "type": "t_bool"
      },
      {
        "astId": 4596,
        "contract": "contracts/RealEstateTokenRegistry.sol:RealEstateTokenRegistry",
        "label": "_totalSupply",
        "offset": 0,
        "slot": "5",
        "type": "t_mapping(t_uint256,t_uint256)"
      },
      {
        "astId": 4598,
        "contract": "contracts/RealEstateTokenRegistry.sol:RealEstateTokenRegistry",
        "label": "_totalSupplyAll",
        "offset": 0,
        "slot": "6",
        "type": "t_uint256"
      },
      {
        "astId": 5771,
        "contract": "contracts/RealEstateTokenRegistry.sol:RealEstateTokenRegistry",
        "label": "_status",
        "offset": 0,
        "slot": "7",
        "type": "t_uint256"
      },
      {
        "astId": 7691,
        "contract": "contracts/RealEstateTokenRegistry.sol:RealEstateTokenRegistry",
        "label": "easContractInstance",
        "offset": 0,
        "slot": "8",
        "type": "t_contract(IEAS)2607"
      },
      {
        "astId": 7742,
        "contract": "contracts/RealEstateTokenRegistry.sol:RealEstateTokenRegistry",
        "label": "s_chains",
        "offset": 0,
        "slot": "9",
        "type": "t_mapping(t_uint64,t_struct(xTokenDetails)7737_storage)"
      },
      {
        "astId": 7746,
        "contract": "contracts/RealEstateTokenRegistry.sol:RealEstateTokenRegistry",
        "label": "currentPropertyIdCount",
        "offset": 0,
        "slot": "10",
        "type": "t_mapping(t_address,t_uint256)"
      },
      {
        "astId": 7753,
        "contract": "contracts/RealEstateTokenRegistry.sol:RealEstateTokenRegistry",
        "label": "_propertyData",
        "offset": 0,
        "slot": "11",
        "type": "t_mapping(t_address,t_mapping(t_uint256,t_struct(PropertyData)7727_storage))"
      },
      {
        "astId": 7759,
        "contract": "contracts/RealEstateTokenRegistry.sol:RealEstateTokenRegistry",
        "label": "_propertyDataByOwner",
        "offset": 0,
        "slot": "12",
        "type": "t_mapping(t_address,t_array(t_struct(PropertyData)7727_storage)dyn_storage)"
      },
      {
        "astId": 7763,
        "contract": "contracts/RealEstateTokenRegistry.sol:RealEstateTokenRegistry",
        "label": "allPropertyDataArray",
        "offset": 0,
        "slot": "13",
        "type": "t_array(t_struct(PropertyData)7727_storage)dyn_storage"
      }
    ],
    "types": {
      "t_address": {
        "encoding": "inplace",
        "label": "address",
        "numberOfBytes": "20"
      },
      "t_array(t_struct(PropertyData)7727_storage)dyn_storage": {
        "base": "t_struct(PropertyData)7727_storage",
        "encoding": "dynamic_array",
        "label": "struct RealEstateTokenRegistry.PropertyData[]",
        "numberOfBytes": "32"
      },
      "t_bool": {
        "encoding": "inplace",
        "label": "bool",
        "numberOfBytes": "1"
      },
      "t_bytes32": {
        "encoding": "inplace",
        "label": "bytes32",
        "numberOfBytes": "32"
      },
      "t_bytes_storage": {
        "encoding": "bytes",
        "label": "bytes",
        "numberOfBytes": "32"
      },
      "t_contract(IEAS)2607": {
        "encoding": "inplace",
        "label": "contract IEAS",
        "numberOfBytes": "20"
      },
      "t_mapping(t_address,t_array(t_struct(PropertyData)7727_storage)dyn_storage)": {
        "encoding": "mapping",
        "key": "t_address",
        "label": "mapping(address => struct RealEstateTokenRegistry.PropertyData[])",
        "numberOfBytes": "32",
        "value": "t_array(t_struct(PropertyData)7727_storage)dyn_storage"
      },
      "t_mapping(t_address,t_bool)": {
        "encoding": "mapping",
        "key": "t_address",
        "label": "mapping(address => bool)",
        "numberOfBytes": "32",
        "value": "t_bool"
      },
      "t_mapping(t_address,t_mapping(t_address,t_bool))": {
        "encoding": "mapping",
        "key": "t_address",
        "label": "mapping(address => mapping(address => bool))",
        "numberOfBytes": "32",
        "value": "t_mapping(t_address,t_bool)"
      },
      "t_mapping(t_address,t_mapping(t_uint256,t_struct(PropertyData)7727_storage))": {
        "encoding": "mapping",
        "key": "t_address",
        "label": "mapping(address => mapping(uint256 => struct RealEstateTokenRegistry.PropertyData))",
        "numberOfBytes": "32",
        "value": "t_mapping(t_uint256,t_struct(PropertyData)7727_storage)"
      },
      "t_mapping(t_address,t_uint256)": {
        "encoding": "mapping",
        "key": "t_address",
        "label": "mapping(address => uint256)",
        "numberOfBytes": "32",
        "value": "t_uint256"
      },
      "t_mapping(t_bytes32,t_struct(RoleData)2752_storage)": {
        "encoding": "mapping",
        "key": "t_bytes32",
        "label": "mapping(bytes32 => struct AccessControl.RoleData)",
        "numberOfBytes": "32",
        "value": "t_struct(RoleData)2752_storage"
      },
      "t_mapping(t_uint256,t_mapping(t_address,t_uint256))": {
        "encoding": "mapping",
        "key": "t_uint256",
        "label": "mapping(uint256 => mapping(address => uint256))",
        "numberOfBytes": "32",
        "value": "t_mapping(t_address,t_uint256)"
      },
      "t_mapping(t_uint256,t_struct(PropertyData)7727_storage)": {
        "encoding": "mapping",
        "key": "t_uint256",
        "label": "mapping(uint256 => struct RealEstateTokenRegistry.PropertyData)",
        "numberOfBytes": "32",
        "value": "t_struct(PropertyData)7727_storage"
      },
      "t_mapping(t_uint256,t_uint256)": {
        "encoding": "mapping",
        "key": "t_uint256",
        "label": "mapping(uint256 => uint256)",
        "numberOfBytes": "32",
        "value": "t_uint256"
      },
      "t_mapping(t_uint64,t_struct(xTokenDetails)7737_storage)": {
        "encoding": "mapping",
        "key": "t_uint64",
        "label": "mapping(uint64 => struct RealEstateTokenRegistry.xTokenDetails)",
        "numberOfBytes": "32",
        "value": "t_struct(xTokenDetails)7737_storage"
      },
      "t_string_storage": {
        "encoding": "bytes",
        "label": "string",
        "numberOfBytes": "32"
      },
      "t_struct(PropertyData)7727_storage": {
        "encoding": "inplace",
        "label": "struct RealEstateTokenRegistry.PropertyData",
        "members": [
          {
            "astId": 7699,
            "contract": "contracts/RealEstateTokenRegistry.sol:RealEstateTokenRegistry",
            "label": "propertyOwner",
            "offset": 0,
            "slot": "0",
            "type": "t_address"
          },
          {
            "astId": 7701,
            "contract": "contracts/RealEstateTokenRegistry.sol:RealEstateTokenRegistry",
            "label": "propertyId",
            "offset": 0,
            "slot": "1",
            "type": "t_uint256"
          },
          {
            "astId": 7703,
            "contract": "contracts/RealEstateTokenRegistry.sol:RealEstateTokenRegistry",
            "label": "propertyAddress",
            "offset": 0,
            "slot": "2",
            "type": "t_string_storage"
          },
          {
            "astId": 7705,
            "contract": "contracts/RealEstateTokenRegistry.sol:RealEstateTokenRegistry",
            "label": "propertyListValue",
            "offset": 0,
            "slot": "3",
            "type": "t_uint256"
          },
          {
            "astId": 7707,
            "contract": "contracts/RealEstateTokenRegistry.sol:RealEstateTokenRegistry",
            "label": "propertyValueAppraisal",
            "offset": 0,
            "slot": "4",
            "type": "t_uint256"
          },
          {
            "astId": 7709,
            "contract": "contracts/RealEstateTokenRegistry.sol:RealEstateTokenRegistry",
            "label": "propertyFractionsCount",
            "offset": 0,
            "slot": "5",
            "type": "t_uint256"
          },
          {
            "astId": 7711,
            "contract": "contracts/RealEstateTokenRegistry.sol:RealEstateTokenRegistry",
            "label": "propertyOwnershipVerifier",
            "offset": 0,
            "slot": "6",
            "type": "t_address"
          },
          {
            "astId": 7713,
            "contract": "contracts/RealEstateTokenRegistry.sol:RealEstateTokenRegistry",
            "label": "propertyGuarantor",
            "offset": 0,
            "slot": "7",
            "type": "t_address"
          },
          {
            "astId": 7715,
            "contract": "contracts/RealEstateTokenRegistry.sol:RealEstateTokenRegistry",
            "label": "propertyOwnerShipVerifierAttestationUID",
            "offset": 0,
            "slot": "8",
            "type": "t_bytes32"
          },
          {
            "astId": 7717,
            "contract": "contracts/RealEstateTokenRegistry.sol:RealEstateTokenRegistry",
            "label": "propertyGuarantorAttestationUID",
            "offset": 0,
            "slot": "9",
            "type": "t_bytes32"
          },
          {
            "astId": 7719,
            "contract": "contracts/RealEstateTokenRegistry.sol:RealEstateTokenRegistry",
            "label": "propertyCollateralAmount",
            "offset": 0,
            "slot": "10",
            "type": "t_uint256"
          },
          {
            "astId": 7721,
            "contract": "contracts/RealEstateTokenRegistry.sol:RealEstateTokenRegistry",
            "label": "propertyOwnerTOSAttastationUID",
            "offset": 0,
            "slot": "11",
            "type": "t_bytes32"
          },
          {
            "astId": 7724,
            "contract": "contracts/RealEstateTokenRegistry.sol:RealEstateTokenRegistry",
            "label": "metadata",
            "offset": 0,
            "slot": "12",
            "type": "t_struct(propertyMetadata)7732_storage"
          },
          {
            "astId": 7726,
            "contract": "contracts/RealEstateTokenRegistry.sol:RealEstateTokenRegistry",
            "label": "isListed",
            "offset": 0,
            "slot": "14",
            "type": "t_bool"
          }
        ],
        "numberOfBytes": "480"
      },
      "t_struct(RoleData)2752_storage": {
        "encoding": "inplace",
        "label": "struct AccessControl.RoleData",
        "members": [
          {
            "astId": 2749,
            "contract": "contracts/RealEstateTokenRegistry.sol:RealEstateTokenRegistry",
            "label": "hasRole",
            "offset": 0,
            "slot": "0",
            "type": "t_mapping(t_address,t_bool)"
          },
          {
            "astId": 2751,
            "contract": "contracts/RealEstateTokenRegistry.sol:RealEstateTokenRegistry",
            "label": "adminRole",
            "offset": 0,
            "slot": "1",
            "type": "t_bytes32"
          }
        ],
        "numberOfBytes": "64"
      },
      "t_struct(propertyMetadata)7732_storage": {
        "encoding": "inplace",
        "label": "struct RealEstateTokenRegistry.propertyMetadata",
        "members": [
          {
            "astId": 7729,
            "contract": "contracts/RealEstateTokenRegistry.sol:RealEstateTokenRegistry",
            "label": "propertyImageURL",
            "offset": 0,
            "slot": "0",
            "type": "t_string_storage"
          },
          {
            "astId": 7731,
            "contract": "contracts/RealEstateTokenRegistry.sol:RealEstateTokenRegistry",
            "label": "description",
            "offset": 0,
            "slot": "1",
            "type": "t_string_storage"
          }
        ],
        "numberOfBytes": "64"
      },
      "t_struct(xTokenDetails)7737_storage": {
        "encoding": "inplace",
        "label": "struct RealEstateTokenRegistry.xTokenDetails",
        "members": [
          {
            "astId": 7734,
            "contract": "contracts/RealEstateTokenRegistry.sol:RealEstateTokenRegistry",
            "label": "xTokenAddress",
            "offset": 0,
            "slot": "0",
            "type": "t_address"
          },
          {
            "astId": 7736,
            "contract": "contracts/RealEstateTokenRegistry.sol:RealEstateTokenRegistry",
            "label": "ccipExtraArgsBytes",
            "offset": 0,
            "slot": "1",
            "type": "t_bytes_storage"
          }
        ],
        "numberOfBytes": "64"
      },
      "t_uint256": {
        "encoding": "inplace",
        "label": "uint256",
        "numberOfBytes": "32"
      },
      "t_uint64": {
        "encoding": "inplace",
        "label": "uint64",
        "numberOfBytes": "8"
      }
    }
  }
}