{
  "address": "0xa7b9036C47DDbe7C3158493baF040c40121a7e48",
  "abi": [
    {
      "inputs": [
        {
          "internalType": "address",
          "name": "_realEstateTokenRegistry",
          "type": "address"
        },
        {
          "internalType": "address",
          "name": "usdc",
          "type": "address"
        }
      ],
      "stateMutability": "nonpayable",
      "type": "constructor"
    },
    {
      "inputs": [],
      "name": "AccessControlBadConfirmation",
      "type": "error"
    },
    {
      "inputs": [
        {
          "internalType": "address",
          "name": "account",
          "type": "address"
        },
        {
          "internalType": "bytes32",
          "name": "neededRole",
          "type": "bytes32"
        }
      ],
      "name": "AccessControlUnauthorizedAccount",
      "type": "error"
    },
    {
      "inputs": [
        {
          "internalType": "address",
          "name": "target",
          "type": "address"
        }
      ],
      "name": "AddressEmptyCode",
      "type": "error"
    },
    {
      "inputs": [
        {
          "internalType": "address",
          "name": "account",
          "type": "address"
        }
      ],
      "name": "AddressInsufficientBalance",
      "type": "error"
    },
    {
      "inputs": [],
      "name": "FailedInnerCall",
      "type": "error"
    },
    {
      "inputs": [],
      "name": "InvalidRoundId",
      "type": "error"
    },
    {
      "inputs": [],
      "name": "MathOverflowedMulDiv",
      "type": "error"
    },
    {
      "inputs": [],
      "name": "PriceFeedDdosed",
      "type": "error"
    },
    {
      "inputs": [],
      "name": "ReentrancyGuardReentrantCall",
      "type": "error"
    },
    {
      "inputs": [
        {
          "internalType": "address",
          "name": "token",
          "type": "address"
        }
      ],
      "name": "SafeERC20FailedOperation",
      "type": "error"
    },
    {
      "inputs": [],
      "name": "StalePriceFeed",
      "type": "error"
    },
    {
      "anonymous": false,
      "inputs": [
        {
          "indexed": true,
          "internalType": "bytes32",
          "name": "role",
          "type": "bytes32"
        },
        {
          "indexed": true,
          "internalType": "bytes32",
          "name": "previousAdminRole",
          "type": "bytes32"
        },
        {
          "indexed": true,
          "internalType": "bytes32",
          "name": "newAdminRole",
          "type": "bytes32"
        }
      ],
      "name": "RoleAdminChanged",
      "type": "event"
    },
    {
      "anonymous": false,
      "inputs": [
        {
          "indexed": true,
          "internalType": "bytes32",
          "name": "role",
          "type": "bytes32"
        },
        {
          "indexed": true,
          "internalType": "address",
          "name": "account",
          "type": "address"
        },
        {
          "indexed": true,
          "internalType": "address",
          "name": "sender",
          "type": "address"
        }
      ],
      "name": "RoleGranted",
      "type": "event"
    },
    {
      "anonymous": false,
      "inputs": [
        {
          "indexed": true,
          "internalType": "bytes32",
          "name": "role",
          "type": "bytes32"
        },
        {
          "indexed": true,
          "internalType": "address",
          "name": "account",
          "type": "address"
        },
        {
          "indexed": true,
          "internalType": "address",
          "name": "sender",
          "type": "address"
        }
      ],
      "name": "RoleRevoked",
      "type": "event"
    },
    {
      "anonymous": false,
      "inputs": [
        {
          "indexed": true,
          "internalType": "address",
          "name": "buyer",
          "type": "address"
        },
        {
          "indexed": true,
          "internalType": "address",
          "name": "seller",
          "type": "address"
        },
        {
          "indexed": true,
          "internalType": "uint256",
          "name": "propertyId",
          "type": "uint256"
        },
        {
          "indexed": false,
          "internalType": "uint256",
          "name": "fractionsCount",
          "type": "uint256"
        }
      ],
      "name": "TokensSold",
      "type": "event"
    },
    {
      "inputs": [],
      "name": "DEFAULT_ADMIN_ROLE",
      "outputs": [
        {
          "internalType": "bytes32",
          "name": "",
          "type": "bytes32"
        }
      ],
      "stateMutability": "view",
      "type": "function"
    },
    {
      "inputs": [
        {
          "internalType": "bytes32",
          "name": "role",
          "type": "bytes32"
        }
      ],
      "name": "getRoleAdmin",
      "outputs": [
        {
          "internalType": "bytes32",
          "name": "",
          "type": "bytes32"
        }
      ],
      "stateMutability": "view",
      "type": "function"
    },
    {
      "inputs": [],
      "name": "getUsdcPriceInUsd",
      "outputs": [
        {
          "internalType": "uint256",
          "name": "",
          "type": "uint256"
        }
      ],
      "stateMutability": "view",
      "type": "function"
    },
    {
      "inputs": [
        {
          "internalType": "address",
          "name": "propertyOwner",
          "type": "address"
        },
        {
          "internalType": "uint256",
          "name": "propertyId",
          "type": "uint256"
        }
      ],
      "name": "getValuationInUsdc",
      "outputs": [
        {
          "internalType": "uint256",
          "name": "",
          "type": "uint256"
        }
      ],
      "stateMutability": "view",
      "type": "function"
    },
    {
      "inputs": [
        {
          "internalType": "bytes32",
          "name": "role",
          "type": "bytes32"
        },
        {
          "internalType": "address",
          "name": "account",
          "type": "address"
        }
      ],
      "name": "grantRole",
      "outputs": [],
      "stateMutability": "nonpayable",
      "type": "function"
    },
    {
      "inputs": [
        {
          "internalType": "bytes32",
          "name": "role",
          "type": "bytes32"
        },
        {
          "internalType": "address",
          "name": "account",
          "type": "address"
        }
      ],
      "name": "hasRole",
      "outputs": [
        {
          "internalType": "bool",
          "name": "",
          "type": "bool"
        }
      ],
      "stateMutability": "view",
      "type": "function"
    },
    {
      "inputs": [
        {
          "internalType": "address",
          "name": "propertyOwner",
          "type": "address"
        },
        {
          "internalType": "uint256",
          "name": "propertyId",
          "type": "uint256"
        },
        {
          "internalType": "uint256",
          "name": "fractionsCount",
          "type": "uint256"
        }
      ],
      "name": "purchasePropertyFraction",
      "outputs": [],
      "stateMutability": "nonpayable",
      "type": "function"
    },
    {
      "inputs": [],
      "name": "realEstateTokenRegistry",
      "outputs": [
        {
          "internalType": "contract RealEstateTokenRegistry",
          "name": "",
          "type": "address"
        }
      ],
      "stateMutability": "view",
      "type": "function"
    },
    {
      "inputs": [
        {
          "internalType": "bytes32",
          "name": "role",
          "type": "bytes32"
        },
        {
          "internalType": "address",
          "name": "callerConfirmation",
          "type": "address"
        }
      ],
      "name": "renounceRole",
      "outputs": [],
      "stateMutability": "nonpayable",
      "type": "function"
    },
    {
      "inputs": [
        {
          "internalType": "bytes32",
          "name": "role",
          "type": "bytes32"
        },
        {
          "internalType": "address",
          "name": "account",
          "type": "address"
        }
      ],
      "name": "revokeRole",
      "outputs": [],
      "stateMutability": "nonpayable",
      "type": "function"
    },
    {
      "inputs": [
        {
          "internalType": "address",
          "name": "usdcUsdAggregatorAddress",
          "type": "address"
        },
        {
          "internalType": "uint32",
          "name": "usdcUsdFeedHeartbeat",
          "type": "uint32"
        }
      ],
      "name": "setUsdcUsdPriceFeedDetails",
      "outputs": [],
      "stateMutability": "nonpayable",
      "type": "function"
    },
    {
      "inputs": [
        {
          "internalType": "bytes4",
          "name": "interfaceId",
          "type": "bytes4"
        }
      ],
      "name": "supportsInterface",
      "outputs": [
        {
          "internalType": "bool",
          "name": "",
          "type": "bool"
        }
      ],
      "stateMutability": "view",
      "type": "function"
    }
  ],
  "transactionHash": "0xae2a085878e992ea1ca223752659c33333dc2082faf142300be1d4c3bc1469d7",
  "args": [
    "0x15B6914b88db674D0ED487F0ACE909aBe2278A13",
    "0x68512a192A64AB1160C9558020c4a3007EF8e9B8"
  ],
  "numDeployments": 1,
  "solcInputHash": "1d98e25b2899efcac4babf9eed3bc04a",
  "bytecode": "0x60a060405234801561001057600080fd5b5060405161118538038061118583398101604081905261002f91610074565b60018055600280546001600160a01b0319166001600160a01b03938416179055166080526100a7565b80516001600160a01b038116811461006f57600080fd5b919050565b6000806040838503121561008757600080fd5b61009083610058565b915061009e60208401610058565b90509250929050565b6080516110c36100c260003960006102a801526110c36000f3fe608060405234801561001057600080fd5b50600436106100b45760003560e01c80637470215d116100715780637470215d1461017857806391d14854146101805780639775fc3c14610193578063a217fddf146101a6578063b38740f9146101ae578063d547741f146101c157600080fd5b806301ffc9a7146100b9578063248a9ca3146100e15780632f2ff15d1461011257806336568abe1461012757806342125b341461013a578063523d161a1461014d575b600080fd5b6100cc6100c7366004610a84565b6101d4565b60405190151581526020015b60405180910390f35b6101046100ef366004610aae565b60009081526020819052604090206001015490565b6040519081526020016100d8565b610125610120366004610adc565b61020b565b005b610125610135366004610adc565b610236565b610125610148366004610b0c565b61026e565b600254610160906001600160a01b031681565b6040516001600160a01b0390911681526020016100d8565b6101046103a9565b6100cc61018e366004610adc565b6104b4565b6101256101a1366004610b41565b6104dd565b610104600081565b6101046101bc366004610b78565b61051b565b6101256101cf366004610adc565b610660565b60006001600160e01b03198216637965db0b60e01b148061020557506301ffc9a760e01b6001600160e01b03198316145b92915050565b60008281526020819052604090206001015461022681610685565b6102308383610692565b50505050565b6001600160a01b038116331461025f5760405163334bd91960e11b815260040160405180910390fd5b6102698282610724565b505050565b61027661078f565b6000816064610285868661051b565b61028f9190610bd0565b6102999190610bf2565b90506102d06001600160a01b037f0000000000000000000000000000000000000000000000000000000000000000163386846107b9565b600254604051637921219560e11b81526001600160a01b038681166004830152336024830152604482018690526064820185905260a06084830152600060a48301529091169063f242432a9060c401600060405180830381600087803b15801561033957600080fd5b505af115801561034d573d6000803e3d6000fd5b5050505082846001600160a01b0316336001600160a01b03167f697c42d55a5e1fed3f464ec6f38b32546a0bd368dc8068b065c67566d73f32908560405161039791815260200190565b60405180910390a45061026960018055565b600080600080600360009054906101000a90046001600160a01b03166001600160a01b031663feaf968c6040518163ffffffff1660e01b815260040160a060405180830381865afa92505050801561041e575060408051601f3d908101601f1916820190925261041b91810190610c28565b60015b61043b5760405163bc2332ed60e01b815260040160405180910390fd5b50929550909350909150508269ffffffffffffffffffff166000036104735760405163bfbe031f60e01b815260040160405180910390fd5b60035461048d90600160a01b900463ffffffff1642610c78565b8110156104ad57604051631087e10960e01b815260040160405180910390fd5b5092915050565b6000918252602082815260408084206001600160a01b0393909316845291905290205460ff1690565b60006104e881610685565b506003805463ffffffff909216600160a01b026001600160c01b03199092166001600160a01b0390931692909217179055565b6002546040516362ef388360e01b81526001600160a01b0384811660048301526024820184905260009283929116906362ef388390604401600060405180830381865afa158015610570573d6000803e3d6000fd5b505050506040513d6000823e601f3d908101601f191682016040526105989190810190610e12565b60800151905060006105a86103a9565b90506000600360009054906101000a90046001600160a01b03166001600160a01b031663313ce5676040518163ffffffff1660e01b8152600401602060405180830381865afa1580156105ff573d6000803e3d6000fd5b505050506040513d601f19601f820116820180604052508101906106239190610f43565b60ff169050600660006106546106398587610bf2565b61064484600a61104a565b61064f86600a61104a565b610813565b98975050505050505050565b60008281526020819052604090206001015461067b81610685565b6102308383610724565b61068f81336108d8565b50565b600061069e83836104b4565b61071c576000838152602081815260408083206001600160a01b03861684529091529020805460ff191660011790556106d43390565b6001600160a01b0316826001600160a01b0316847f2f8788117e7eff1d82e926ec794901d17c78024a50270940304540a733656f0d60405160405180910390a4506001610205565b506000610205565b600061073083836104b4565b1561071c576000838152602081815260408083206001600160a01b0386168085529252808320805460ff1916905551339286917ff6391f5c32d9c69d2a47ea670b442974b53935d1edc7fd64eb21e047a839171b9190a4506001610205565b6002600154036107b257604051633ee5aeb560e01b815260040160405180910390fd5b6002600155565b604080516001600160a01b0385811660248301528416604482015260648082018490528251808303909101815260849091019091526020810180516001600160e01b03166323b872dd60e01b17905261023090859061091a565b600083830281600019858709828110838203039150508060000361084a5783828161084057610840610ba4565b04925050506108d1565b80841161086a5760405163227bc15360e01b815260040160405180910390fd5b6000848688096000868103871696879004966002600389028118808a02820302808a02820302808a02820302808a02820302808a02820302808a02909103029181900381900460010186841190950394909402919094039290920491909117919091029150505b9392505050565b6108e282826104b4565b6109165760405163e2517d3f60e01b81526001600160a01b0382166004820152602481018390526044015b60405180910390fd5b5050565b600061092f6001600160a01b0384168361097d565b905080516000141580156109545750808060200190518101906109529190611056565b155b1561026957604051635274afe760e01b81526001600160a01b038416600482015260240161090d565b60606108d18383600084600080856001600160a01b031684866040516109a39190611071565b60006040518083038185875af1925050503d80600081146109e0576040519150601f19603f3d011682016040523d82523d6000602084013e6109e5565b606091505b50915091506109f58683836109ff565b9695505050505050565b606082610a1457610a0f82610a5b565b6108d1565b8151158015610a2b57506001600160a01b0384163b155b15610a5457604051639996b31560e01b81526001600160a01b038516600482015260240161090d565b50806108d1565b805115610a6b5780518082602001fd5b604051630a12f52160e11b815260040160405180910390fd5b600060208284031215610a9657600080fd5b81356001600160e01b0319811681146108d157600080fd5b600060208284031215610ac057600080fd5b5035919050565b6001600160a01b038116811461068f57600080fd5b60008060408385031215610aef57600080fd5b823591506020830135610b0181610ac7565b809150509250929050565b600080600060608486031215610b2157600080fd5b8335610b2c81610ac7565b95602085013595506040909401359392505050565b60008060408385031215610b5457600080fd5b8235610b5f81610ac7565b9150602083013563ffffffff81168114610b0157600080fd5b60008060408385031215610b8b57600080fd5b8235610b9681610ac7565b946020939093013593505050565b634e487b7160e01b600052601260045260246000fd5b634e487b7160e01b600052601160045260246000fd5b600082610bed57634e487b7160e01b600052601260045260246000fd5b500490565b808202811582820484141761020557610205610bba565b805169ffffffffffffffffffff81168114610c2357600080fd5b919050565b600080600080600060a08688031215610c4057600080fd5b610c4986610c09565b9450602086015193506040860151925060608601519150610c6c60808701610c09565b90509295509295909350565b8181038181111561020557610205610bba565b634e487b7160e01b600052604160045260246000fd5b6040516101c0810167ffffffffffffffff81118282101715610cc557610cc5610c8b565b60405290565b8051610c2381610ac7565b60005b83811015610cf1578181015183820152602001610cd9565b50506000910152565b600082601f830112610d0b57600080fd5b815167ffffffffffffffff80821115610d2657610d26610c8b565b604051601f8301601f19908116603f01168101908282118183101715610d4e57610d4e610c8b565b81604052838152866020858801011115610d6757600080fd5b6109f5846020830160208901610cd6565b600060408284031215610d8a57600080fd5b6040516040810167ffffffffffffffff8282108183111715610dae57610dae610c8b565b816040528293508451915080821115610dc657600080fd5b610dd286838701610cfa565b83526020850151915080821115610de857600080fd5b50610df585828601610cfa565b6020830152505092915050565b80518015158114610c2357600080fd5b600060208284031215610e2457600080fd5b815167ffffffffffffffff80821115610e3c57600080fd5b908301906101c08286031215610e5157600080fd5b610e59610ca1565b610e6283610ccb565b815260208301516020820152604083015182811115610e8057600080fd5b610e8c87828601610cfa565b604083015250606083015160608201526080830151608082015260a083015160a0820152610ebc60c08401610ccb565b60c0820152610ecd60e08401610ccb565b60e082015261010083810151908201526101208084015190820152610140808401519082015261016080840151908201526101808084015183811115610f1257600080fd5b610f1e88828701610d78565b8284015250506101a09150610f34828401610e02565b91810191909152949350505050565b600060208284031215610f5557600080fd5b815160ff811681146108d157600080fd5b600181815b80851115610fa1578160001904821115610f8757610f87610bba565b80851615610f9457918102915b93841c9390800290610f6b565b509250929050565b600082610fb857506001610205565b81610fc557506000610205565b8160018114610fdb5760028114610fe557611001565b6001915050610205565b60ff841115610ff657610ff6610bba565b50506001821b610205565b5060208310610133831016604e8410600b8410161715611024575081810a610205565b61102e8383610f66565b806000190482111561104257611042610bba565b029392505050565b60006108d18383610fa9565b60006020828403121561106857600080fd5b6108d182610e02565b60008251611083818460208701610cd6565b919091019291505056fea264697066735822122003c111598b0e049b8aa085deaa60cc00811a3fbdee72f4f89d8d615a3d55e45164736f6c63430008140033",
  "devdoc": {
    "errors": {
      "AccessControlBadConfirmation()": [
        {
          "details": "The caller of a function is not the expected one. NOTE: Don't confuse with {AccessControlUnauthorizedAccount}."
        }
      ],
      "AccessControlUnauthorizedAccount(address,bytes32)": [
        {
          "details": "The `account` is missing a role."
        }
      ],
      "AddressEmptyCode(address)": [
        {
          "details": "There's no code at `target` (it is not a contract)."
        }
      ],
      "AddressInsufficientBalance(address)": [
        {
          "details": "The ETH balance of the account is not enough to perform the operation."
        }
      ],
      "FailedInnerCall()": [
        {
          "details": "A call to an address target failed. The target may have reverted."
        }
      ],
      "MathOverflowedMulDiv()": [
        {
          "details": "Muldiv operation overflow."
        }
      ],
      "ReentrancyGuardReentrantCall()": [
        {
          "details": "Unauthorized reentrant call."
        }
      ],
      "SafeERC20FailedOperation(address)": [
        {
          "details": "An operation with an ERC20 token failed."
        }
      ]
    },
    "events": {
      "RoleAdminChanged(bytes32,bytes32,bytes32)": {
        "details": "Emitted when `newAdminRole` is set as ``role``'s admin role, replacing `previousAdminRole` `DEFAULT_ADMIN_ROLE` is the starting admin for all roles, despite {RoleAdminChanged} not being emitted signaling this."
      },
      "RoleGranted(bytes32,address,address)": {
        "details": "Emitted when `account` is granted `role`. `sender` is the account that originated the contract call, an admin role bearer except when using {AccessControl-_setupRole}."
      },
      "RoleRevoked(bytes32,address,address)": {
        "details": "Emitted when `account` is revoked `role`. `sender` is the account that originated the contract call:   - if using `revokeRole`, it is the admin role bearer   - if using `renounceRole`, it is the role bearer (i.e. `account`)"
      }
    },
    "kind": "dev",
    "methods": {
      "getRoleAdmin(bytes32)": {
        "details": "Returns the admin role that controls `role`. See {grantRole} and {revokeRole}. To change a role's admin, use {_setRoleAdmin}."
      },
      "grantRole(bytes32,address)": {
        "details": "Grants `role` to `account`. If `account` had not been already granted `role`, emits a {RoleGranted} event. Requirements: - the caller must have ``role``'s admin role. May emit a {RoleGranted} event."
      },
      "hasRole(bytes32,address)": {
        "details": "Returns `true` if `account` has been granted `role`."
      },
      "purchasePropertyFraction(address,uint256,uint256)": {
        "details": "Purchase a fraction of a property",
        "params": {
          "fractionsCount": "The number of fractions to purchase",
          "propertyId": "The id of the property",
          "propertyOwner": "The owner of the property"
        }
      },
      "renounceRole(bytes32,address)": {
        "details": "Revokes `role` from the calling account. Roles are often managed via {grantRole} and {revokeRole}: this function's purpose is to provide a mechanism for accounts to lose their privileges if they are compromised (such as when a trusted device is misplaced). If the calling account had been revoked `role`, emits a {RoleRevoked} event. Requirements: - the caller must be `callerConfirmation`. May emit a {RoleRevoked} event."
      },
      "revokeRole(bytes32,address)": {
        "details": "Revokes `role` from `account`. If `account` had been granted `role`, emits a {RoleRevoked} event. Requirements: - the caller must have ``role``'s admin role. May emit a {RoleRevoked} event."
      },
      "supportsInterface(bytes4)": {
        "details": "See {IERC165-supportsInterface}."
      }
    },
    "version": 1
  },
  "userdoc": {
    "kind": "user",
    "methods": {
      "purchasePropertyFraction(address,uint256,uint256)": {
        "notice": "User should approve the contract to transfer the tokens on their behalf before calling this function"
      }
    },
    "notice": "This is a simple  contract for purchasing LinkReal platform tokenized real estate assets. Buyers can purchase either partial or full ownership of the Properties listed form RealEstateTokenRegistry contract.",
    "version": 1
  },
  "storageLayout": {
    "storage": [
      {
        "astId": 2757,
        "contract": "contracts/RealEstateTokenPurchaser.sol:RealEstateTokenPurchaser",
        "label": "_roles",
        "offset": 0,
        "slot": "0",
        "type": "t_mapping(t_bytes32,t_struct(RoleData)2752_storage)"
      },
      {
        "astId": 5771,
        "contract": "contracts/RealEstateTokenPurchaser.sol:RealEstateTokenPurchaser",
        "label": "_status",
        "offset": 0,
        "slot": "1",
        "type": "t_uint256"
      },
      {
        "astId": 7358,
        "contract": "contracts/RealEstateTokenPurchaser.sol:RealEstateTokenPurchaser",
        "label": "realEstateTokenRegistry",
        "offset": 0,
        "slot": "2",
        "type": "t_contract(RealEstateTokenRegistry)8789"
      },
      {
        "astId": 7361,
        "contract": "contracts/RealEstateTokenPurchaser.sol:RealEstateTokenPurchaser",
        "label": "s_usdcUsdAggregator",
        "offset": 0,
        "slot": "3",
        "type": "t_contract(AggregatorV3Interface)953"
      },
      {
        "astId": 7363,
        "contract": "contracts/RealEstateTokenPurchaser.sol:RealEstateTokenPurchaser",
        "label": "s_usdcUsdFeedHeartbeat",
        "offset": 20,
        "slot": "3",
        "type": "t_uint32"
      }
    ],
    "types": {
      "t_address": {
        "encoding": "inplace",
        "label": "address",
        "numberOfBytes": "20"
      },
      "t_bool": {
        "encoding": "inplace",
        "label": "bool",
        "numberOfBytes": "1"
      },
      "t_bytes32": {
        "encoding": "inplace",
        "label": "bytes32",
        "numberOfBytes": "32"
      },
      "t_contract(AggregatorV3Interface)953": {
        "encoding": "inplace",
        "label": "contract AggregatorV3Interface",
        "numberOfBytes": "20"
      },
      "t_contract(RealEstateTokenRegistry)8789": {
        "encoding": "inplace",
        "label": "contract RealEstateTokenRegistry",
        "numberOfBytes": "20"
      },
      "t_mapping(t_address,t_bool)": {
        "encoding": "mapping",
        "key": "t_address",
        "label": "mapping(address => bool)",
        "numberOfBytes": "32",
        "value": "t_bool"
      },
      "t_mapping(t_bytes32,t_struct(RoleData)2752_storage)": {
        "encoding": "mapping",
        "key": "t_bytes32",
        "label": "mapping(bytes32 => struct AccessControl.RoleData)",
        "numberOfBytes": "32",
        "value": "t_struct(RoleData)2752_storage"
      },
      "t_struct(RoleData)2752_storage": {
        "encoding": "inplace",
        "label": "struct AccessControl.RoleData",
        "members": [
          {
            "astId": 2749,
            "contract": "contracts/RealEstateTokenPurchaser.sol:RealEstateTokenPurchaser",
            "label": "hasRole",
            "offset": 0,
            "slot": "0",
            "type": "t_mapping(t_address,t_bool)"
          },
          {
            "astId": 2751,
            "contract": "contracts/RealEstateTokenPurchaser.sol:RealEstateTokenPurchaser",
            "label": "adminRole",
            "offset": 0,
            "slot": "1",
            "type": "t_bytes32"
          }
        ],
        "numberOfBytes": "64"
      },
      "t_uint256": {
        "encoding": "inplace",
        "label": "uint256",
        "numberOfBytes": "32"
      },
      "t_uint32": {
        "encoding": "inplace",
        "label": "uint32",
        "numberOfBytes": "4"
      }
    }
  }
}